022023071019999000001001TLeire                    Orbañanos                Martínez                 F00000000          N
022023071019999000001002TIker                     Ruiz                     Basoco                   M00000000          N
022023071019999000001003TAitor                    Menayo                   Hurtado                  M00000000          N
022023071019999000001004TCarolina                 Cruz                     Montesinos               F00000000          N
022023071019999000005001SCarmelo                  Barrio                   Baroja                   M00000000          N
022023071019999000005001TJavier                   De Andrés                Guerra                   M00000000          S
022023071019999000005002SAna                      Díaz De Zugazúa          Salazar                  F00000000          N
022023071019999000005002TLaura                    Garrido                  Knörr                    F00000000          N
022023071019999000005003SGustavo                  Antépara                 Benito                   M00000000          N
022023071019999000005003TAitor                    González                 González  (txapata)      M00000000          N
022023071019999000005004SAna                      Ortiz De Urbina          Alaña                    F00000000          N
022023071019999000005004TAna                      Salazar                  Aguayo                   F00000000          N
022023071019999000005005SLucas                    Ponce De León            Jiménez                  M00000000          N
022023071019999000006001SFernando                 Diez                     Villahoz                 M00000000          N
022023071019999000006001TMaría Teresa             Jiménez                  González                 F00000000          N
022023071019999000006002SZenaida Bibiana          Jiménez                  Saenz de San Pedro       F00000000          N
022023071019999000006002TFrancisco                Pérez                    Feijoo                   M00000000          N
022023071019999000006003SAsier                    Martínez                 Manjon                   M00000000          N
022023071019999000006003TIsabel                   Rodríuez                 Negro                    F00000000          N
022023071019999000006004TMiguel                   Llamas                   Barco                    M00000000          N
022023071019999000007001SAdela Esther             Gil                      Franco                   F00000000          N
022023071019999000007001TMaría Izaskun            Almazán                  Ledesma                  F00000000          N
022023071019999000007002TJosé Francisco           Rangel                   Fernández                M00000000          N
022023071019999000007003TJulia                    Moreno                   Pajuelo                  F00000000          N
022023071019999000007004TDavid                    Rivera                   Alonso                   M00000000          N
022023071019999000009001SMaría Arantzazu          Gutiérrez                Urrutia                  F00000000          N
022023071019999000009001TDiana                    Plaza                    Sánchez                  F00000000          N
022023071019999000009002STomás                    Rodríuez                 Vecino                   M00000000          N
022023071019999000009002TJulio José               Muñoz                    Mota                     M00000000          N
022023071019999000009003SRosa María               Arcediano                Salazar                  F00000000          N
022023071019999000009003TFlorencia                Pascual                  Díaz De Garayo           F00000000          N
022023071019999000009004SFelix                    Padilla                  Larrañaga                M00000000          N
022023071019999000009004TJosé Manuel              Salas                    Suárez                   M00000000          N
022023071019999000010001TGuillermo                Presa                    Santana                  M00000000          N
022023071019999000010002TCristina                 Macazaga                 Saenz                    F00000000          N
022023071019999000010003TSalvador                 González                 Santiago                 M00000000          N
022023071019999000010004TAna                      De Benito                Sanz                     F00000000          N
022023071019999000014001SIsabel                   García                   Arrausi                  F00000000          N
022023071019999000014001TEva María                Vicho                    López                    F00000000          N
022023071019999000014002SDanel                    Gaviña                   Churruca                 M00000000          N
022023071019999000014002TXabier                   Aperribay                Carrascal                M00000000          N
022023071019999000014003SMonica                   Aguilar                  Merino                   F00000000          N
022023071019999000014003TVeronica                 Alvarez                  Muñoz                    F00000000          N
022023071019999000014004SRaul                     Aperribay                Ganzabal                 M00000000          N
022023071019999000014004TJavier Francisco         García De Albizu         Díaz                     M00000000          N
022023071019999000071001SMikel                    Otero                    Gabirondo                M00000000          N
022023071019999000071001TIñaki                    Ruiz De Pinedo           Undiano                  M00000000          S
022023071019999000071002SAinhize                  Solaun                   Mendiguren               F00000000          N
022023071019999000071002TMaider                   García De Vicuña         Quintana                 F00000000          N
022023071019999000071003SBelén                    Arrondo                  Aldasoro                 F00000000          N
022023071019999000071003TIñigo                    Martínez                 Cerrillo                 M00000000          N
022023071019999000071004TRocío                    Vitero                   Pérez                    F00000000          N
022023071019999000075001SGerardo                  Bengoa                   Fernández De Gobeo       M00000000          N
022023071019999000075001TMikel                    Legarda                  Uriarte                  M00000000          S
022023071019999000075002SInge                     Gorostiaga               Luzarraga                F00000000          N
022023071019999000075002TAne Miren                Atin                     Ruiz De Biñaspre         F00000000          N
022023071019999000075003SRakel                    Molina                   Pérez                    F00000000          N
022023071019999000075003TAnartz                   Gorrotxategi             Elorriaga                M00000000          N
022023071019999000075004TMaite                    Cortazar                 Aguera                   F00000000          N
022023071019999000076001SAdrián                   Fernández                Rivas                    M00000000          N
022023071019999000076001TDaniel                   Senderos                 Oraá                     M00000000          S
022023071019999000076002SNagore                   Gutiérrez                Ruiz                     F00000000          N
022023071019999000076002TArantza                  Niño                     Núñez                    F00000000          N
022023071019999000076003TJorge                    Juez                     Ortiz                    M00000000          N
022023071019999000076004TIsabel                   Martín                   Hidalgo                  F00000000          N
022023071019999000077001TJosé Ignacio             Lijó                     Sancho                   M00000000          N
022023071019999000077002TYahya                    El Andalousi             Moutouk                  M00000000          N
022023071019999000077003TMarta                    Martín                   Freire                   F00000000          N
022023071019999000077004TMaría José               Almaraz                  Ruiz De Eguilaz          F00000000          N
022023071019999000098001SJavier                   Sebastian                García                   M00000000          N
022023071019999000098001TMikel                    Sáenz De Buruaga         De La Iglesia            M00000000          N
022023071019999000098002TEstefania                Barrionuevo              Hernández                F00000000          N
022023071019999000098003TAimar                    Rodríuez                 Soto                     M00000000          N
022023071019999000098004TEmma                     Benito                   Bernal                   F00000000          N
022023071029999000001001TAlba Del                 Castillo                 Castellanos              F00000000          N
022023071029999000001002TAlberto                  Valera                   Escobar                  M00000000          N
022023071029999000001003TNuria                    González                 Martínez                 F00000000          N
022023071029999000001004TAdrián                   Moreno                   Contreras                M00000000          N
022023071029999000002001SMaría Pilar              Sierra                   Morcillo                 F00000000          N
022023071029999000002001TEmilio                   Sáez                     Cruz                     M00000000          S
022023071029999000002002SJavier                   Losa                     Serrano                  M00000000          N
022023071029999000002002TIsabel Belén             Iniesta                  Egido                    F00000000          S
022023071029999000002003SPatricia                 Moreno                   Serrano                  F00000000          N
022023071029999000002003TJuan Carlos              Talavera                 Utiel                    M00000000          N
022023071029999000002004TGraciela                 Arenas                   Jerez                    F00000000          N
022023071029999000003001TAlberto                  Martínez                 Cuartero                 M00000000          N
022023071029999000003002TMaría Luisa              Valls                    Alguacil                 F00000000          N
022023071029999000003003TJorge Felipe             Thomas                   Casado                   M00000000          N
022023071029999000003004TLeire                    Navaridas                Zomeño                   F00000000          N
022023071029999000005001SManuela                  Garrido                  Ruiz                     F00000000          N
022023071029999000005001TMaría Carmen             Navarro                  Lacoba                   F00000000          S
022023071029999000005002SAntonio                  García                   Docón                    M00000000          N
022023071029999000005002TAntonio                  Martínez                 Gómez                    M00000000          S
022023071029999000005003SFrancisco                García                   Martínez                 M00000000          N
022023071029999000005003TMaría Rosario            Rodríguez                Rueda                    F00000000          N
022023071029999000005004SMaría Isabel             Martínez                 Gómez                    F00000000          N
022023071029999000005004TEduardo                  Sánchez                  Martínez                 M00000000          N
022023071029999000005005SJosé Antonio             Simón                    Sotos                    M00000000          N
022023071029999000005006SRocío                    García                   Torres                   F00000000          N
022023071029999000006001SJoaquín María            Peiró                    Pérez                    M00000000          N
022023071029999000006001TIsmael Iván              Vélez                    Cipriano                 M00000000          N
022023071029999000006002SFrancisco José           Castelló                 Castelló                 M00000000          N
022023071029999000006002TMariano                  Acebal                   Bernal                   M00000000          N
022023071029999000006003SPaula                    Sánchez                  Iniesta                  F00000000          N
022023071029999000006003TRosa María               Céspedes                 Martínez                 F00000000          N
022023071029999000006004TMaría Luisa              Gómez                    Gómez                    F00000000          N
022023071029999000007001SAna Isabel               López Salazar            Codes                    F00000000          N
022023071029999000007001TMaría de los Llanos      Soriano                  García                   F00000000          N
022023071029999000007002TPedro                    González                 López                    M00000000          N
022023071029999000007003TSandra                   Argudo                   Rodríguez                F00000000          N
022023071029999000007004TFernando                 Pérez                    Cristóbal                M00000000          N
022023071029999000009001SDaniel                   Sánchez                  López                    M00000000          N
022023071029999000009001TJosé Manuel              Muñoz                    Plata                    M00000000          N
022023071029999000009002SJoaquina                 Álvarez                  López                    F00000000          N
022023071029999000009002TYolanda                  González                 Jara                     F00000000          N
022023071029999000009003TNeido Manuel             González                 Álvarez                  M00000000          N
022023071029999000009004TJuana                    López                    Pascual                  F00000000          N
022023071029999000010001SÁlvaro                   Cuenca                   Zapata                   M00000000          N
022023071029999000010001TAgustín                  Zamora                   Pocovi                   M00000000          N
022023071029999000010002TJosé                     Almendros                González                 M00000000          N
022023071029999000010003TSusana                   Colmenero                Niño                     F00000000          N
022023071029999000010004TAna Isabel               García                   García                   F00000000          N
022023071039999000002001SRaúl                     Tamarit                  Seresola                 M00000000          N
022023071039999000002001TAlejandro                Soler                    Mur                      M00000000          S
022023071039999000002002SLorena                   Zamorano                 Gimeno                   F00000000          N
022023071039999000002002TPatricia                 Blanquer                 Alcaraz                  F00000000          S
022023071039999000002003SLupe Del Carmen          Herrera                  Salinas                  F00000000          N
022023071039999000002003TLázaro                   Azorín                   Salar                    M00000000          S
022023071039999000002004TMaría Araceli            Poblador                 Pacheco                  F00000000          S
022023071039999000002005TJosé Antonio             Díaz                     Fernández                M00000000          N
022023071039999000002006TLlanos Mar               Cano                     Ochando                  F00000000          N
022023071039999000002007TGuillermo                Sendra                   Guardiola                M00000000          N
022023071039999000002008TMaría Sandra             Martín                   Pérez                    F00000000          N
022023071039999000002009TIñaki                    Ríos                     García                   M00000000          N
022023071039999000002010TLara                     López                    Pérez                    F00000000          N
022023071039999000002011TMiguel                   De La Hoz                Sellés                   M00000000          N
022023071039999000002012TMaría Begoña             Andreu                   Rodes                    F00000000          N
022023071039999000005001SJoaquín                  Lucas                    Ferrández                M00000000          N
022023071039999000005001TMacarena                 Montesinos               De Miguel                F00000000          S
022023071039999000005002SAna Vicenta              Ortolá                   Briones                  F00000000          N
022023071039999000005002TJoaquín                  Melgarejo                Moreno                   M00000000          S
022023071039999000005003SMaría José               Villaplana               Colomer                  F00000000          N
022023071039999000005003TJulia                    Parra                    Aparicio                 F00000000          S
022023071039999000005004TCésar                    Sánchez                  Pérez                    M00000000          S
022023071039999000005005TSandra                   Pascual                  Rocamora                 F00000000          S
022023071039999000005006TRafael                   Serralta                 Vilaplana                M00000000          N
022023071039999000005007TMaría Luisa              Artiaga                  García                   F00000000          N
022023071039999000005008TJuan Antonio             Pérez                    Sala                     M00000000          N
022023071039999000005009TJoaquín                  Albaladejo               Martínez                 M00000000          N
022023071039999000005010TMaría del Carmen         Martínez                 Clemor                   F00000000          N
022023071039999000005011TNoelia                   Úbeda                    Camarasa                 F00000000          N
022023071039999000005012TJuan                     Molina                   Beneito                  M00000000          N
022023071039999000006001SHilario                  Catalá                   Poquet                   M00000000          N
022023071039999000006001TDavid                    García                   Gomis                    M00000000          S
022023071039999000006002SMaría Gema               Escolano                 Berna                    F00000000          N
022023071039999000006002TJosé María               Sánchez                  García                   M00000000          S
022023071039999000006003SEnrique Joaquín          Fernández                Rocamora                 M00000000          N
022023071039999000006003TEduardo Luis             Ruiz                     Navarro                  M00000000          N
022023071039999000006004SSandra                   Rico                     Deltell                  F00000000          N
022023071039999000006004TMaría Francisca          Parreño                  Coloma                   F00000000          N
022023071039999000006005TCristina                 Pastor                   Pérez                    F00000000          N
022023071039999000006006TJosé Mariano             Ormeño                   Castillo                 M00000000          N
022023071039999000006007TJuan                     Utrera                   Utrera                   M00000000          N
022023071039999000006008TMaría Teresa             Peidró                   Pascual                  F00000000          N
022023071039999000006009TPilar Iluminada          Prats                    Prats                    F00000000          N
022023071039999000006010TEnrique                  Martínez                 Moreno                   M00000000          N
022023071039999000006011TFrancisca                Vicente                  Cremades                 F00000000          N
022023071039999000006012TJosué Alfredo            Escudero                 Fernández                M00000000          N
022023071039999000007001SCarmen Margarita         Ramos                    Martínez                 F00000000          N
022023071039999000007001TBerta                    Soria                    Bordera                  F00000000          N
022023071039999000007002TManuel                   Fontán                   García                   M00000000          N
022023071039999000007003TMaría José               Peinado                  Puche                    F00000000          N
022023071039999000007004TJaime                    Barceló                  Ríos                     M00000000          N
022023071039999000007005TElena                    Martínez                 Martínez                 F00000000          N
022023071039999000007006TGermán                   Rabasco                  Mora                     M00000000          N
022023071039999000007007TÁngela                   Soler                    Lloret                   F00000000          N
022023071039999000007008TJosé Onofre              Martínez                 Reche                    M00000000          N
022023071039999000007009TMaría Victoria           Mora                     Gómez                    F00000000          N
022023071039999000007010TJosé Francisco           Maciá                    Amorós                   M00000000          N
022023071039999000007011TÁgueda                   Henarejos                García                   F00000000          N
022023071039999000007012TRamón José               Ripoll                   Ferri                    M00000000          N
022023071039999000009001SMaría Ángeles            Caballero                Écija                    F00000000          N
022023071039999000009001TGertrudis                Hurtado                  García                   F00000000          N
022023071039999000009002SEnrique                  Garrote                  Alcantarilla             M00000000          N
022023071039999000009002TJuan Ramón               Jaén                     Morcillo                 M00000000          N
022023071039999000009003SJosefa                   Caballero                Perruca                  F00000000          N
022023071039999000009003TJosefina                 Ruiz                     Giménez                  F00000000          N
022023071039999000009004SRoberto Carlos           Cantos                   Rodríguez                M00000000          N
022023071039999000009004TJuan Ramón               Vañó                     Camino                   M00000000          N
022023071039999000009005TMaría del Mar            Mohedano                 Juárez                   F00000000          N
022023071039999000009006TDiego                    Ruano                    Rubio                    M00000000          N
022023071039999000009007TMaría de las Mercedes    Company                  López                    F00000000          N
022023071039999000009008TJosé Manuel              Lledó                    Gonzálvez                M00000000          N
022023071039999000009009TZaida                    Peláez                   Ortiz                    F00000000          N
022023071039999000009010TIgnacio                  Baos                     Pérez                    M00000000          N
022023071039999000009011TAntonia                  Hurtado                  García                   F00000000          N
022023071039999000009012TCristóbal                García                   Álvarez                  M00000000          N
022023071039999000013001SPedro                    Bodas                    Heras                    M00000000          N
022023071039999000013001TRicardo                  Morado                   Fajardo                  M00000000          N
022023071039999000013002SMaría Carmen             Gallego                  Cózar                    F00000000          N
022023071039999000013002TMaría José               Sañudo                   Salamanqués              F00000000          N
022023071039999000013003SPatricia                 Miralles                 Rodríguez                F00000000          N
022023071039999000013003TMartín Ignacio           Sarrión                  De Castro                M00000000          N
022023071039999000013004TSilvia                   Vidal                    Soriano                  F00000000          N
022023071039999000013005TJosé Miguel              Esclapés                 Alarcón                  M00000000          N
022023071039999000013006TMercedes                 Torregrosa               Durá                     F00000000          N
022023071039999000013007TJoaquín Miguel           Oliva                    Fano                     M00000000          N
022023071039999000013008TSofía Margarita          Muñoz                    Casares                  F00000000          N
022023071039999000013009TDavid                    Cózar                    Olivares                 M00000000          N
022023071039999000013010TIsabel                   Ibáñez                   Gil                      F00000000          N
022023071039999000013011TJosé Manuel              López                    Martínez                 M00000000          N
022023071039999000013012TMaría Dolores            Espinosa                 Jiménez                  F00000000          N
022023071039999000081001SFernando                 Giménez                  Linares                  M00000000          N
022023071039999000081001TLydia                    Cañedo                   Oliver                   F00000000          N
022023071039999000081002TJosé Matías              Hurtado                  Albertos                 M00000000          N
022023071039999000081003TEmilia                   López                    Alcolea                  F00000000          N
022023071039999000081004TRafael                   Juan                     Gas                      M00000000          N
022023071039999000081005TLuisa Altagracia         Pérez                    Arias                    F00000000          N
022023071039999000081006TJuan Miguel              Aliaga                   Pastor                   M00000000          N
022023071039999000081007TInmaculada               Mena                     Palmer                   F00000000          N
022023071039999000081008TFrancisco                García                   Galipienso               M00000000          N
022023071039999000081009TMaría del Carmen         Ruiz                     Muñoz                    F00000000          N
022023071039999000081010TFrancisco Miguel         Blanquer                 Esteve                   M00000000          N
022023071039999000081011TEncarnación              Ruiz                     Muñoz                    F00000000          N
022023071039999000081012TJosé Fernando            Martínez                 Alfaro                   M00000000          N
022023071039999000082001SAlba                     Laserna                  Bravo                    F00000000          N
022023071039999000082001TJosé María               Guijarro                 García                   M00000000          S
022023071039999000082002SDolores del Rosario      Sánchez                  Carreño                  F00000000          N
022023071039999000082002TImma                     Orozco                   Ripoll                   F00000000          N
022023071039999000082003SManolo                   Cope                     Tobaja                   M00000000          N
022023071039999000082003TNaiara                   Davó                     Bernabeu                 F00000000          N
022023071039999000082004TEsther                   Bravo                    Morales                  F00000000          N
022023071039999000082005TVíctor Daniel            Domínguez                Lucena                   M00000000          N
022023071039999000082006TMiriam                   Ennioua                  Hurtado                  F00000000          N
022023071039999000082007TJosé Antonio             Esparcia                 López                    M00000000          N
022023071039999000082008TRafa                     Gil                      Vera                     M00000000          N
022023071039999000082009TNefer                    Vives                    Frasquet                 F00000000          N
022023071039999000082010TMaribel                  Morera                   Mateos-Aparicio          F00000000          N
022023071039999000082011TRosa María               Ruíz                     Martínez                 F00000000          N
022023071039999000082012TRafa                     Carrió                   Company                  M00000000          N
022023071039999000097001TDavid                    Vidal                    Más                      M00000000          N
022023071039999000097002TCarlos                   López                    Escudero                 M00000000          N
022023071039999000097003TAntonio                  Sánchez                  Ballesta                 M00000000          N
022023071039999000097004TRaquel                   García                   Greus                    F00000000          N
022023071039999000097005TRaquel                   Piqueras                 Suárez                   F00000000          N
022023071039999000097006TGerson                   Castro                   Fernández                M00000000          N
022023071039999000097007TJosé Alberto             Jiménez                  González                 M00000000          N
022023071039999000097008TKevin Patricio           Romero                   Padilla                  M00000000          N
022023071039999000097009TVioleta                  Gutiérrez de la Vega     Sapena                   F00000000          N
022023071039999000097010TElena                    Moya                     Guillén                  F00000000          N
022023071039999000097011TGuadalupe                González                 Manzano                  F00000000          N
022023071039999000097012TVicente Javier           Lorenzo                  Martínez                 M00000000          N
022023071049999000001001TAntonio                  Coy                      García                   M00000000          N
022023071049999000001002TÁngela María             Toro                     Orozco                   F00000000          N
022023071049999000001003TNicolás                  González                 Morales                  M00000000          N
022023071049999000001004TAlejandro                Gómez                    Rodríguez                M00000000          N
022023071049999000001005TIsabel                   Rodríguez                Espada                   F00000000          N
022023071049999000001006TMaría                    Torre                    Muñoz                    F00000000          N
022023071049999000002001SAntonio                  Bonilla                  Rodríguez                M00000000          N
022023071049999000002001TAntonio                  Hernando                 Vera                     M00000000          S
022023071049999000002002SPurificación             Sánchez                  Aranega                  F00000000          N
022023071049999000002002TInés María               Plaza                    García                   F00000000          S
022023071049999000002003SAntonio                  Fernández                Liria                    M00000000          N
022023071049999000002003TJuan Antonio             Lorenzo                  Cazorla                  M00000000          N
022023071049999000002004SAntonia                  Contreras                Ortega                   F00000000          N
022023071049999000002004TMaría Belén              Ruiz                     Lupión                   F00000000          N
022023071049999000002005TJosé Ramón               García                   Túñez                    M00000000          N
022023071049999000002006TTania                    Moya                     Cañabate                 F00000000          N
022023071049999000003001TMaría Mercedes           Quero                    Molina                   F00000000          N
022023071049999000003002TMaría Luisa              Jiménez de Rueda         Plaza                    F00000000          N
022023071049999000003003TMaría Dolores            Gázquez                  Reyes                    F00000000          N
022023071049999000003004TCarlos                   Lay                      Quero                    M00000000          N
022023071049999000003005TAndrés                   García                   Gutiérrez                M00000000          N
022023071049999000003006TSimón Antonio            Andueza                  Azcárate                 M00000000          N
022023071049999000004001TJuan José                Santiago                 Alcalde                  M00000000          N
022023071049999000004002TMaría Dolores            González                 Rodríguez                F00000000          N
022023071049999000004003TJuan José                Cano                     Sánchez                  M00000000          N
022023071049999000004004TVictoria                 Flores                   Rubio                    F00000000          N
022023071049999000004005TJosé Francisco           Rodríguez                Puertas                  M00000000          N
022023071049999000004006TMaría Del Mar            Gázquez                  Rosa                     F00000000          N
022023071049999000005001SBaldomero                Martínez                 Carretero                M00000000          N
022023071049999000005001TMaría Isabel             Sánchez                  Torregrosa               F00000000          S
022023071049999000005002SJuan Manuel              Gómez                    Ruiz                     M00000000          N
022023071049999000005002TRafael Antonio           Hernando                 Fraile                   M00000000          S
022023071049999000005003SDolores                  Moreno                   Sobrino                  F00000000          N
022023071049999000005003TAna María                Martínez                 Labella                  F00000000          S
022023071049999000005004TNuria                    Rodríguez                Martín                   F00000000          N
022023071049999000005005TManuel                   Martínez                 Molina                   M00000000          N
022023071049999000005006TAndrés Miguel            García                   Lorca                    M00000000          N
022023071049999000006001SBeatriz                  Sánchez                  Rodríguez                F00000000          N
022023071049999000006001TRocío                    De Meer                  Méndez                   F00000000          S
022023071049999000006002SAndrés                   Martínez                 González                 M00000000          N
022023071049999000006002TRodrigo                  Alonso                   Fernández                M00000000          N
022023071049999000006003SInmaculada               López                    Rivas                    F00000000          N
022023071049999000006003TManuela del Mar          Martín                   Ibáñez                   F00000000          N
022023071049999000006004TCarlos Antonio           García                   Sánchez                  M00000000          N
022023071049999000006005TPatricia                 Escámez                  Marín                    F00000000          N
022023071049999000006006TJuan Francisco           Rojas                    Fernández                M00000000          N
022023071049999000007001SMarcial                  Milla                    Colmenero                M00000000          N
022023071049999000007001TEduardo José             Milla                    Juan                     M00000000          N
022023071049999000007002SNatalia                  Vicente                  Vega                     F00000000          N
022023071049999000007002TEdurne                   Alejano                  Sánchez                  F00000000          N
022023071049999000007003TTomás                    Padilla                  Plaza                    M00000000          N
022023071049999000007004TMaría Sol                Brunet                   Lechón                   F00000000          N
022023071049999000007005TAlberto                  Cabrera                  Moral                    M00000000          N
022023071049999000007006TMaría Soledad            Ramos                    Díaz                     F00000000          N
022023071049999000008001SLucía                    Cortés                   Leite                    F00000000          N
022023071049999000008001TLuz Belinda              Rodríguez                Fernández                F00000000          N
022023071049999000008002SEduardo                  Castro                   Rey                      M00000000          N
022023071049999000008002TMarcel                   Maya                     Luiz                     M00000000          N
022023071049999000008003SRemedios                 Anaya                    Miranda                  F00000000          N
022023071049999000008003TAna María                París                    García                   F00000000          N
022023071049999000008004TFrancisco Javier         Gómez                    Fernández                M00000000          N
022023071049999000008005TSonia                    González                 Sánchez                  F00000000          N
022023071049999000008006TEduardo Ricardo          Sumay                    Vieytes                  M00000000          N
022023071049999000009001SFrancisco Agustín        Agüera                   Alarcón                  M00000000          N
022023071049999000009001TRicardo                  Romero                   Teva                     M00000000          N
022023071049999000009002SAntonio                  Ruiz                     Prádanos                 M00000000          N
022023071049999000009002TPedro Antonio            Nos                      Gómez                    M00000000          N
022023071049999000009003SCarmen del Mar           Úbeda                    Vargas                   F00000000          N
022023071049999000009003TLeonor María             Yepes                    García                   F00000000          N
022023071049999000009004SEva María                Cabañas                  Serrano                  F00000000          N
022023071049999000009004TFrancisco                Barba                    Zarza                    M00000000          N
022023071049999000009005TMaría Gádor              Frías                    Martín                   F00000000          N
022023071049999000009006TMaría Jesús              Chacón                   Mesa                     F00000000          N
022023071049999000011001SRamón Joaquín            Arnalte                  Fuertes                  M00000000          N
022023071049999000011001TManuel                   Pérez                    Sola                     M00000000          N
022023071049999000011002SJosé Antonio             Ruíz                     Román                    M00000000          N
022023071049999000011002TGloria María             Gago                     Vázquez                  F00000000          N
022023071049999000011003SAscensión                Marcos                   Murcia                   F00000000          N
022023071049999000011003TJuan Pablo               Yakubiuk                 de Pablo                 M00000000          N
022023071049999000011004TAngelina Concepción      Olea                     González                 F00000000          N
022023071049999000011005TInmaculada               Luque                    Gallegos                 F00000000          N
022023071049999000011006TMario                    Martos                   Celorrio                 M00000000          N
022023071059999000001001TJosep                    Pascual                  Avaria                   M00000000          N
022023071059999000001002TPablo                    Íscar                    Martín                   M00000000          N
022023071059999000001003TMaría del Henar          Alcalde                  Martín Calero            F00000000          N
022023071059999000002001SMaría Carmen             Fernández                González                 F00000000          N
022023071059999000002001TManuel                   Arribas                  Maroto                   M00000000          S
022023071059999000002002SManuel                   Jiménez                  Rodríguez                M00000000          N
022023071059999000002002TNatalia                  Torrecilla               Perrino                  F00000000          N
022023071059999000002003SFeliciano                Rodríguez                Hernández                M00000000          N
022023071059999000002003TCarlos                   Montesino                Garro                    M00000000          N
022023071059999000002004SIsabel                   Vinuesa                  Muñoz                    F00000000          N
022023071059999000003001TAndrés                   Serrano                  Paradinas                M00000000          N
022023071059999000003002TAlberto                  Meléndez                 Gracia                   M00000000          N
022023071059999000003003TElisa                    Menéndez                 Galán                    F00000000          N
022023071059999000005001SMaría del Pilar          Araoz                    Hernández                F00000000          N
022023071059999000005001THector                   Palencia                 Rubio                    M00000000          S
022023071059999000005002SFrancisco                Fernández                García                   M00000000          N
022023071059999000005002TPatricia                 Rodríguez                Calleja                  F00000000          S
022023071059999000005003SMaría del Carmen         Zafra                    Fernández                F00000000          N
022023071059999000005003TGermán                   Ulloa                    López                    M00000000          N
022023071059999000005004SDavid                    Sánchez                  Tenrero                  M00000000          N
022023071059999000005005SEsther                   González                 López                    F00000000          N
022023071059999000005006SMiguel Ángel             López                    Ruiz                     M00000000          N
022023071059999000006001SRaquel                   Canales                  García                   F00000000          N
022023071059999000006001TGeorgina                 Trías                    Gil                      F00000000          N
022023071059999000006002SPatricia                 Garzaran                 Fernández                F00000000          N
022023071059999000006002TJosé Manuel              Lorenzo                  Serapio                  M00000000          N
022023071059999000006003SJulio                    Rosado                   Martín                   M00000000          N
022023071059999000006003TFernando                 Toribio                  Carrera                  M00000000          N
022023071059999000006004SRubén                    Sánchez                  Sánchez                  M00000000          N
022023071059999000007001SLydia                    Cembellin                Martín                   F00000000          N
022023071059999000007001TAntonio Carlos           Ferreira                 de Jesús                 M00000000          N
022023071059999000007002TRosa                     de la Calle              González                 F00000000          N
022023071059999000007003TFrancisco José           Martínez                 López                    M00000000          N
022023071059999000009001SManuel Honorio           Plaza                    Díaz                     M00000000          N
022023071059999000009001TSaturnino                Benito                   Carrión                  M00000000          N
022023071059999000009002SAna Isabel               Martín                   Jiménez                  F00000000          N
022023071059999000009002TGustavo                  Alonso                   Suco                     M00000000          N
022023071059999000009003SRaquel                   Ochoa                    Torres                   F00000000          N
022023071059999000009003TMontserrat               Ortega                   Gascón                   F00000000          N
022023071059999000010001TGustavo                  Larrea                   Olmo                     M00000000          N
022023071059999000010002TAmelia                   Samper                   Montes                   F00000000          N
022023071059999000010003TCora                     Libran                   López                    M00000000          N
022023071059999000015001SNicolás                  Saiz                     Toribio                  M00000000          N
022023071059999000015001TDaniel Jesser            Rad                      Hind                     M00000000          N
022023071059999000015002TAndrea                   Velasco                  Palomero                 F00000000          N
022023071059999000015003TJosé                     Medina                   Poves                    M00000000          N
022023071059999000019001TFrancisco Miguel         López                    Vázquez                  M00000000          N
022023071059999000019002TElena                    Antolín                  Piñán                    F00000000          N
022023071059999000019003TJosé Luis                Moreno                   Parrondo                 M00000000          N
022023071059999000035001SMarta                    Ramos                    Casillas                 F00000000          N
022023071059999000035001TPedro José               Pascual                  Muñoz                    M00000000          N
022023071059999000035002SMiguel Ángel             Jiménez                  Sánchez                  M00000000          N
022023071059999000035002TÉvora                    Calle                    del Consuelo             F00000000          N
022023071059999000035003SMercedes                 Soto                     Sánchez                  F00000000          N
022023071059999000035003TDiego                    Hernández                Martín                   M00000000          N
022023071059999000035004SJosé Luis                Sánchez                  López                    M00000000          N
022023071059999000035005SNoelia                   Rodríguez                Pérez                    F00000000          N
022023071059999000035006SLuis                     Benito                   Muñoz                    M00000000          N
022023071069999000002001SFederico Jesús           González                 Trinidad                 M00000000          N
022023071069999000002001TMaría Isabel             García                   López                    F00000000          S
022023071069999000002002SIcíar                    Durán                    Moraga                   F00000000          N
022023071069999000002002TJuan Antonio             González                 Gracia                   M00000000          S
022023071069999000002003SAlba                     Barquero                 García                   F00000000          N
022023071069999000002003TCatalina                 Paredes                  Menea                    F00000000          N
022023071069999000002004TEduardo                  Cruz                     Castillo                 M00000000          N
022023071069999000002005TAna                      Lima                     Osorio                   F00000000          N
022023071069999000003001TLuis                     Blanco                   García                   M00000000          N
022023071069999000003002TInmaculada               Soria                    Eugenio                  F00000000          N
022023071069999000003003TIsmael Moisés            Valdivia                 López                    M00000000          N
022023071069999000003004TCristina                 Manzano                  Gamero                   F00000000          N
022023071069999000003005TElena María              Viguera                  Moreno                   F00000000          N
022023071069999000005001SAlfonso Jesús            Fernández                Gallardo                 M00000000          N
022023071069999000005001TAntonio                  Cavacasillas             Rodríguez                M00000000          S
022023071069999000005002SÁngel Tomás              Díaz                     Trenado                  M00000000          N
022023071069999000005002TAlfonso Carlos           Macías                   Gata                     M00000000          S
022023071069999000005003SMaría del Rosario        González                 Andrés                   F00000000          N
022023071069999000005003TMaría José               Solana                   Barras                   F00000000          N
022023071069999000005004TBlanca                   Subirán                  Pacheco                  F00000000          N
022023071069999000005005TAna                      Campos                   Eltanal                  F00000000          N
022023071069999000006001SFermín Manuel            Prieto                   Martínez                 M00000000          N
022023071069999000006001TIgnacio                  Hoces                    Íñiguez                  M00000000          S
022023071069999000006002SRocío                    Pérez                    Barroso                  F00000000          N
022023071069999000006002TJavier                   Bravo                    Arrobas                  M00000000          N
022023071069999000006003SMaría Isabel             Lavado                   Martín                   F00000000          N
022023071069999000006003TJavier                   Liso                     Salesa                   M00000000          N
022023071069999000006004TEva María                García                   Alegre                   F00000000          N
022023071069999000006005TEloísa María             Gracia                   Montaño                  F00000000          N
022023071069999000007001SAntonio                  Casillas                 Serrano                  M00000000          N
022023071069999000007001TÁngela                   Casillas                 Fort                     F00000000          N
022023071069999000007002SMaría Del Carmen         Guisado                  Espiño                   F00000000          N
022023071069999000007002TDavid                    Calderón                 Torres                   M00000000          N
022023071069999000007003SJosé Ángel               Sánchez                  Fernández                M00000000          N
022023071069999000007003TMaría José               Germán                   Del Viejo                F00000000          N
022023071069999000007004TJulián                   Fernández                Gallego                  M00000000          N
022023071069999000007005TMaría De La Luz          Frejo                    Rodríguez                F00000000          N
022023071069999000009001SDiego                    Gaitero                  Ballinoto                M00000000          N
022023071069999000009001TJosé Ramón               Luna                     De María                 M00000000          N
022023071069999000009002SDaniela                  Naranjo                  Escobar                  F00000000          N
022023071069999000009002TLuis Miguel              Vegas                    Álvarez                  M00000000          N
022023071069999000009003TJorge                    González                 Daniel                   M00000000          N
022023071069999000009004TLara                     Noguera                  Catalán                  F00000000          N
022023071069999000009005TMercedes                 Gallego                  Cano                     F00000000          N
022023071069999000010001SMarta                    González                 Cava                     F00000000          N
022023071069999000010001TMarcelino                Díaz                     Vázquez                  M00000000          N
022023071069999000010002SRosa María               Fabián                   Romero                   F00000000          N
022023071069999000010002TMaría Del Pilar          Ramos                    Duro                     F00000000          N
022023071069999000010003SModesto                  González                 Valle                    M00000000          N
022023071069999000010003TMontserrat               Ventura                  Pírez                    F00000000          N
022023071069999000010004TManuel                   Vélez                    García                   M00000000          N
022023071069999000010005TFernando                 Merchán                  De Vera                  M00000000          N
022023071069999000062001SCarmen                   Baztán                   Moreno                   F00000000          N
022023071069999000062001TAntonio                  Granero                  Gallardo                 M00000000          N
022023071069999000062002SJuan Antonio             Serrano                  Pérez                    M00000000          N
022023071069999000062002TRaquel María             González                 Silos                    F00000000          N
022023071069999000062003SMaría Lourdes            Prior                    Díaz                     F00000000          N
022023071069999000062003TJosé Ramón               Gamero                   Pimienta                 M00000000          N
022023071069999000062004SJesús                    Vázquez                  Molina                   M00000000          N
022023071069999000062004TTamara                   Palomo                   Martín                   F00000000          N
022023071069999000062005TAndrés                   Malabé                   González                 M00000000          N
022023071069999000097001TManuel José              Mansilla                 Luengo                   M00000000          N
022023071069999000097002TAlejandro                Díaz                     Sánchez                  M00000000          N
022023071069999000097003TJesús                    Mora                     Ramos                    M00000000          N
022023071069999000097004TCarla                    Marín                    Herrera                  F00000000          N
022023071069999000097005TSilvia                   Giménez                  Mayol                    F00000000          N
022023071079999000001001TJulia                    Galindo                  López                    F00000000          N
022023071079999000001002TAlexandre Jordi          Hoffmann                 Molinas                  M00000000          N
022023071079999000001003TSarah                    Martín                   Agricola                 F00000000          N
022023071079999000001004TCarlos Federico          Sánchez                  Sejas                    M00000000          N
022023071079999000001005TJosé Antonio             Sobreviela               Silvente                 M00000000          N
022023071079999000001006TBruno                    Rodríguez                Fernández                M00000000          N
022023071079999000001007TSelva Lucía              Belmaña                  López                    F00000000          N
022023071079999000001008TMarta                    Vidal                    Rodríuez                 F00000000          N
022023071079999000005001SRafael                   Oliver                   Barros                   M00000000          N
022023071079999000005001TJosé Vicente             Marí                     Bosó                     M00000000          S
022023071079999000005002SCatalina María           Mascaró                  Bestard                  F00000000          N
022023071079999000005002TSandra                   Fernández                Herranz                  F00000000          S
022023071079999000005003SMateu Francesc           Aínsa                    Coll                     M00000000          N
022023071079999000005003TJoan                     Mesquida                 Mayans                   M00000000          S
022023071079999000005004SRaúl                     Juan                     Costa                    M00000000          N
022023071079999000005004TCarlos                   Simarro                  Vicens                   M00000000          N
022023071079999000005005SHermosinda               Mariño                   Pocoví                   F00000000          N
022023071079999000005005TMabel                    Navarro                  Picazo                   F00000000          N
022023071079999000005006SAna                      Negre                    Casals                   F00000000          N
022023071079999000005006TFrancisco                Ferrer                   Tur                      M00000000          N
022023071079999000005007SManuel                   Bennássar                Gutiérrez de Concha      M00000000          N
022023071079999000005007TBeatriz                  Estopiñán                González                 F00000000          N
022023071079999000005008SPatrick                  Colom                    Romain                   M00000000          N
022023071079999000005008TFrancesca                Ramis                    Pons                     F00000000          N
022023071079999000005009SJuana María              Pons                     Torres                   F00000000          N
022023071079999000005010SFrancisco Javier         Marí                     Álvarez                  M00000000          N
022023071079999000006001SAntonio Jorge            Escudero                 Masa                     M00000000          N
022023071079999000006001TJorge                    Campos                   Asensi                   M00000000          S
022023071079999000006002SAmanda                   Gomila                   Campaña                  F00000000          N
022023071079999000006002TAntonio                  Salva                    Verd                     M00000000          N
022023071079999000006003SMaría Pilar              Amate                    Rotger                   F00000000          N
022023071079999000006003TManuela                  Cañadas                  Pinilla                  F00000000          N
022023071079999000006004TAna María                Jiménez                  López                    F00000000          N
022023071079999000006005TSantiago                 Barber                   López                    M00000000          N
022023071079999000006006TNerea                    García                   Serrano                  F00000000          N
022023071079999000006007TJuan Antonio             Esteban                  Rodríguez                M00000000          N
022023071079999000006008TEulalia                  Petrus                   Camps                    F00000000          N
022023071079999000007001SJavier Antonio           Muñoz                    Izquierdo                M00000000          N
022023071079999000007001TAntoni Eloi              Lorente                  Jorquera                 M00000000          N
022023071079999000007002TFrancisco                González                 Benito                   M00000000          N
022023071079999000007003TMaría Remedios           García                   Castillo                 F00000000          N
022023071079999000007004TLlorenç                  Pascual                  Coll                     M00000000          N
022023071079999000007005TAndrea                   Rodríguez                Carreras                 F00000000          N
022023071079999000007006TLuis Ignacio             González                 Fernández                M00000000          N
022023071079999000007007TMaría de los Ángeles     Riutord                  Moreno                   F00000000          N
022023071079999000007008TMaría Juana              Fernández                López-Alcorocho          F00000000          N
022023071079999000009001SBernat Salvador          Amorós                   Munar                    M00000000          N
022023071079999000009001TAdrià                    González                 Minaya                   M00000000          N
022023071079999000009002TKatherine Jacqueline     Castro                   Véliz                    F00000000          N
022023071079999000009003TJesús Manuel             Guardiola                Pascual                  M00000000          N
022023071079999000009004TRicarda                  Minaya                   Caballero                F00000000          N
022023071079999000009005TManuel                   Valera                   Medina                   M00000000          N
022023071079999000009006TAna María                Díaz                     Lucena                   F00000000          N
022023071079999000009007TJosé                     Fuentes                  Araya                    M00000000          N
022023071079999000009008TMaría                    Cotes                    Porcel                   F00000000          N
022023071079999000015001SDavid Joao               Rodríguez                Secades                  M00000000          N
022023071079999000015001TJoan                     Luna                     Mateu                    M00000000          N
022023071079999000015002TMarina                   Quetglas                 Suau                     F00000000          N
022023071079999000015003TAgustín                  Gálvez                   Martínez                 M00000000          N
022023071079999000015004TBeatriz                  Serrato                  Coll                     F00000000          N
022023071079999000015005TSergio                   Salvadores               Artigues                 M00000000          N
022023071079999000015006TSara                     Salvadores               Artigues                 F00000000          N
022023071079999000015007TJoan                     Caldentey                Amengual                 M00000000          N
022023071079999000015008TMercè                    Seguí                    Cuquerella               F00000000          N
022023071079999000029001SCarmen                   Corraliza                Gallardo                 F00000000          N
022023071079999000029001TFrancesca Lluch          Armengol                 Socias                   F00000000          S
022023071079999000029002SOscar                    Pascual                  Fortuny                  M00000000          N
022023071079999000029002TPepe                     Mercadal                 Baquero                  M00000000          S
022023071079999000029003SAzahara                  Peña                     De la Fuente             F00000000          N
022023071079999000029003TMilena                   Herrera                  García                   F00000000          S
022023071079999000029004TMiquel                   Cabot                    Rodríguez                M00000000          N
022023071079999000029005TRaquel                   Guach                    Ferrer                   F00000000          N
022023071079999000029006TFrancisco                Muñoz                    Cuevas                   M00000000          N
022023071079999000029007TMaría Pilar              Carrasco                 Pons                     F00000000          N
022023071079999000029008TAndreu                   Alcover                  Ordinas                  M00000000          N
022023071079999000030001SRosa                     Palliser                 Riudavets                F00000000          N
022023071079999000030001TVicenç                   Vidal                    Matas                    M00000000          S
022023071079999000030002SArtur                    Parrón                   Guasch                   M00000000          N
022023071079999000030002TElisabeth                Ripoll                   Gil                      F00000000          N
022023071079999000030003SLaura                    Celià                    Gelabert                 F00000000          N
022023071079999000030003TEsteve                   Barceló                  Marquès                  M00000000          N
022023071079999000030004SSebastià                 Lliteres                 Lliteres                 M00000000          N
022023071079999000030004TViviana                  de Sans                  Trotta                   F00000000          N
022023071079999000030005SAngelina                 Pérez                    Sánchez                  F00000000          N
022023071079999000030005TJorge                    Roselló                  Bouso                    M00000000          N
022023071079999000030006SMaría                    Rivas                    Fernández                F00000000          N
022023071079999000030006TEmma                     Navarro                  Mus                      F00000000          N
022023071079999000030007SPere                     Sampol                   Mas                      M00000000          N
022023071079999000030007TMarina                   Sansaloni                Beristain                F00000000          N
022023071079999000030008TJosé                     Castro                   Aragón                   M00000000          N
022023071089999000001001TAlbert                   Balasch                  Roque                    M00000000          N
022023071089999000001002TPaula                    Sierra                   Font                     F00000000          N
022023071089999000001003TDaniel                   Carro                    Peralta                  M00000000          N
022023071089999000001004TMarta                    Pujol                    Alonso                   F00000000          N
022023071089999000001005TÁlex                     Caballé                  Sánchez                  M00000000          N
022023071089999000001006TIole Alexandra           Paloschi                 Valaperta                F00000000          N
022023071089999000001007TMarc                     Lozano                   Morales                  M00000000          N
022023071089999000001008TRaquel                   Simón                    Navas                    F00000000          N
022023071089999000001009TJosé Antonio             Gallo                    Santiago                 M00000000          N
022023071089999000001010TRoger                    Escuder                  Gonzalo                  M00000000          N
022023071089999000001011TLorena                   Álvarez                  Fernández                F00000000          N
022023071089999000001012TAntonio                  von Krosigk              Lluch                    M00000000          N
022023071089999000001013TPau                      Ayala                    Baños                    M00000000          N
022023071089999000001014TSonia                    Ros                      García                   F00000000          N
022023071089999000001015TÓscar                    Gallego                  Carmona                  M00000000          N
022023071089999000001016TGemma                    Rodríguez                Romero                   F00000000          N
022023071089999000001017TSergio                   Morata                   García                   M00000000          N
022023071089999000001018TJessica                  Torres                   García                   F00000000          N
022023071089999000001019TJoan                     Bartolí                  Nicolás                  M00000000          N
022023071089999000001020TIván                     Arroyo                   Laguna                   M00000000          N
022023071089999000001021TJanna                    Alòs                     Torrens                  F00000000          N
022023071089999000001022TIván                     Ballesteros              Olmo                     M00000000          N
022023071089999000001023TMiguel                   Poch                     Paz                      F00000000          N
022023071089999000001024TTara                     Mancebon                 Cañada                   M00000000          N
022023071089999000001025TSergio                   Mesa                     Blasco                   M00000000          N
022023071089999000001026TPablo                    Rodríguez                Carranco                 M00000000          N
022023071089999000001027TRubén                    del Olmo                 Calderón de la Barca     M00000000          N
022023071089999000001028TMaite                    Coll                     Niubó                    F00000000          N
022023071089999000001029TMarco                    Mollura                  Lucena                   M00000000          N
022023071089999000001030TÁngeles                  Cano                     García                   F00000000          N
022023071089999000001031TAaron                    Guirado                  Genado                   M00000000          N
022023071089999000001032TCristina                 Márquez                  Tapia                    F00000000          N
022023071089999000006001SAntonio                  López                    Plasencia                M00000000          N
022023071089999000006001TJuan José                Aizcorbe                 Torra                    M00000000          S
022023071089999000006002SJudith                   Cortés                   Cortés                   F00000000          N
022023071089999000006002TCarina                   Mejías                   Sánchez                  F00000000          S
022023071089999000006003SNora Eugenia             Villafranca              Carrillo                 F00000000          N
022023071089999000006003TJosé Antonio             Gilabert                 Delgado                  M00000000          N
022023071089999000006004TAlicia                   Tomás                    Martínez                 F00000000          N
022023071089999000006005TSusana                   Palomino                 López                    F00000000          N
022023071089999000006006TFrancisco Javier         González                 Priego                   M00000000          N
022023071089999000006007TNuria Alejandra          Acacio                   Montesinos               F00000000          N
022023071089999000006008TMónica                   Lora                     Cisquer                  F00000000          N
022023071089999000006009TMarcos                   Rodríguez                Font                     M00000000          N
022023071089999000006010TIván                     Cánovas                  Casanova                 M00000000          N
022023071089999000006011TJuan José                García                   Carré                    M00000000          N
022023071089999000006012TInmaculada               Cervilla                 Galera                   F00000000          N
022023071089999000006013TNerea                    Andrés                   Antón                    F00000000          N
022023071089999000006014TMarina                   Ferrer                   Sánchez                  F00000000          N
022023071089999000006015TRafael                   Millán                   Carracedo                M00000000          N
022023071089999000006016TMaría Cristina           Tarrés                   Martínez                 F00000000          N
022023071089999000006017TÓscar                    Conde                    Alonso                   M00000000          N
022023071089999000006018TGuadalupe                Santiago                 Coto                     F00000000          N
022023071089999000006019TMarc                     Cívico                   Morales                  M00000000          N
022023071089999000006020TDaniel                   Lafuente                 Arbós                    M00000000          N
022023071089999000006021TJordi                    Rangel                   Villatoro                M00000000          N
022023071089999000006022TArgyris                  Hortas                   Gozalbo                  M00000000          N
022023071089999000006023TAntonio                  Balboa                   Sánchez                  M00000000          N
022023071089999000006024TGina Ayde                Clavijo                  Pinzón                   F00000000          N
022023071089999000006025TRosa                     Tajadura                 Ochoa                    F00000000          N
022023071089999000006026TSantiago                 Hernández                Gurri                    M00000000          N
022023071089999000006027TFrancisco Javier         Corbacho                 Jiménez                  M00000000          N
022023071089999000006028TFrancisco Javier         Mira                     Hernández                M00000000          N
022023071089999000006029TJoana                    Robles                   Navarro                  F00000000          N
022023071089999000006030TEster                    López                    Sancho                   F00000000          N
022023071089999000006031TMireya                   Navarro                  Andreu                   F00000000          N
022023071089999000006032TIgnacio                  Garriga                  Vaz de Concicao          M00000000          N
022023071089999000009001SJORGE                    MORERA                   CUDOS                    M00000000          N
022023071089999000009001TNURIA                    SUAREZ                   HERNANDEZ                F00000000          N
022023071089999000009002SCORA MELANIE             KIRCK                    JURADO                   F00000000          N
022023071089999000009002TPASCUALA                 GOMEZ                    INIESTA                  F00000000          N
022023071089999000009003SMARIANO                  HERNANDEZ                GARCIA                   M00000000          N
022023071089999000009003TNADIA                    ZERYOUH                  EL ABDI                  F00000000          N
022023071089999000009004SMARIA DOLORES            CRUZ                     GOMEZ                    F00000000          N
022023071089999000009004TIVAN                     MESA                     DIAZ                     M00000000          N
022023071089999000009005TALEJANDRO                ROLDAN                   ORTEGA                   M00000000          N
022023071089999000009006TDOLORES                  SUAREZ                   NOGUERA                  F00000000          N
022023071089999000009007TMARA FRANCISCA           GARCIA                   GARCIA                   F00000000          N
022023071089999000009008TANDREU                   ROMANI                   GONZALEZ                 M00000000          N
022023071089999000009009TEDUARDO                  RODRIGUEZ                AYALA                    M00000000          N
022023071089999000009010TANTONIO                  BARBA                    MARTI                    M00000000          N
022023071089999000009011TMARIA ENCARNACION        VALLE                    FERNANDEZ                F00000000          N
022023071089999000009012TMARUJA ESTHER            ACERO                    SAENZ                    F00000000          N
022023071089999000009013TMAURO                    BEJARANO                 ORTIZ                    M00000000          N
022023071089999000009014TPEDRO                    MEDINA                   TORRES                   M00000000          N
022023071089999000009015TJOSE RAMON               GARCIA                   BREGANTE                 M00000000          N
022023071089999000009016TGHISLAINE                PICAUDEZ                 HUGONNET                 F00000000          N
022023071089999000009017TVICTORIA                 HOYO                     SEQUI                    F00000000          N
022023071089999000009018TFERNANDO ALBERTO         PASTOR                   GONZALEZ                 M00000000          N
022023071089999000009019TAITOR                    MARTIN                   FAURO                    M00000000          N
022023071089999000009020TIGNACIO                  SOLER                    CRESPO                   M00000000          N
022023071089999000009021TELISABETH                MATEO                    FLORES                   F00000000          N
022023071089999000009022TSARA                     SENDER                   ROMEO                    F00000000          N
022023071089999000009023TEDUARDO  OSCAR           TOBARUELA                SILVA                    M00000000          N
022023071089999000009024TJAVIER                   DELGADO                  MARTINEZ                 M00000000          N
022023071089999000009025TFERRAN                   CALVERA                  CABEZA                   M00000000          N
022023071089999000009026TLAURA                    SEXER                    PEREZ                    F00000000          N
022023071089999000009027TREMEDIOS                 MARTIN                   FLORIDO                  F00000000          N
022023071089999000009028TENRIQUE                  COFRE                    ZUÑIGA                   M00000000          N
022023071089999000009029TDANIEL                   MELLADO                  ZAMBRANO                 M00000000          N
022023071089999000009030TLUIS JUAN                DE LA TORRE              GUZMAN                   M00000000          N
022023071089999000009031TMARIA                    SUAREZ                   HERNANDEZ                M00000000          N
022023071089999000009032TYOLANDA                  TORRES                   GARRIDO                  F00000000          N
022023071089999000047001SÁLVARO                   SÁNCHEZ                  PÉREZ                    M00000000          N
022023071089999000047001TMERITXELL                BATET                    LAMAÑA                   F00000000          S
022023071089999000047002SSUSANA                   ALUJA                    FONT                     F00000000          N
022023071089999000047002TMIQUEL                   ICETA                    LLORENS                  M00000000          S
022023071089999000047003SÓSCAR                    LÓPEZ                    HIDALGO                  M00000000          N
022023071089999000047003TRAQUEL                   SÁNCHEZ                  JIMÉNEZ                  F00000000          S
022023071089999000047004SMARIA ESPERANZA          LÓPEZ                    NÚÑEZ                    F00000000          N
022023071089999000047004TJOSÉ                     ZARAGOZA                 ALONSO                   M00000000          S
022023071089999000047005SMARC                     CABAÑAS                  HIDALGO                  M00000000          N
022023071089999000047005TMERCÈ                    PEREA                    CONILLAS                 F00000000          S
022023071089999000047006SLAURA                    JARA                     LORENTE                  F00000000          N
022023071089999000047006TFRANCISCO                ARANDA                   VARGAS                   M00000000          S
022023071089999000047007SALEJANDRO                BABIANO                  MUÑOZ                    M00000000          N
022023071089999000047007TLIDIA                    GUINART                  MORENO                   F00000000          S
022023071089999000047008SMARÍA                    RIGAU                    NAVARRO                  F00000000          N
022023071089999000047008TARNAU                    RAMÍREZ                  CARNER                   M00000000          S
022023071089999000047009SJESÚS                    PRIETO                   SANTOS                   M00000000          N
022023071089999000047009TM.DEL CARMEN             ANDRÉS                   AÑÓN                     F00000000          S
022023071089999000047010SJUDITH                   ROBLES                   LAFUENTE                 F00000000          N
022023071089999000047010TFERRAN                   VERDEJO                  VICENTE                  M00000000          S
022023071089999000047011TSONIA                    GUERRA                   LÓPEZ                    F00000000          S
022023071089999000047012TJUAN CARLOS              JEREZ                    ANTEQUERA                M00000000          S
022023071089999000047013TTERESA                   LLORENS                  CARBONELL                F00000000          S
022023071089999000047014TIGNASI                   CONESA                   COMA                     M00000000          N
022023071089999000047015TALBA                     SOLDEVILLA               NOVIALS                  F00000000          N
022023071089999000047016TJOSEP                    PARÉ                     AREGALL                  M00000000          N
022023071089999000047017TANDREA                   CANELO                   MATITO                   F00000000          N
022023071089999000047018TORIOL                    ALMIRÓN                  RUIZ                     M00000000          N
022023071089999000047019TSONIA                    BELTRAN                  DEY                      F00000000          N
022023071089999000047020TANGEL                    AYALA                    GONZALEZ                 M00000000          N
022023071089999000047021TCRISTOBALINA (CRIS)      ALBENDIZ                 PÉREZ                    F00000000          N
022023071089999000047022TEDUARDO                  VALENCIA                 HERNÁN                   M00000000          N
022023071089999000047023TSARA                     MEDRANO                  DE MIGUEL                F00000000          N
022023071089999000047024TRAFAEL                   MOYA                     CAMARÓN                  M00000000          N
022023071089999000047025TCRISTINA                 PADROL                   ROVIRA                   F00000000          N
022023071089999000047026TJOSEP                    QUESADA                  TORNERO                  M00000000          N
022023071089999000047027TDOLORES                  RUIZ                     CARMONA                  F00000000          N
022023071089999000047028TRAÜL                     MARTÍNEZ                 RAMÍREZ                  M00000000          N
022023071089999000047029TSONIA                    MORALEDA                 CAMPAYO                  F00000000          N
022023071089999000047030TALBERT                   ARISÓ                    CRUZ                     M00000000          N
022023071089999000047031TMARTA                    GARCÍA                   MARÍN                    F00000000          N
022023071089999000047032TMATIAS                   CARNERO                  SOJO                     M00000000          N
022023071089999000048001SANA                      VEGA                     RAYA                     F00000000          N
022023071089999000048001TIGNACIO (NACHO)          MARTÍN                   BLANCO                   M00000000          S
022023071089999000048002SELISABET                 ORTEGA                   ROBLES                   F00000000          N
022023071089999000048002TSANTIAGO (SANTI)         RODRÍGUEZ                SERRA                    M00000000          S
022023071089999000048003SANTONI  (TONI)           MAJÓ                     VIVES                    M00000000          N
022023071089999000048003TCRISTINA                 AGÜERA                   GAGO                     F00000000          S
022023071089999000048004SMARÍA DE LAS MERCEDES    SANTIAGO                 DIE                      F00000000          N
022023071089999000048004TMARÍA DE LOS LLANOS      DE LUNA                  TOBARRA                  F00000000          S
022023071089999000048005SALEJANDRO                MUÑOZ                    MATEOS                   M00000000          N
022023071089999000048005TAGUSTÍN                  PARRA                    GALLEGO                  M00000000          S
022023071089999000048006SMARÍA LUISA              IBÁÑEZ                   BOIRA                    F00000000          N
022023071089999000048006TIRENE                    PARDO                    ROMERA                   F00000000          N
022023071089999000048007SMIGUEL ÁNGEL             ALVARADO                 MARTOS                   M00000000          N
022023071089999000048007TSONIA                    ESPLUGAS                 GONZÁLEZ                 F00000000          N
022023071089999000048008SDAVID                    ZAMBRANA                 LORENZO                  M00000000          N
022023071089999000048008THUGO                     MANCHÓN                  GARCÍA                   M00000000          N
022023071089999000048009SLYDIA MARÍA REMEDIOS     REMÓN                    AGUIRRE                  F00000000          N
022023071089999000048009TDAVID                    SOLÉ                     GIMENO                   M00000000          N
022023071089999000048010SCARLOS FRANCISCO         RUF                      OSOLA                    M00000000          N
022023071089999000048010TROSA                     DEL AMO                  HERNÁNDEZ                F00000000          N
022023071089999000048011TANTONIO                  VERDERA                  PUNTÍ                    M00000000          N
022023071089999000048012TPAU                      FERRAN                   NAVARRO                  M00000000          N
022023071089999000048013TSUSANA                   CALVO                    CASADESÚS                F00000000          N
022023071089999000048014TSILVIA                   CANGUEIRO                MÁRQUEZ                  F00000000          N
022023071089999000048015TCRISTIAN                 ESCRIBANO                RAMÍREZ                  M00000000          N
022023071089999000048016TNATALIA                  ORTEGA                   FERNÁNDEZ                F00000000          N
022023071089999000048017TJAVIER                   BARREÑA                  FLORES                   M00000000          N
022023071089999000048018TMARÍA MERCEDES           FONT                     MUNSÓ                    F00000000          N
022023071089999000048019TMARÍA CARMEN             TORRES                   CASSANY                  F00000000          N
022023071089999000048020TANTONIO                  GONZÁLEZ                 TORNER                   M00000000          N
022023071089999000048021TLORENA                   FERNÁNDEZ                ORTEGA                   F00000000          N
022023071089999000048022TMANUEL                   CASADO                   RUIZ                     M00000000          N
022023071089999000048023TMARÍA ELISA              DE MATA                  ARNALDO                  F00000000          N
022023071089999000048024TXAVIER                   CAÑIGUERAL               GONZÁLEZ                 M00000000          N
022023071089999000048025TMARTA                    URGELLÉS                 GIL DE SOLÁ              F00000000          N
022023071089999000048026TMANUEL                   CONDE                    GARCÍA                   M00000000          N
022023071089999000048027TMARÍA DEL MAR            GUIRAO                   PERAU                    F00000000          N
022023071089999000048028TMARÍA INMACULADA         CASILLA                  ROJAS                    F00000000          N
022023071089999000048029TJUAN JOSÉ                GINER                    ESPINOSA                 M00000000          N
022023071089999000048030TMIGUEL ÁNGEL             OCHOA                    OLIVA                    M00000000          N
022023071089999000048031TJULIA                    GONZÁLEZ                 GONZÁLEZ                 F00000000          N
022023071089999000048032TDANIEL                   SIRERA                   BELLÉS                   M00000000          N
022023071089999000050001SLídia                    Jorba                    i Muñoz                  F00000000          N
022023071089999000050001TGabriel                  Rufián                   i Romero                 M00000000          S
022023071089999000050002SAlbert                   Pla                      i Besolí                 M00000000          N
022023071089999000050002TTeresa                   Jordà                    i Roura                  F00000000          S
022023071089999000050003SMarta                    Rovira                   i Martínez               F00000000          N
022023071089999000050003TFrancesc-Marc            Álvaro                   i Vidal                  M00000000          S
022023071089999000050004SDaniel                   Barrera                  i Jiménez                M00000000          N
022023071089999000050004TPilar                    Vallugera                i Balañà                 F00000000          S
022023071089999000050005SCristina                 Bedmar                   i Batalla                F00000000          N
022023071089999000050005TJoan                     Capdevila                i Esteve                 M00000000          N
022023071089999000050006SLluís                    Benet                    i Bosch                  M00000000          N
022023071089999000050006TMaría                    Carvalho                 Dantas                   F00000000          N
022023071089999000050007SLaura                    Oliver                   Perdigones               F00000000          N
022023071089999000050007THéctor                   Sánchez                  Mira                     M00000000          N
022023071089999000050008SMiquel Ángel             Poal                     i Bori                   M00000000          N
022023071089999000050008TBiel                     Cursach                  Perona                   M00000000          N
022023071089999000050009SMónica                   Llorente                 i Velarde                F00000000          N
022023071089999000050009TMaría                    Pérez                    i Company                F00000000          N
022023071089999000050010SAdelina                  Escandell                i Grases                 F00000000          N
022023071089999000050010TOriol                    Batlló                   i Farriol                M00000000          N
022023071089999000050011TJudith                   Juanhuix                 Gibert                   F00000000          N
022023071089999000050012TDamià                    del Clot                 i Trias                  M00000000          N
022023071089999000050013TKènia                    Domènech                 i Àlvarez                F00000000          N
022023071089999000050014TAbul Kalam               Azad                     Ali                      M00000000          N
022023071089999000050015TCreu                     Camacho                  i Guerra                 F00000000          N
022023071089999000050016TJosep María              Ribas                    i Ferrer                 M00000000          N
022023071089999000050017TMontse                   Soler                    i Pons                   F00000000          N
022023071089999000050018TGerard                   Garrido                  Gutiérrez                M00000000          N
022023071089999000050019TIrina                    Moreno                   i Martí                  F00000000          N
022023071089999000050020TRegina                   Rigau                    i Fradera                F00000000          N
022023071089999000050021TRicard                   Farin                    i Sanz                   M00000000          N
022023071089999000050022TInmaculada (Inma)        Ranera                   Blasco                   F00000000          N
022023071089999000050023TTeresa                   Verdaguer                i Massó                  F00000000          N
022023071089999000050024TXavier                   Mombiela                 i Quintero               M00000000          N
022023071089999000050025TMontserrat               Vilardosa                i Tomàs                  F00000000          N
022023071089999000050026TMaría Teresa             Escobar                  i Gomera                 F00000000          N
022023071089999000050027TCarles                   Palanca                  i Muñoz                  M00000000          N
022023071089999000050028TMarta                    Rosique                  i Saltor                 F00000000          N
022023071089999000050029TAgustí                   Pérez                    i Carrasco               M00000000          N
022023071089999000050030TMireia                   Ingla                    Mas                      F00000000          N
022023071089999000050031TJesús                    Teran                    i Martínez               M00000000          N
022023071089999000050032TCarolina                 Telechea                 i Lozano                 F00000000          N
022023071089999000051001SNURIA                    PEREZ                    BLANCH                   F00000000          N
022023071089999000051001TAINA                     VIDAL                    SAEZ                     F00000000          S
022023071089999000051002SALEX                     CARRERAS                 ALTIMIRA                 M00000000          N
022023071089999000051002TGERARDO                  PISARELLO                PRADOS                   M00000000          S
022023071089999000051003SCRISTIAN                 MARTINEZ                 GUTIERREZ                M00000000          N
022023071089999000051003TGALA                     PIN                      FERRANDO                 F00000000          S
022023071089999000051004SANNIA                    GARCIA                   MORENO                   F00000000          N
022023071089999000051004TLILITH                   VERSTRYNGE               REVUELTA                 F00000000          S
022023071089999000051005SNEREA                    GARCIA                   GUERRERO                 F00000000          N
022023071089999000051005TELOI                     BADIA                    CASAS                    M00000000          S
022023071089999000051006SPAU                      ARONA                    SOLE                     M00000000          N
022023071089999000051006TCANDELA                  LOPEZ                    TAGLIAFICO               F00000000          N
022023071089999000051007SNATÀLIA                  RADÓ                     GRAUPERA                 F00000000          N
022023071089999000051007TVIVIANE                  OGOU                     CORBI                    F00000000          N
022023071089999000051008SMARINA                   RODRIGUEZ                PARPAL                   F00000000          N
022023071089999000051008TMARIA MAGDALENA          POZUELO                  CASTRO                   F00000000          N
022023071089999000051009SEDUARD                   PEREZ                    BALLESTERO               M00000000          N
022023071089999000051009TJOSE ANTONIO             MONTERO                  DOMINGUEZ                M00000000          N
022023071089999000051010SRAMON                    GUTIERREZ                ILLANA                   M00000000          N
022023071089999000051010TERNEST                   MARCO                    URREA                    M00000000          N
022023071089999000051011TLIDIA                    MUÑOZ                    CACERES                  F00000000          N
022023071089999000051012TDANIEL                   SOSA                     CABALLERO                M00000000          N
022023071089999000051013TISAAC                    HEREDIA                  DA SILVA                 M00000000          N
022023071089999000051014TIGNACIO JAVIER           ESCUDERO                 VAZQUEZ                  M00000000          N
022023071089999000051015TPATRICIA                 SEGURA                   RUIZ                     F00000000          N
022023071089999000051016TSERGIO                   MORALES                  DIAZ                     M00000000          N
022023071089999000051017TXENIA                    MORGADO                  FERNANDEZ                F00000000          N
022023071089999000051018TTAMAR                    ZAMORA                   HINOJOSA                 F00000000          N
022023071089999000051019TANDRES                   MEDRANO                  MUÑOZ                    M00000000          N
022023071089999000051020TJOAN                     COMORERA                 ESTARELLAS               M00000000          N
022023071089999000051021TMIGUEL                   PAJARES                  ALONSO                   M00000000          N
022023071089999000051022TCRISTÒFOL (TÒFOL)        TOBAL                    CONESA                   M00000000          N
022023071089999000051023TINMACULADA               MOYANO                   SANCHEZ                  F00000000          N
022023071089999000051024TBARBARA                  MORENO                   NIEBLA                   F00000000          N
022023071089999000051025TRAFAEL                   ROLDAN                   GAVETE                   M00000000          N
022023071089999000051026TMARIA GENOVEVA (VEVA)    CATALÀ                   BOSCH                    F00000000          N
022023071089999000051027TJOAN                     MENA                     ARCA                     M00000000          N
022023071089999000051028TJOSE CARLOS              VALLEJO                  CALDERON                 M00000000          N
022023071089999000051029TANDREA                   ROS                      GUERRERO                 F00000000          N
022023071089999000051030TJOAN                     SUBIRATS                 HUMET                    M00000000          N
022023071089999000051031TJAUME                    ASENS                    LLODRÀ                   M00000000          N
022023071089999000051032TADA                      COLAU                    BALLANO                  F00000000          N
022023071089999000053001SArnau                    Cucurull                 Vélez                    M00000000          N
022023071089999000053001TAlbert                   Botran                   Pahissa                  M00000000          N
022023071089999000053002SIsabel                   Chacón                   Chacón                   F00000000          N
022023071089999000053002TLaura                    Fernández                Vega                     F00000000          N
022023071089999000053003SÀngel                    Camacho                  Hervás                   M00000000          N
022023071089999000053003TIgnasi                   Bea                      Segui                    M00000000          N
022023071089999000053004SLaura                    Gállego                  Marfà                    F00000000          N
