021993061010400199ABLA                                                                                                001301300000001663000010000127200001272000000000000000000000565000008900000000100000001000010580000000000000000000N
021993061010400299ABRUCENA                                                                                            001301300000001432000010000112400001122000000000000000000000448000007620000000200000002000009660000000000000000000N
021993061010400399ADRA                                                                                                002902900000020104000180001414700014085000000000000000000004834000076590000003200000029000102120000000000000000000N
021993061010400499ALBANCHEZ                                                                                           005305300000000682000010000061500000615000000000000000000000283000003780000000200000000000005060000000000000000000N
021993061010400599ALBOLODUY                                                                                           001301300000000898000010000070100000701000000000000000000000328000005270000000300000000000006080000000000000000000N
021993061010400699ALBOX                                                                                               005305300000010010000090000670200006695000000000000000000002439000039930000002800000013000051800000000000000000000N
021993061010400799ALCOLEA                                                                                             001301300000000824000010000065000000650000000000000000000000330000004320000000100000000000005400000000000000000000N
021993061010400899ALCONTAR                                                                                            005305300000000629000020000054600000542000000000000000000000150000003180000000200000000000004480000000000000000000N
021993061010400999ALCUDIA DE MONTEAGUD                                                                                001301300000000212000010000017000000171000000000000000000000087000001000000000000000000000001410000000000000000000N
021993061010401099ALHABIA                                                                                             001301300000000774000010000057900000577000000000000000000000321000004470000000300000000000005050000000000000000000N
021993061010401199ALHAMA DE ALMERIA                                                                                   001301300000003050000030000226300002268000000000000000000000971000015890000000700000006000020290000000000000000000N
021993061010401299ALICUN                                                                                              001301300000000236000010000018900000189000000000000000000000108000001510000000000000001000001780000000000000000000N
021993061010401399ALMERIA                                                                                             001301300000155120001450011903700120107000000000000000000049660000701900000053500000356000893910000000000000000000N
021993061010401499ALMOCITA                                                                                            001301300000000182000010000017000000172000000000000000000000044000001100000000000000000000001390000000000000000000N
021993061010401599ALSODUX                                                                                             001301300000000125000010000010800000108000000000000000000000056000000830000000000000001000000940000000000000000000N
021993061010401699ANTAS                                                                                               010010000000002514000030000191900001955000000000000000000000533000010770000001500000017000015790000000000000000000N
021993061010401799ARBOLEAS                                                                                            005305300000001519000010000118900001191000000000000000000000462000007160000000200000003000009100000000000000000000N
021993061010401899ARMUÑA DE ALMANZORA                                                                                 005305300000000376000010000029900000299000000000000000000000164000002080000000100000001000002530000000000000000000N
021993061010401999BACARES                                                                                             005305300000000313000010000026000000260000000000000000000000115000001830000000000000001000002210000000000000000000N
021993061010402099BAYARCAL                                                                                            001301300000000389000010000030000000298000000000000000000000100000001880000000100000004000002260000000000000000000N
021993061010402199BAYARQUE                                                                                            005305300000000245000010000020700000207000000000000000000000084000001260000000000000000000001700000000000000000000N
021993061010402299BEDAR                                                                                               010010000000000503000010000036800000366000000000000000000000193000002520000000000000001000003030000000000000000000N
021993061010402399BEIRES                                                                                              001301300000000151000010000013300000133000000000000000000000048000000840000000000000000000001010000000000000000000N
021993061010402499BENAHADUX                                                                                           001301300000002277000020000164500001642000000000000000000000843000011770000000400000002000014260000000000000000000N
021993061010402699BENITAGLA                                                                                           001301300000000117000010000009600000104000000000000000000000035000000460000000000000001000000620000000000000000000N
021993061010402799BENIZALON                                                                                           001301300000000346000010000028100000280000000000000000000000055000001310000000000000000000001850000000000000000000N
021993061010402899BENTARIQUE                                                                                          001301300000000365000010000028700000287000000000000000000000182000002310000000000000000000002590000000000000000000N
021993061010402999BERJA                                                                                               002902900000012054000120000892600008935000000000000000000003449000054820000002600000018000070660000000000000000000N
021993061010403099CANJAYAR                                                                                            001301300000001826000030000146000001455000000000000000000000695000009080000000000000001000011820000000000000000000N
021993061010403199CANTORIA                                                                                            005305300000003309000030000261900002620000000000000000000001109000017000000000200000000000021320000000000000000000N
021993061010403299CARBONERAS                                                                                          010010000000005703000060000393600003937000000000000000000001384000023680000000500000006000031170000000000000000000N
021993061010403399CASTRO DE FILABRES                                                                                  001301300000000167000010000013200000132000000000000000000000057000000740000000000000001000001060000000000000000000N
021993061010403499COBDAR                                                                                              001301300000000283000010000022700000229000000000000000000000100000001630000000000000001000002000000000000000000000N
021993061010403599CUEVAS DEL ALMANZORA                                                                                010010000000009167000080000673800006742000000000000000000002871000042250000001600000023000054660000000000000000000N
021993061010403699CHERCOS                                                                                             005305300000000324000010000025400000255000000000000000000000113000001860000000000000000000002240000000000000000000N
021993061010403799CHIRIVEL                                                                                            005305300000001995000020000163900001639000000000000000000000615000010170000000800000008000012170000000000000000000N
021993061010403899DALIAS                                                                                              002902900000003511000050000273700002741000000000000000000001104000017390000000600000011000021950000000000000000000N
021993061010403999DARRICAL                                                                                            002902900000000417000010000029100000291000000000000000000000098000001460000000100000000000001890000000000000000000N
021993061010404199ENIX                                                                                                001301300000000241000010000018700000189000000000000000000000093000001300000000000000000000001560000000000000000000N
021993061010404399FELIX                                                                                               001301300000000616000010000049100000490000000000000000000000234000003380000000300000000000004130000000000000000000N
021993061010404499FINES                                                                                               005305300000001621000010000120500001202000000000000000000000535000008300000000200000006000010480000000000000000000N
021993061010404599FIÑANA                                                                                              001301300000002563000030000204500002043000000000000000000000845000013320000000400000005000016470000000000000000000N
021993061010404699FONDON                                                                                              001301300000000906000010000078700000787000000000000000000000341000005330000000000000004000006220000000000000000000N
021993061010404799GADOR                                                                                               001301300000002514000020000189200001895000000000000000000000982000014480000000400000003000016890000000000000000000N
021993061010404899GALLARDOS (LOS)                                                                                     010010000000001654000020000124700001244000000000000000000000590000008310000000100000001000010510000000000000000000N
021993061010404999GARRUCHA                                                                                            010010000000004382000040000319200003180000000000000000000001380000020310000000200000004000025890000000000000000000N
021993061010405099GERGAL                                                                                              001301300000001095000010000085800000858000000000000000000000428000005780000000000000002000006780000000000000000000N
021993061010405199HUECIJA                                                                                             001301300000000558000010000046000000460000000000000000000000207000003430000000100000004000004040000000000000000000N
021993061010405299HUERCAL DE ALMERIA                                                                                  001301300000003887000030000279200002782000000000000000000001222000017890000001000000011000022230000000000000000000N
021993061010405399HUERCAL-OVERA                                                                                       005305300000013090000150001004300010021000000000000000000004023000062110000002600000020000080060000000000000000000N
021993061010405499ILLAR                                                                                               001301300000000504000010000041000000410000000000000000000000232000003100000000400000000000003700000000000000000000N
021993061010405599INSTINCION                                                                                          001301300000000622000010000049800000498000000000000000000000262000003890000000200000000000004480000000000000000000N
021993061010405699LAROYA                                                                                              005305300000000115000010000010000000100000000000000000000000038000000570000000000000000000000830000000000000000000N
021993061010405799LAUJAR DE ANDARAX                                                                                   001301300000001841000020000139000001403000000000000000000000555000009140000000600000008000011490000000000000000000N
021993061010405899LIJAR                                                                                               005305300000000535000010000041000000410000000000000000000000180000002740000000000000000000003510000000000000000000N
021993061010405999LUBRIN                                                                                              010010000000002017000030000166800001668000000000000000000000678000010310000000600000002000011990000000000000000000N
021993061010406099LUCAINENA DE LAS TORRES                                                                             001301300000000591000010000046600000466000000000000000000000195000003080000000000000001000003760000000000000000000N
021993061010406199LUCAR                                                                                               005305300000000780000010000060100000601000000000000000000000228000003690000000100000003000004980000000000000000000N
021993061010406299MACAEL                                                                                              005305300000005976000050000418100004184000000000000000000001908000028130000000800000005000033260000000000000000000N
021993061010406399MARIA                                                                                               005305300000001791000030000138300001383000000000000000000000450000008750000000600000003000010260000000000000000000N
021993061010406499MOJACAR                                                                                             010010000000003539000020000185700001850000000000000000000000726000011220000000200000011000015040000000000000000000N
021993061010406599NACIMIENTO                                                                                          001301300000000490000010000045200000451000000000000000000000239000003200000000000000000000003670000000000000000000N
021993061010406699NIJAR                                                                                               001301300000012554000170000975000009773000000000000000000003189000052170000003000000029000064780000000000000000000N
021993061010406799OHANES                                                                                              001301300000000883000010000071800000718000000000000000000000383000005190000000000000001000006030000000000000000000N
021993061010406899OLULA DE CASTRO                                                                                     001301300000000233000010000021200000212000000000000000000000085000001510000000000000000000001840000000000000000000N
021993061010406999OLULA DEL RIO                                                                                       005305300000005734000050000422400004228000000000000000000001806000026630000001600000012000034010000000000000000000N
021993061010407099ORIA                                                                                                005305300000002454000040000200200001998000000000000000000000714000012190000000100000005000015660000000000000000000N
021993061010407199PADULES                                                                                             001301300000000528000010000045600000458000000000000000000000213000003180000000000000000000003910000000000000000000N
021993061010407299PARTALOA                                                                                            005305300000000410000010000034300000342000000000000000000000147000002370000000000000000000002930000000000000000000N
021993061010407399PATERNA DEL RIO                                                                                     001301300000000343000010000028800000288000000000000000000000097000001750000000000000000000002310000000000000000000N
021993061010407499PECHINA                                                                                             001301300000002173000020000160000001597000000000000000000000757000011140000000600000003000013340000000000000000000N
021993061010407599PULPI                                                                                               010010000000004578000050000343600003451000000000000000000001539000022240000000700000015000028300000000000000000000N
021993061010407699PURCHENA                                                                                            005305300000001715000020000134000001342000000000000000000000480000008080000000300000000000011120000000000000000000N
021993061010407799RAGOL                                                                                               001301300000000428000010000035100000351000000000000000000000213000002750000000000000004000003190000000000000000000N
021993061010407899RIOJA                                                                                               001301300000001114000010000084500000844000000000000000000000525000006800000000200000004000007610000000000000000000N
021993061010407999ROQUETAS DE MAR                                                                                     001301300000026842000230001929400019229000000000000000000007028000110420000006600000057000141320000000000000000000N
021993061010408099SANTA CRUZ                                                                                          001301300000000194000010000017400000175000000000000000000000096000001340000000300000000000001490000000000000000000N
021993061010408199SANTA FE DE MONDUJAR                                                                                001301300000000423000010000034600000346000000000000000000000142000002660000000000000002000003150000000000000000000N
021993061010408299SENES                                                                                               001301300000000360000010000031600000318000000000000000000000122000001780000000100000002000002180000000000000000000N
021993061010408399SERON                                                                                               005305300000003012000040000236300002364000000000000000000000896000013450000000400000010000017660000000000000000000N
021993061010408499SIERRO                                                                                              005305300000000559000010000040700000407000000000000000000000152000002450000000200000000000002920000000000000000000N
021993061010408599SOMONTIN                                                                                            005305300000000478000010000039600000397000000000000000000000197000002800000000000000000000003410000000000000000000N
021993061010408699SORBAS                                                                                              001301300000002716000050000212600002124000000000000000000000758000012770000000000000010000016290000000000000000000N
021993061010408799SUFLI                                                                                               005305300000000257000010000021000000210000000000000000000000079000001240000000000000000000001600000000000000000000N
021993061010408899TABERNAS                                                                                            001301300000003217000050000241300002413000000000000000000000938000015600000000500000013000019090000000000000000000N
021993061010408999TABERNO                                                                                             005305300000001056000010000083100000831000000000000000000000258000004570000000200000002000006000000000000000000000N
021993061010409099TAHAL                                                                                               001301300000000524000010000038500000385000000000000000000000141000002530000000000000002000003130000000000000000000N
021993061010409199TERQUE                                                                                              001301300000000457000010000035700000357000000000000000000000202000002870000000100000005000003220000000000000000000N
021993061010409299TIJOLA                                                                                              005305300000003642000050000271000002711000000000000000000001093000016780000000900000005000022520000000000000000000N
021993061010409399TURRE                                                                                               010010000000002109000020000156100001563000000000000000000000647000010230000000300000002000012630000000000000000000N
021993061010409499TURRILLAS                                                                                           001301300000000290000010000020900000209000000000000000000000078000001450000000100000001000001480000000000000000000N
021993061010409599ULEILA DEL CAMPO                                                                                    001301300000001012000010000078200000783000000000000000000000307000004730000000500000002000005800000000000000000000N
021993061010409699URRACAL                                                                                             005305300000000328000010000027900000280000000000000000000000091000001700000000100000002000002220000000000000000000N
021993061010409799VELEFIQUE                                                                                           001301300000000370000010000028800000288000000000000000000000093000001660000000000000000000002140000000000000000000N
021993061010409899VELEZ BLANCO                                                                                        005305300000002340000040000194000001940000000000000000000000693000012130000000300000008000015490000000000000000000N
021993061010409999VELEZ-RUBIO                                                                                         005305300000006312000090000514700005158000000000000000000002003000033040000001600000026000041710000000000000000000N
021993061010410099VERA                                                                                                010010000000005823000060000439500004453000000000000000000001545000023560000001100000007000033630000000000000000000N
021993061010410199VIATOR                                                                                              001301300000002802000030000204100002038000000000000000000001039000014600000000300000004000017060000000000000000000N
021993061010410299VICAR                                                                                               001301300000011885000100000814100008147000000000000000000002684000044320000001800000018000058980000000000000000000N
021993061010410399ZURGENA                                                                                             005305300000002102000020000165000001651000000000000000000000717000010750000000900000005000013300000000000000000000N
021993061010490199TRES VILLAS (LAS)                                                                                   001301300000000710000010000059000000592000000000000000000000240000003800000000000000001000004710000000000000000000N
021993061010490299EJIDO(EL)                                                                                           002902900000041374000370002965000029688000000000000000000009898000152340000009800000135000201140000000000000000000N
021993061010490399MOJONERA (LA)                                                                                       001301300000005458000050000376400003756000000000000000000001396000021470000000500000016000027420000000000000000000N
021993061011100199ALCALA DE LOS GAZULES                                                                               003103100000005598000060000446200004456000000000000000000001753000026210000001600000004000032510000000000000000000N
021993061011100299ALCALA DEL VALLE                                                                                    000600600000005316000040000385700003860000000000000000000001279000022420000000400000008000027780000000000000000000N
021993061011100399ALGAR                                                                                               000600600000001864000020000148700001491000000000000000000000554000008650000000400000004000010290000000000000000000N
021993061011100499ALGECIRAS                                                                                           000400400000101256001000007301500072880000000000000000000029205000416750000028800000249000500140000000000000000000N
021993061011100599ALGODONALES                                                                                         000600600000005752000080000434200004338000000000000000000001598000026710000001300000011000032700000000000000000000N
021993061011100699ARCOS DE LA FRONTERA                                                                                000600600000026946000270002010400020061000000000000000000008332000128390000003900000040000154940000000000000000000N
021993061011100799BARBATE DE FRANCO                                                                                   001501500000021641000190001610700016019000000000000000000005059000078640000003500000030000095990000000000000000000N
021993061011100899BARRIOS (LOS)                                                                                       000400400000013669000100000964300009620000000000000000000004372000062300000003500000046000074800000000000000000000N
021993061011100999BENAOCAZ                                                                                            000600600000000528000010000039700000397000000000000000000000173000002500000000100000000000003320000000000000000000N
021993061011101099BORNOS                                                                                              000600600000007867000080000565100005647000000000000000000002134000035090000001100000007000043750000000000000000000N
021993061011101199BOSQUE (EL)                                                                                         000600600000001777000020000128800001289000000000000000000000485000008190000000500000003000009920000000000000000000N
021993061011101299CADIZ                                                                                               001201200000154347001160011575300115889000000000000000000044920000665150000059600000720000822050000000000000000000N
021993061011101399CASTELLAR DE LA FRONTERA                                                                            003303300000002269000020000166700001661000000000000000000000731000012100000000200000008000014250000000000000000000N
021993061011101499CONIL DE LA FRONTERA                                                                                001501500000015582000170001138300011375000000000000000000004146000065150000004400000032000078400000000000000000000N
021993061011101599CHICLANA DE LA FRONTERA                                                                             001501500000046862000450003290400032806000000000000000000013246000189380000011900000088000227110000000000000000000N
021993061011101699CHIPIONA                                                                                            003203200000014297000140001027200010152000000000000000000003821000062500000002200000066000078260000000000000000000N
021993061011101799ESPERA                                                                                              000600600000004113000040000296500002971000000000000000000001331000019260000000700000005000022290000000000000000000N
021993061011101899GASTOR (EL)                                                                                         000600600000002148000030000159600001594000000000000000000000626000009980000000600000008000011710000000000000000000N
021993061011101999GRAZALEMA                                                                                           000600600000002240000040000170600001706000000000000000000000635000011100000000800000008000013590000000000000000000N
021993061011102099JEREZ DE LA FRONTERA                                                                                002002000000183316001760013730200136660000000000000000000057482000799590000045800000479000979560000000000000000000N
021993061011102199JIMENA DE LA FRONTERA                                                                               003303300000008862000090000660800006609000000000000000000003101000044700000002000000026000053420000000000000000000N
021993061011102299LA LINEA DE LA CONCEPCION                                                                           003303300000058315000600004356400043432000000000000000000017535000257130000023700000350000302530000000000000000000N
021993061011102399MEDINA-SIDONIA                                                                                      003103100000010336000110000769100007682000000000000000000003267000054340000001400000006000062350000000000000000000N
021993061011102499OLVERA                                                                                              000600600000009091000080000690800006920000000000000000000002739000040730000001600000008000052680000000000000000000N
021993061011102599PATERNA DE RIVERA                                                                                   003103100000004873000060000337700003374000000000000000000001678000024420000001200000006000027940000000000000000000N
021993061011102699PRADO DEL REY                                                                                       000600600000005539000040000412500004122000000000000000000001969000028960000001800000013000032890000000000000000000N
021993061011102799PUERTO DE SANTA MARIA(EL)                                                                           002702700000065517000630004693600046810000000000000000000015926000241450000019800000186000297400000000000000000000N
021993061011102899PUERTO REAL                                                                                         002702700000029638000240002127400021263000000000000000000006686000110000000009000000107000137200000000000000000000N
021993061011102999PUERTO SERRANO                                                                                      000600600000006479000070000443100004431000000000000000000002001000027370000000800000013000032260000000000000000000N
021993061011103099ROTA                                                                                                002702700000022691000230001629800016246000000000000000000006236000094100000006200000075000112800000000000000000000N
021993061011103199SAN FERNANDO                                                                                        003103100000085410000900006123900061110000000000000000000024288000333010000029400000266000401230000000000000000000N
021993061011103299SANLUCAR DE BARRAMEDA                                                                               003203200000056006000630003941300039115000000000000000000012762000201680000011100000228000258570000000000000000000N
021993061011103399SAN ROQUE                                                                                           003303300000021224000230001577200015768000000000000000000007197000099120000004500000060000118440000000000000000000N
021993061011103499SETENIL                                                                                             000600600000003194000030000240000002401000000000000000000000961000014770000000800000007000017810000000000000000000N
021993061011103599TARIFA                                                                                              000400400000014512000160001094900010944000000000000000000004118000065340000003100000038000081380000000000000000000N
021993061011103699TORRE-ALHAQUIME                                                                                     000600600000001023000010000078900000788000000000000000000000256000004380000000700000000000005440000000000000000000N
021993061011103799TREBUJENA                                                                                           003203200000006981000090000512500005124000000000000000000002393000035740000001400000016000043300000000000000000000N
021993061011103899UBRIQUE                                                                                             000600600000018051000180001338100013389000000000000000000006823000095810000007800000085000111910000000000000000000N
021993061011103999VEJER DE LA FRONTERA                                                                                001501500000012793000150000951000009501000000000000000000003080000049390000001900000029000063760000000000000000000N
021993061011104099VILLALUENGA DEL ROSARIO                                                                             000600600000000513000010000035000000350000000000000000000000095000001690000000200000002000002330000000000000000000N
021993061011104199VILLAMARTIN                                                                                         000600600000012385000120000890900008911000000000000000000003848000056550000003400000024000067600000000000000000000N
021993061011104299ZAHARA                                                                                              000600600000001610000020000122700001227000000000000000000000470000007520000000300000006000009190000000000000000000N
021993061011190199BENALUP                                                                                             003103100000005973000080000416000004154000000000000000000001783000027950000001300000009000034240000000000000000000N
021993061011400199ADAMUZ                                                                                              002102100000004528000050000332400003324000000000000000000001689000023590000000600000003000029890000000000000000000N
021993061011400299AGUILAR                                                                                             000200200000013114000130000987500009859000000000000000000005014000070770000002000000022000084380000000000000000000N
021993061011400399ALCARACEJOS                                                                                         005405400000001509000020000114900001146000000000000000000000631000008750000000200000013000010090000000000000000000N
021993061011400499ALMEDINILLA                                                                                         005505500000002591000020000212300002122000000000000000000000766000000000000000500000005000015840000000000000000000N
021993061011400599ALMODOVAR DEL RIO                                                                                   005305300000007076000070000504100005040000000000000000000002230000030670000001800000009000039580000000000000000000N
021993061011400699AÑORA                                                                                               005405400000001651000020000130900001308000000000000000000000766000010100000000400000003000011390000000000000000000N
021993061011400799BAENA                                                                                               000700700000020423000190001443100014400000000000000000000006014000087060000004700000053000108270000000000000000000N
021993061011400899BELALCAZAR                                                                                          005205200000004143000040000328900003284000000000000000000001594000021790000002000000010000025680000000000000000000N
021993061011400999BELMEZ                                                                                              005205200000004348000060000360100003597000000000000000000001591000022230000000500000013000026920000000000000000000N
021993061011401099BENAMEJI                                                                                            003803800000004540000050000348400003493000000000000000000001101000017670000000100000010000030060000000000000000000N
021993061011401199BLAZQUEZ                                                                                            005205200000000745000010000059900000599000000000000000000000284000004220000000100000001000005080000000000000000000N
021993061011401299BUJALANCE                                                                                           002102100000008487000100000636400006366000000000000000000003349000041850000002300000020000054910000000000000000000N
021993061011401399CABRA                                                                                               001301300000020306000210001549900015471000000000000000000006599000099530000004100000045000126670000000000000000000N
021993061011401499CAÑETE DE LAS TORRES                                                                                002102100000003457000020000269000002687000000000000000000001270000018660000000900000009000023330000000000000000000N
021993061011401599CARCABUEY                                                                                           005505500000002945000040000232100002321000000000000000000000954000014940000000400000005000019330000000000000000000N
021993061011401699CARDEÑA                                                                                             002102100000002147000030000168300001683000000000000000000000845000011680000000500000005000014120000000000000000000N
021993061011401799CARLOTA (LA)                                                                                        005305300000008982000120000704700007037000000000000000000002934000044460000001200000021000057860000000000000000000N
021993061011401899CARPIO (EL)                                                                                         002102100000004655000060000363800003640000000000000000000001818000024760000000700000006000031150000000000000000000N
021993061011401999CASTRO DEL RIO                                                                                      002102100000007963000090000617000006179000000000000000000003104000043940000002400000014000053550000000000000000000N
021993061011402099CONQUISTA                                                                                           005405400000000546000010000045200000449000000000000000000000214000002780000000100000001000003320000000000000000000N
021993061011402199CORDOBA                                                                                             002102100000302154003200022909900228570000000000000000000110293001451400000133900000731001777130000000000000000000N
021993061011402299DOÑA MENCIA                                                                                         001301300000005071000040000385000003850000000000000000000001638000024050000000200000007000030680000000000000000000N
021993061011402399DOS-TORRES                                                                                          005405400000002518000030000195000001948000000000000000000001008000014970000000600000007000017100000000000000000000N
021993061011402499ENCINAS REALES                                                                                      003803800000002291000020000186400001870000000000000000000000875000013210000000300000002000016130000000000000000000N
021993061011402599ESPEJO                                                                                              002102100000005074000050000336000003358000000000000000000001936000025580000001000000018000030340000000000000000000N
021993061011402699ESPIEL                                                                                              005205200000002625000030000193300001923000000000000000000000998000012580000000400000008000015710000000000000000000N
021993061011402799FERNAN NUÑEZ                                                                                        004204200000009320000100000711000007103000000000000000000003416000049270000001700000030000059450000000000000000000N
021993061011402899FUENTE LA LANCHA                                                                                    005205200000000490000010000038200000382000000000000000000000212000002920000000000000000000003490000000000000000000N
021993061011402999FUENTE OBEJUNA                                                                                      005205200000006322000100000496700004978000000000000000000002252000032560000000900000013000040840000000000000000000N
021993061011403099FUENTE PALMERA                                                                                      005305300000009371000110000674800006675000000000000000000002812000043260000000900000022000056940000000000000000000N
021993061011403199FUENTE-TOJAR                                                                                        005505500000000903000010000071200000712000000000000000000000320000004670000000400000001000005950000000000000000000N
021993061011403299GRANJUELA (LA)                                                                                      005205200000000534000010000042700000427000000000000000000000201000002980000000500000001000003430000000000000000000N
021993061011403399GUADALCAZAR                                                                                         005305300000001145000010000085700000856000000000000000000000345000005620000000000000001000007330000000000000000000N
021993061011403499GUIJO                                                                                               005405400000000447000010000038400000384000000000000000000000191000002710000000000000001000003240000000000000000000N
021993061011403599HINOJOSA DEL DUQUE                                                                                  005205200000008141000090000646900006462000000000000000000003069000044840000001000000016000054100000000000000000000N
021993061011403699HORNACHUELOS                                                                                        005305300000005086000050000369500003687000000000000000000001826000024670000001200000003000031130000000000000000000N
021993061011403799IZNAJAR                                                                                             003803800000005752000080000448700004482000000000000000000001705000026260000001000000023000034690000000000000000000N
021993061011403899LUCENA                                                                                              003803800000032173000320002370600023549000000000000000000010014000146550000006700000055000187620000000000000000000N
021993061011403999LUQUE                                                                                               000700700000003375000030000265900002653000000000000000000000925000015610000000600000008000022120000000000000000000N
021993061011404099MONTALBANDE CORDOBA                                                                                 004204200000004500000040000345000003450000000000000000000001584000025080000001100000002000030020000000000000000000N
021993061011404199MONTEMAYOR                                                                                          004204200000003701000040000284800002841000000000000000000001400000020470000001300000005000024730000000000000000000N
021993061011404299MONTILLA                                                                                            004204200000022403000230001742500017359000000000000000000008139000117710000007700000041000151680000000000000000000N
021993061011404399MONTORO                                                                                             002102100000009681000090000747300007466000000000000000000003456000047390000001200000011000060440000000000000000000N
021993061011404499MONTURQUE                                                                                           000200200000002005000020000144200001442000000000000000000000766000010520000000100000004000012450000000000000000000N
021993061011404599MORILES                                                                                             000200200000003660000030000286700002860000000000000000000001202000018710000000500000007000024590000000000000000000N
021993061011404699NUEVA-CARTEYA                                                                                       001301300000005735000060000417600004171000000000000000000002013000031090000000300000003000036900000000000000000000N
021993061011404799OBEJO                                                                                               002102100000001467000020000116500001164000000000000000000000518000007200000000900000001000009230000000000000000000N
021993061011404899PALENCIANA                                                                                          003803800000001683000020000129300001293000000000000000000000556000008690000000200000004000010120000000000000000000N
021993061011404999PALMA DEL RIO                                                                                       005305300000018350000150001377700013763000000000000000000006311000081230000004800000059000114450000000000000000000N
021993061011405099PEDRO ABAD                                                                                          002102100000003001000040000231500002315000000000000000000001298000016200000001200000005000020220000000000000000000N
021993061011405199PEDROCHE                                                                                            005405400000001899000020000151200001507000000000000000000000713000009690000000800000003000011930000000000000000000N
021993061011405299PEÑARROYA-PUEBLONUEVO                                                                               005205200000014035000150001071100010741000000000000000000004728000066670000001800000027000079640000000000000000000N
021993061011405399POSADAS                                                                                             005305300000007099000080000531400005310000000000000000000002438000034910000001500000011000043350000000000000000000N
021993061011405499POZOBLANCO                                                                                          005405400000015363000160001157300011576000000000000000000006305000083370000005400000014000100110000000000000000000N
021993061011405599PRIEGO DE CORDOBA                                                                                   005505500000021177000220001670400016673000000000000000000006812000099530000004100000032000135430000000000000000000N
021993061011405699PUENTE-GENIL                                                                                        000200200000026387000280002082200020821000000000000000000009573000117380000004900000046000168550000000000000000000N
021993061011405799RAMBLA (LA)                                                                                         004204200000006865000060000508800005085000000000000000000002703000039240000001900000005000046280000000000000000000N
021993061011405899RUTE                                                                                                003803800000010072000110000777100007765000000000000000000003183000050970000001800000029000064520000000000000000000N
021993061011405999S SBT.DE LOS BALLESTEROS                                                                            004204200000000827000010000065400000653000000000000000000000414000005030000000000000000000005870000000000000000000N
021993061011406099SANTAELLA                                                                                           004204200000005728000050000420500004205000000000000000000001839000027660000000300000005000036180000000000000000000N
021993061011406199SANTA EUFEMIA                                                                                       005405400000001259000010000104600001045000000000000000000000529000007230000000200000000000008730000000000000000000N
021993061011406299TORRECAMPO                                                                                          005405400000001571000020000126600001262000000000000000000000543000008220000000300000004000010080000000000000000000N
021993061011406399VALENZUELA                                                                                          000700700000001567000020000129700001297000000000000000000000634000008830000000500000015000011110000000000000000000N
021993061011406499VALSEQUILLO                                                                                         005205200000000556000010000044900000449000000000000000000000210000003150000000100000000000003550000000000000000000N
021993061011406599VICTORIA (LA)                                                                                       004204200000001721000020000134000001340000000000000000000000665000009150000000300000003000011900000000000000000000N
021993061011406699VILLA DEL RIO                                                                                       002102100000007021000070000512400005124000000000000000000002566000035740000001200000005000044310000000000000000000N
021993061011406799VILLAFRANCA DE CORDOBA                                                                              002102100000003594000030000274400002744000000000000000000001225000018390000000700000001000023750000000000000000000N
021993061011406899VILLAHARTA                                                                                          005205200000000656000010000052200000522000000000000000000000283000003460000000100000002000004180000000000000000000N
021993061011406999VILLANUEVA DE CORDOBA                                                                               005405400000010402000120000826000008263000000000000000000003922000053090000003100000021000067050000000000000000000N
021993061011407099VILLANUEVA DEL DUQUE                                                                                005405400000002063000020000166500001667000000000000000000000849000011210000000200000007000013450000000000000000000N
021993061011407199VILLANUEVA DEL REY                                                                                  005205200000001317000020000108500001080000000000000000000000581000007320000000200000000000008770000000000000000000N
021993061011407299VILLARALTO                                                                                          005405400000001761000020000146900001468000000000000000000000783000010790000000200000000000012300000000000000000000N
021993061011407399VILLAVICIOSA DE CORDOBA                                                                             002102100000003981000040000322800003231000000000000000000001558000021210000002400000011000027490000000000000000000N
021993061011407499VISO (EL)                                                                                           005405400000003439000050000270800002708000000000000000000001584000020090000000500000005000022360000000000000000000N
021993061011407599ZUHEROS                                                                                             001301300000000958000010000080200000802000000000000000000000350000004920000000100000011000006460000000000000000000N
021993061011800199AGRON                                                                                               012212200000000445000010000035600000356000000000000000000000141000002450000000100000000000002790000000000000000000N
021993061011800299ALAMEDILLA                                                                                          008908900000001045000010000078900000790000000000000000000000329000004960000000000000003000005900000000000000000000N
021993061011800399ALBOLOTE                                                                                            008708700000010184000100000728400007296000000000000000000003388000047050000003100000021000058170000000000000000000N
021993061011800499ALBONDON                                                                                            014714700000001358000020000108000001080000000000000000000000343000005650000000900000003000007610000000000000000000N
021993061011800599ALBUÑAN                                                                                             008908900000000491000010000040200000402000000000000000000000152000002410000000100000000000003010000000000000000000N
021993061011800699ALBUÑOL                                                                                             014714700000005336000060000393600003941000000000000000000001399000022820000000300000006000030580000000000000000000N
021993061011800799ALBUÑUELAS                                                                                          014714700000001367000020000109400001092000000000000000000000452000006870000000300000002000008390000000000000000000N
021993061011801099ALDEIRE                                                                                             008908900000000790000010000065600000656000000000000000000000212000003730000000000000001000005390000000000000000000N
021993061011801199ALFACAR                                                                                             008708700000003576000030000276400002756000000000000000000001218000018420000000600000015000021880000000000000000000N
021993061011801299ALGARINEJO                                                                                          012212200000005276000070000370200003702000000000000000000001141000018120000000500000006000023220000000000000000000N
021993061011801399ALHAMA DE GRANADA                                                                                   012212200000006023000050000462300004626000000000000000000002000000029570000001200000006000036830000000000000000000N
021993061011801499ALHENDIN                                                                                            008708700000003674000020000272100002713000000000000000000001016000016780000000200000001000022040000000000000000000N
021993061011801599ALICUN DE ORTEGA                                                                                    008908900000000795000010000055700000556000000000000000000000237000003170000000100000000000003820000000000000000000N
021993061011801699ALMEGIJAR                                                                                           014714700000000460000010000039400000394000000000000000000000139000002310000000200000002000002970000000000000000000N
021993061011801799ALMUÑECAR                                                                                           014014000000020408000130001439100014387000000000000000000005749000088590000002400000023000109430000000000000000000N
021993061011801899ALQUIFE                                                                                             008908900000001150000010000096400000964000000000000000000000369000005520000000400000004000007380000000000000000000N
021993061011802099ARENAS DEL REY                                                                                      012212200000002065000030000168900001694000000000000000000000574000009650000000300000006000012810000000000000000000N
021993061011802199ARMILLA                                                                                             008708700000010921000080000803500007991000000000000000000003455000047820000004500000041000057810000000000000000000N
021993061011802299ATARFE                                                                                              008708700000010008000070000720200007255000000000000000000003196000048060000002000000012000057160000000000000000000N
021993061011802399BAZA                                                                                                002302300000020519000140001529100015255000000000000000000004727000074960000003900000030000099200000000000000000000N
021993061011802499BEAS DE GRANADA                                                                                     008708700000000894000010000071000000710000000000000000000000312000004930000000800000004000005740000000000000000000N
021993061011802599BEAS DE GUADIX                                                                                      008908900000000416000010000032000000318000000000000000000000160000002120000000000000001000002340000000000000000000N
021993061011802799BENALUA DE GUADIX                                                                                   008908900000003441000020000253300002531000000000000000000000803000015700000000700000000000019580000000000000000000N
021993061011802899BENALUA DE LAS VILLAS                                                                               008708700000001392000010000116100001160000000000000000000000450000008150000000000000007000009900000000000000000000N
021993061011802999BENAMAUREL                                                                                          002302300000002496000020000203900002039000000000000000000000866000012160000000900000001000015060000000000000000000N
021993061011803099BERCHULES                                                                                           014714700000000881000020000068400000691000000000000000000000262000003940000000100000000000004750000000000000000000N
021993061011803299BUBION                                                                                              014714700000000345000010000025100000251000000000000000000000100000001420000000000000000000001840000000000000000000N
021993061011803399BUSQUISTAR                                                                                          014714700000000457000010000032300000323000000000000000000000073000001470000000000000000000002020000000000000000000N
021993061011803499CACIN                                                                                               012212200000000882000020000074200000742000000000000000000000358000005150000000400000000000005990000000000000000000N
021993061011803599CADIAR                                                                                              014714700000002057000030000160100001602000000000000000000000639000011070000003000000004000011980000000000000000000N
021993061011803699CAJAR                                                                                               008708700000002222000020000168000001689000000000000000000000831000011220000000400000003000013670000000000000000000N
021993061011803799CALICASAS                                                                                           008708700000000598000010000044400000445000000000000000000000224000003250000000000000000000003960000000000000000000N
021993061011803899CAMPOTEJAR                                                                                          008708700000001450000010000112500001125000000000000000000000527000008600000000700000003000009770000000000000000000N
021993061011803999CANILES                                                                                             002302300000005181000070000413800004155000000000000000000001249000021000000001400000006000029510000000000000000000N
021993061011804099CAÑAR                                                                                               014714700000000346000010000027800000277000000000000000000000085000001330000000200000000000001720000000000000000000N
021993061011804299CAPILEIRA                                                                                           014714700000000577000010000042300000423000000000000000000000136000002280000000000000000000003190000000000000000000N
021993061011804399CARATAUNAS                                                                                          014714700000000215000010000015400000157000000000000000000000067000000940000000000000000000001180000000000000000000N
021993061011804499CASTARAS                                                                                            014714700000000340000010000028800000284000000000000000000000057000001230000000000000000000001660000000000000000000N
021993061011804599CASTILLEJAR                                                                                         002302300000002248000030000183800001836000000000000000000000649000009920000000100000001000012240000000000000000000N
021993061011804699CASTRIL                                                                                             002302300000003247000060000250700002518000000000000000000000641000012330000000200000007000016470000000000000000000N
021993061011804799CENES DE LA VEGA                                                                                    008708700000002385000010000174400001743000000000000000000000455000010320000000600000001000013260000000000000000000N
021993061011804899CIJUELA                                                                                             008708700000001295000010000104700001047000000000000000000000530000007350000000300000004000008940000000000000000000N
021993061011804999COGOLLOS DE GUADIX                                                                                  008908900000000774000010000064700000646000000000000000000000303000004550000000000000001000005140000000000000000000N
021993061011805099COGOLLOS VEGA                                                                                       008708700000001939000020000150800001506000000000000000000000636000010100000000300000005000012660000000000000000000N
021993061011805199COLOMERA                                                                                            008708700000001865000020000145400001451000000000000000000000504000008720000000600000004000011650000000000000000000N
021993061011805399CORTES DE BAZA                                                                                      002302300000003039000050000241600002422000000000000000000000750000012870000000300000006000016670000000000000000000N
021993061011805499CORTES Y GRAENA                                                                                     008908900000001005000010000082700000819000000000000000000000246000005070000000200000004000006510000000000000000000N
021993061011805699CULLAR                                                                                              002302300000005457000070000432900004334000000000000000000001916000028850000001400000007000034750000000000000000000N
021993061011805799CULLAR VEGA                                                                                         008708700000001732000010000132900001327000000000000000000000500000009050000000700000002000011340000000000000000000N
021993061011805999CHAUCHINA                                                                                           008708700000003720000030000292000002930000000000000000000001298000020680000000800000003000024830000000000000000000N
021993061011806199CHIMENEAS                                                                                           012212200000001528000020000124400001245000000000000000000000568000008810000000400000001000010600000000000000000000N
021993061011806299CHURRIANA DE LA VEGA                                                                                008708700000005536000040000403500004029000000000000000000001675000026860000000800000012000032810000000000000000000N
021993061011806399DARRO                                                                                               008708700000001575000010000117400001172000000000000000000000440000007200000000000000002000008550000000000000000000N
021993061011806499DEHESAS DE GUADIX                                                                                   008908900000000663000010000048300000483000000000000000000000225000003100000000000000000000003600000000000000000000N
021993061011806699DEIFONTES                                                                                           008708700000002385000020000192500001926000000000000000000000787000011530000000000000000000014320000000000000000000N
021993061011806799DIEZMA                                                                                              008708700000001065000010000081200000812000000000000000000000318000005200000000000000002000006750000000000000000000N
021993061011806899DILAR                                                                                               008708700000001431000010000117300001168000000000000000000000438000007770000000600000000000009320000000000000000000N
021993061011806999DOLAR                                                                                               008908900000000731000010000060500000605000000000000000000000335000004130000000100000001000004810000000000000000000N
021993061011807099DUDAR                                                                                               008708700000000252000010000019000000190000000000000000000000056000001160000000000000001000001480000000000000000000N
021993061011807199DURCAL                                                                                              014714700000005804000040000444300004424000000000000000000001739000028830000001700000005000036190000000000000000000N
021993061011807299ESCUZAR                                                                                             008708700000000968000010000078100000781000000000000000000000355000004680000000300000000000005490000000000000000000N
021993061011807499FERREIRA                                                                                            008908900000000424000010000035400000354000000000000000000000111000002110000000000000001000002960000000000000000000N
021993061011807699FONELAS                                                                                             008908900000001405000010000099400000993000000000000000000000336000005480000000200000003000007080000000000000000000N
021993061011807899FREILA                                                                                              002302300000001282000010000097100000971000000000000000000000374000005500000000000000001000006730000000000000000000N
021993061011807999FUENTEVAQUEROS                                                                                      008708700000003826000030000292000002919000000000000000000001417000020400000001100000020000024200000000000000000000N
021993061011808299GALERA                                                                                              002302300000001660000020000135200001351000000000000000000000471000006640000000600000000000008980000000000000000000N
021993061011808399GOBERNADOR                                                                                          008908900000000413000010000034700000347000000000000000000000178000002630000000000000000000002940000000000000000000N
021993061011808499GOJAR                                                                                               008708700000002353000020000183300001829000000000000000000000822000011800000000300000001000014610000000000000000000N
021993061011808599GOR                                                                                                 008908900000001302000010000108200001079000000000000000000000304000005610000000000000003000007100000000000000000000N
021993061011808699GORAFE                                                                                              008908900000000626000010000047300000470000000000000000000000226000003230000000100000000000003920000000000000000000N
021993061011808799GRANADA                                                                                             008708700000255212001770019667200194845000000000000000000073658001201350000113500000470001495050000000000000000000N
021993061011808899GUADAHORTUNA                                                                                        008708700000002400000020000171400001721000000000000000000000658000010720000000100000005000014000000000000000000000N
021993061011808999GUADIX                                                                                              008908900000020033000150001412000014093000000000000000000004042000076990000002600000026000101100000000000000000000N
021993061011809399GUALCHOS                                                                                            014014000000002984000030000222000002218000000000000000000001023000015410000000500000001000018420000000000000000000N
021993061011809499GUEJAR SIERRA                                                                                       008708700000002610000030000214900002150000000000000000000000918000013370000001000000006000016710000000000000000000N
021993061011809599GUEVEJAR                                                                                            008708700000001255000010000094000000939000000000000000000000460000006900000000400000003000008310000000000000000000N
021993061011809699HUELAGO                                                                                             008908900000000675000010000055000000550000000000000000000000230000003350000000000000000000004170000000000000000000N
021993061011809799HUENEJA                                                                                             008908900000001410000020000113000001130000000000000000000000250000005920000000200000000000008440000000000000000000N
021993061011809899HUESCAR                                                                                             002302300000010031000100000871100008704000000000000000000002511000039480000001300000011000050450000000000000000000N
021993061011809999HUETOR SANTILLAN                                                                                    008708700000001527000010000120900001222000000000000000000000604000008400000000400000002000010100000000000000000000N
021993061011810099HUETOR TAJAR                                                                                        012212200000007502000060000597200005954000000000000000000002465000037600000000900000019000046980000000000000000000N
021993061011810199HUETOR VEGA                                                                                         008708700000006505000040000484700004827000000000000000000001863000027930000002600000028000036240000000000000000000N
021993061011810299ILLORA                                                                                              012212200000010389000090000794800007973000000000000000000003480000052100000002600000022000065020000000000000000000N
021993061011810399ITRABO                                                                                              014014000000001109000010000088500000885000000000000000000000430000006410000000000000001000007540000000000000000000N
021993061011810599IZNALLOZ                                                                                            008708700000006534000060000479200004795000000000000000000002157000031060000001000000008000039020000000000000000000N
021993061011810799JAYENA                                                                                              012212200000001498000010000114800001150000000000000000000000478000007000000000200000000000008550000000000000000000N
021993061011810899JEREZ DEL MARQUESADO                                                                                008908900000001217000010000098400000985000000000000000000000436000006700000000100000003000008220000000000000000000N
021993061011810999JETE                                                                                                014014000000000728000010000059300000592000000000000000000000275000003930000000000000000000005190000000000000000000N
021993061011811199JUN                                                                                                 008708700000001047000010000080100000819000000000000000000000425000005790000000100000001000006810000000000000000000N
021993061011811299JUVILES                                                                                             014714700000000213000010000015300000152000000000000000000000060000000830000000100000001000000970000000000000000000N
021993061011811499LA CALAHORRA                                                                                        008908900000000995000010000079900000798000000000000000000000241000004320000000100000002000005810000000000000000000N
021993061011811599LACHAR                                                                                              008708700000002258000020000179300001790000000000000000000000684000010850000000500000002000014240000000000000000000N
021993061011811699LANJARON                                                                                            014714700000003972000040000332300003318000000000000000000001426000020630000001000000005000025250000000000000000000N
021993061011811799LANTEIRA                                                                                            008908900000000715000010000060000000604000000000000000000000277000003920000000100000003000004820000000000000000000N
021993061011811999LECRIN                                                                                              014714700000002391000050000200100002007000000000000000000000846000013130000000500000000000016820000000000000000000N
021993061011812099LENTEGI                                                                                             014014000000000383000010000029000000290000000000000000000000098000001860000000000000000000002450000000000000000000N
021993061011812199LOBRAS                                                                                              014714700000000222000010000019000000190000000000000000000000056000001070000000000000002000001360000000000000000000N
021993061011812299LOJA                                                                                                012212200000020768000310001487500014844000000000000000000005750000088160000004600000067000115610000000000000000000N
021993061011812399LUGROS                                                                                              008908900000000486000010000040400000405000000000000000000000141000002380000000100000004000002680000000000000000000N
021993061011812499LUJAR                                                                                               014014000000000623000010000045500000455000000000000000000000220000002950000000100000002000003570000000000000000000N
021993061011812699MALAHA (LA)                                                                                         008708700000001619000010000122400001235000000000000000000000610000009320000000200000000000010380000000000000000000N
021993061011812799MARACENA                                                                                            008708700000012956000160000960000009608000000000000000000004960000064890000003100000026000078050000000000000000000N
021993061011812899MARCHAL                                                                                             008908900000000465000010000036900000369000000000000000000000141000002310000000000000001000002880000000000000000000N
021993061011813299MOCLIN                                                                                              008708700000004744000060000358300003588000000000000000000001716000025160000000700000008000030900000000000000000000N
021993061011813399MOLVIZAR                                                                                            014014000000002478000020000201500002015000000000000000000000951000014510000000300000007000017730000000000000000000N
021993061011813499MONACHIL                                                                                            008708700000004218000030000316700003126000000000000000000001109000018310000000600000001000023740000000000000000000N
021993061011813599MONTEFRIO                                                                                           012212200000008183000070000591800005913000000000000000000002078000033920000002100000160000040990000000000000000000N
021993061011813699MONTEJICAR                                                                                          008708700000003012000030000215700002157000000000000000000000935000014410000000200000001000017440000000000000000000N
021993061011813799MONTILLANA                                                                                          008708700000001361000010000112800001153000000000000000000000395000007060000000000000004000009350000000000000000000N
021993061011813899MORALEDA DE ZAFAYONA                                                                                012212200000002573000020000201500002017000000000000000000000855000012140000000800000002000015540000000000000000000N
021993061011814099MOTRIL                                                                                              014014000000046500000310003387300033900000000000000000000012187000198100000007400000118000250360000000000000000000N
021993061011814199MURTAS                                                                                              014714700000001164000010000091800000918000000000000000000000252000004360000000000000004000005640000000000000000000N
021993061011814399NIGUELAS                                                                                            014714700000001191000010000096400000978000000000000000000000339000006350000000100000002000008090000000000000000000N
021993061011814499NIVAR                                                                                               008708700000000563000010000044900000446000000000000000000000180000002920000000300000001000003540000000000000000000N
021993061011814599OGIJARES                                                                                            008708700000005097000020000375800003740000000000000000000000895000017800000001200000012000027530000000000000000000N
021993061011814699ORCE                                                                                                002302300000001536000020000127400001275000000000000000000000542000007930000000100000002000009720000000000000000000N
021993061011814799ORGIVA                                                                                              014714700000005100000040000372300003719000000000000000000001529000021360000000600000008000027220000000000000000000N
021993061011814899OTIVAR                                                                                              014014000000001161000010000089900000898000000000000000000000374000005180000000000000001000007220000000000000000000N
021993061011814999OTURA                                                                                               008708700000002615000020000206100002056000000000000000000000754000013020000000700000008000016750000000000000000000N
021993061011815099PADUL                                                                                               008708700000006133000040000466000004649000000000000000000002043000030920000000600000014000037560000000000000000000N
021993061011815199PAMPANEIRA                                                                                          014714700000000326000010000026100000257000000000000000000000115000001580000000000000000000002030000000000000000000N
021993061011815299PEDRO MARTINEZ                                                                                      008908900000001574000020000128800001284000000000000000000000634000008610000000500000000000010190000000000000000000N
021993061011815399PELIGROS                                                                                            008708700000006269000040000457600004587000000000000000000001944000031120000002100000013000037960000000000000000000N
021993061011815499PEZA (LA)                                                                                           008908900000001579000010000123000001232000000000000000000000459000007030000000000000007000008630000000000000000000N
021993061011815799PINOS GENIL                                                                                         008708700000001085000010000078900000786000000000000000000000415000005940000000200000000000006930000000000000000000N
021993061011815899PINOS PUENTE                                                                                        008708700000013132000100000978200009833000000000000000000003968000064110000002500000024000078150000000000000000000N
021993061011815999PIÑAR                                                                                               008708700000001505000020000112100001123000000000000000000000425000007770000000400000001000009590000000000000000000N
021993061011816199POLICAR                                                                                             008908900000000258000010000022700000227000000000000000000000092000001600000000000000000000001850000000000000000000N
021993061011816299POLOPOS                                                                                             014714700000001210000030000099300000995000000000000000000000406000005340000000200000005000007750000000000000000000N
021993061011816399PORTUGOS                                                                                            014714700000000457000010000039300000393000000000000000000000124000002430000000000000001000003180000000000000000000N
021993061011816499PUEBLA DE DON FADRIQUE                                                                              002302300000002597000030000208400002073000000000000000000000474000011890000000600000014000016290000000000000000000N
021993061011816599PULIANAS                                                                                            008708700000002549000020000185900001858000000000000000000000922000012820000000300000005000015370000000000000000000N
021993061011816799PURULLENA                                                                                           008908900000002514000030000177100001770000000000000000000000635000011100000000200000006000014130000000000000000000N
021993061011816899QUENTAR                                                                                             008708700000001060000010000081200000810000000000000000000000342000005280000000100000001000006700000000000000000000N
021993061011817099RUBITE                                                                                              014714700000000436000010000034800000349000000000000000000000105000001630000000200000000000002290000000000000000000N
021993061011817199SALAR                                                                                               012212200000002799000030000217800002178000000000000000000001042000014670000000500000007000018670000000000000000000N
021993061011817399SALOBREÑA                                                                                           014014000000009474000060000693800006938000000000000000000002422000040650000001600000020000052820000000000000000000N
021993061011817499SANTA CRUZ DEL COMERCIO                                                                             012212200000000596000010000046700000468000000000000000000000207000003000000000200000000000003730000000000000000000N
021993061011817599SANTA FE                                                                                            008708700000012000000090000911100009118000000000000000000003999000059420000002500000014000072560000000000000000000N
021993061011817699SOPORTUJAR                                                                                          014714700000000266000010000023000000233000000000000000000000099000001410000000000000000000001780000000000000000000N
021993061011817799SORVILAN                                                                                            014714700000000952000020000066400000664000000000000000000000215000003400000000100000003000004720000000000000000000N
021993061011817899TORRE CARDELA                                                                                       008708700000001220000010000099700000995000000000000000000000319000006940000000000000000000008300000000000000000000N
021993061011817999TORVIZCON                                                                                           014714700000001172000010000089500000896000000000000000000000287000004500000000300000006000006490000000000000000000N
021993061011818099TREVELEZ                                                                                            014714700000000823000010000064500000645000000000000000000000265000004000000000200000000000005060000000000000000000N
021993061011818199TURON                                                                                               014714700000000458000010000039500000395000000000000000000000140000001820000000000000002000002510000000000000000000N
021993061011818299UGIJAR                                                                                              014714700000003014000040000236000002362000000000000000000000895000014120000000400000003000017170000000000000000000N
021993061011818399VALOR                                                                                               014714700000001126000010000091000000910000000000000000000000263000005460000000100000001000006570000000000000000000N
021993061011818499VELEZ DE BENAUDALLA                                                                                 014014000000002478000020000200200002014000000000000000000000947000013960000000300000007000016310000000000000000000N
021993061011818599VENTAS DE HUELMA                                                                                    012212200000000680000010000056900000569000000000000000000000250000003920000000000000000000004830000000000000000000N
021993061011818799VILLANUEVA DE LAS TORRES                                                                            008908900000001073000010000077100000777000000000000000000000320000004730000000000000000000005850000000000000000000N
021993061011818899VILLANUEVA DE MESIA                                                                                 012212200000001911000010000145000001450000000000000000000000548000009460000000100000002000012060000000000000000000N
021993061011818999VIZNAR                                                                                              008708700000000781000010000057800000582000000000000000000000250000003930000000000000003000004970000000000000000000N
021993061011819299ZAFARRAYA                                                                                           012212200000002205000030000177000001774000000000000000000000613000011660000000300000006000014430000000000000000000N
021993061011819399ZUBIA (LA)                                                                                          008708700000008746000040000655600006582000000000000000000002186000039730000001300000003000050950000000000000000000N
021993061011819499ZUJAR                                                                                               002302300000002986000030000233600002336000000000000000000000890000014520000000400000003000018180000000000000000000N
021993061011890199TAHA (LA)                                                                                           014714700000000956000010000078700000787000000000000000000000223000003650000000100000000000004840000000000000000000N
021993061011890299VALLE (EL)                                                                                          014714700000001533000030000123500001240000000000000000000000589000008430000000100000005000009840000000000000000000N
021993061011890399NEVADA                                                                                              014714700000001515000030000120000001199000000000000000000000442000007320000000400000003000008900000000000000000000N
021993061011890499ALPUJARRA DE LA SIERRA                                                                              014714700000001320000020000109300001089000000000000000000000415000006000000000300000000000007790000000000000000000N
021993061011890599GABIAS (LAS)                                                                                        008708700000006062000040000459400004610000000000000000000001995000030020000002400000001000035930000000000000000000N
021993061011890699GUAJARES (LOS)                                                                                      014014000000001525000030000123700001238000000000000000000000538000007930000000200000002000010150000000000000000000N
021993061011890799VALLE DEL ZALABI                                                                                    008908900000002473000030000194800001940000000000000000000000716000012890000000400000000000016190000000000000000000N
021993061011890899VILLAMENA                                                                                           014714700000000972000020000081200000804000000000000000000000408000005610000000100000000000006860000000000000000000N
021993061011890999MORELABOR                                                                                           008708700000001053000010000080000000800000000000000000000000357000005320000000100000002000006500000000000000000000N
021993061011891099PINAR (EL)                                                                                          014714700000001296000020000102600001027000000000000000000000419000006160000000200000004000007850000000000000000000N
021993061011891199VEGAS DEL GENIL                                                                                     008708700000002607000040000210400002105000000000000000000000906000012960000000600000002000016840000000000000000000N
021993061011891299CUEVAS DEL CAMPO                                                                                    002302300000002303000030000185700001844000000000000000000000609000009420000000000000003000012660000000000000000000N
021993061011891399ZAGRA                                                                                               012212200000001212000020000103600001036000000000000000000000374000005650000000200000001000007770000000000000000000N
021993061012100199ALAJAR                                                                                              000700700000000836000010000068000000680000000000000000000000315000004290000000400000003000004750000000000000000000N
021993061012100299ALJARAQUE                                                                                           004104100000006753000050000495500004739000000000000000000001573000027520000001600000009000036440000000000000000000N
021993061012100399ALMENDRO (EL)                                                                                       001001000000000844000010000065000000650000000000000000000000343000004470000000300000000000005360000000000000000000N
021993061012100499ALMONASTER LA REAL                                                                                  000700700000002109000040000169600001685000000000000000000000616000009620000000100000007000012290000000000000000000N
021993061012100599ALMONTE                                                                                             005405400000016164000150001184000011780000000000000000000004311000066240000002900000032000086140000000000000000000N
021993061012100699ALOSNO                                                                                              007207200000004777000060000394900003954000000000000000000001733000025770000001000000005000030910000000000000000000N
021993061012100799ARACENA                                                                                             000700700000006503000060000499500004961000000000000000000002044000030410000001800000021000037110000000000000000000N
021993061012100899AROCHE                                                                                              000700700000003593000040000288600002887000000000000000000001157000016840000001000000009000020470000000000000000000N
021993061012100999ARROYOMOLINOS DE LEON                                                                               000700700000001242000020000099500000995000000000000000000000485000006730000000300000004000007790000000000000000000N
021993061012101099AYAMONTE                                                                                            001001000000015082000160001124900011199000000000000000000003418000056670000005400000018000074950000000000000000000N
021993061012101199BEAS                                                                                                004104100000004072000040000314800003149000000000000000000001444000022830000000600000007000026970000000000000000000N
021993061012101299BERROCAL                                                                                            007207200000000422000010000036300000363000000000000000000000207000002740000000000000000000003160000000000000000000N
021993061012101399BOLLULLOS DEL CONDADO                                                                               005405400000012575000110000981900009805000000000000000000004041000060160000002800000032000074350000000000000000000N
021993061012101499BONARES                                                                                             005005000000004949000030000374600003748000000000000000000001431000025890000000800000003000032820000000000000000000N
021993061012101599CABEZAS RUBIAS                                                                                      007207200000000969000010000074900000749000000000000000000000292000004140000000300000004000004810000000000000000000N
021993061012101699CALA                                                                                                000700700000001484000020000115800001158000000000000000000000562000008170000000000000000000009750000000000000000000N
021993061012101799CALAÑAS                                                                                             007207200000005093000050000402000004019000000000000000000001660000025380000001400000008000031380000000000000000000N
021993061012101899CAMPILLO (EL)                                                                                       007207200000002651000030000202000002021000000000000000000000820000012560000000100000019000015800000000000000000000N
021993061012101999CAMPOFRIO                                                                                           000700700000000908000010000070400000713000000000000000000000300000004580000000100000005000005690000000000000000000N
021993061012102099CAÑAVERAL DE LEON                                                                                   000700700000000586000010000046100000461000000000000000000000194000002560000000500000000000002990000000000000000000N
021993061012102199CARTAYA                                                                                             004104100000010357000090000788800007881000000000000000000002452000039110000001800000023000054200000000000000000000N
021993061012102299CASTAÑO DEL ROBLEDO                                                                                 000700700000000195000010000017400000174000000000000000000000062000001080000000000000000000001390000000000000000000N
021993061012102399CERRO DE ANDEVALO (EL)                                                                              007207200000002864000030000237500002375000000000000000000000870000014390000000700000004000017450000000000000000000N
021993061012102499CORTECONCEPCION                                                                                     000700700000000702000010000055700000557000000000000000000000304000003810000000500000002000004170000000000000000000N
021993061012102599CORTEGANA                                                                                           000700700000005243000070000403800004035000000000000000000001592000022960000001100000005000028650000000000000000000N
021993061012102699CORTELAZOR                                                                                          000700700000000314000010000029600000296000000000000000000000131000001900000000200000001000002170000000000000000000N
021993061012102799CUMBRES DE ENMEDIO                                                                                  000700700000000058000010000004800000048000000000000000000000023000000390000000000000000000000460000000000000000000N
021993061012102899CUMBRES DE SAN BARTOLOME                                                                            000700700000000668000010000056500000565000000000000000000000300000004150000000200000002000004650000000000000000000N
021993061012102999CUMBRES MAYORES                                                                                     000700700000002230000020000182800001829000000000000000000000743000011350000001000000011000014450000000000000000000N
021993061012103099CHUCENA                                                                                             005405400000001924000020000153500001535000000000000000000000621000011540000000700000007000013200000000000000000000N
021993061012103199ENCINASOLA                                                                                          000700700000002068000030000185300001853000000000000000000000769000011080000000300000003000013800000000000000000000N
021993061012103299ESCACENA DEL CAMPO                                                                                  005405400000002220000020000167500001673000000000000000000000682000010930000000300000006000013780000000000000000000N
021993061012103399FUENTEHERIDOS                                                                                       000700700000000650000010000049800000498000000000000000000000249000003420000000000000001000004000000000000000000000N
021993061012103499GALAROZA                                                                                            000700700000001603000020000130100001297000000000000000000000550000008040000000700000002000009520000000000000000000N
021993061012103599GIBRALEON                                                                                           004104100000010018000090000728900007318000000000000000000003148000048180000003200000019000060490000000000000000000N
021993061012103699GRANADA RIOTINTO (LA)                                                                               000700700000000229000010000019000000190000000000000000000000080000001320000000100000001000001500000000000000000000N
021993061012103799GRANADO (EL)                                                                                        001001000000000696000010000052200000522000000000000000000000220000003400000000000000001000004110000000000000000000N
021993061012103899HIGUERA DE LA SIERRA                                                                                000700700000001330000010000108600001086000000000000000000000470000006480000000600000015000007590000000000000000000N
