032023071019001000076001SJuan Miguel              Martín                   Ibáñez                   M00000000          N
032023071019001000076001TJulia María              Liberal                  Liberal                  F00000000          S
032023071019002000076002SMaría Luisa              Sánchez                  Perea                    F00000000          N
032023071019002000076002TAdolfo                   Lander                   Vera                     M00000000          S
032023071019003000076003SRoberto                  Atienza                  Mínguez                  M00000000          N
032023071019003000076003TPaula                    Somalo                   García                   F00000000          S
032023071019004000094001SMaialen                  Kortabarria              Zabala                   F00000000          N
032023071019004000094001TJosu                     Estarrona                Elizondo                 M00000000          S
032023071019005000094002SJavier                   Nuñez                    Zarate                   M00000000          N
032023071019005000094002TAitziber                 Salazar                  Arresti                  F00000000          N
032023071019006000075001SIzaskun                  Reyes                    Echazarreta              F00000000          N
032023071019006000075001TAlmudena                 Otaola                   Urquijo                  F00000000          N
032023071019007000094003SClaudia                  Venceslao                Pueyo                    F00000000          N
032023071019007000094003TPablo                    Vicente                  Saenz De Urturi          M00000000          N
032023071019008000005001SMiguel                   Garnica                  Azofra                   M00000000          N
032023071019008000005001TIñaki                    Oyarzabal                De Miguel                M00000000          N
032023071019009000005002SAlfredo                  Iturricha                Yániz                    M00000000          N
032023071019009000005002TIdoia                    Garmendia                Telleria                 F00000000          N
032023071019010000075002SIzaskun                  Pérez De Heredia         Arbigano                 F00000000          N
032023071019010000075002TRosa                     Peral                    Díez                     F00000000          N
032023071019011000005003SMontserrat               Canive                   Aldama                   F00000000          N
032023071019011000005003TJorge                    Ibarrondo                Bajo                     M00000000          N
032023071019012000075003SInma                     Laredo                   Fuertes                  F00000000          N
032023071019012000075003TJuan Carlos              Medina                   Martínez                 M00000000          N
032023071019013000010001SJosé Manuel              San Juan                 Martín                   M00000000          N
032023071019013000010001TLeticia                  Jiménez                  Loza                     F00000000          N
032023071019014000010002SJorge                    Lizarraga                Monje                    M00000000          N
032023071019014000010002TMiguel                   Burdallo                 Bautista                 M00000000          N
032023071019015000010003SImanol                   Martín                   Prieto                   M00000000          N
032023071019015000010003TEster                    Palacio                  García                   F00000000          N
032023071019016000006001SRosario                  Laporta                  Hidalgo                  F00000000          N
032023071019016000006001TIgnacio                  Cuadrado                 Rubio                    M00000000          N
032023071019017000006002SJosé María               Lázaro                   Gerardo                  M00000000          N
032023071019017000006002TMaría Jesús              Fernández                Rodríguez                F00000000          N
032023071019018000006003SMaría Amaia              Martínez                 Grisaleña                F00000000          N
032023071019018000006003TJuan Carlos              Ochoa                    Husillos                 M00000000          N
032023071019019000007001SAsier                    Bengoa                   Alonso                   M00000000          N
032023071019019000007001TSusana                   Robredo                  Oraá                     F00000000          N
032023071019020000014001SKirian                   Uralde                   Bejarano                 M00000000          N
032023071019020000014001TAna María                Gil                      Perdices                 F00000000          N
032023071019021000014002SEva María                Carrascal                Salgado                  F00000000          N
032023071019021000014002TMarkel                   Arambarri                Larrinaga                M00000000          N
032023071019022000014003SOscar                    Angulo                   Fernández                M00000000          N
032023071019022000014003TMaría Concepción         Alfajeme                 Dominguez                F00000000          N
032023071019023000009001SMaría Isabel             Mariño                   Fernández                F00000000          N
032023071019023000009001TJosu                     Errasti                  Foronda                  M00000000          N
032023071019024000098001SAntonia                  García                   Murillo                  F00000000          N
032023071019024000098001TLiher                    Calleja                  Montero                  M00000000          N
032023071019025000077001SMaría Begoña             De La Torre              Arribas                  F00000000          N
032023071019025000077001TRosa María               Gómez                    Saldaña                  F00000000          N
032023071029001000005001SJosefa                   Mansilla                 Ortuño                   F00000000          N
032023071029001000005001TSimón Valentín           Bueno                    Vargas                   M00000000          S
032023071029002000005002SJuan Ángel               Martínez                 González                 M00000000          N
032023071029002000005002TMiriam                   García                   Navarro                  F00000000          S
032023071029003000005003SMoisés                   López                    Martínez                 M00000000          N
032023071029003000005003TPilar Milagros           Rojo                     Noguera                  F00000000          S
032023071029004000002001SDiego                    Aroca                    Rodas                    M00000000          N
032023071029004000002001TAmparo                   Torres                   Valencoso                F00000000          S
032023071029005000002002SAlba                     Fito                     Domínguez                F00000000          N
032023071029005000002002TAlberto                  Iglesias                 Martínez                 M00000000          N
032023071029006000002003SMiguel                   Griñán                   García                   M00000000          N
032023071029006000002003TDonelia                  Roldán                   Martínez                 F00000000          N
032023071029007000006001SGuadalupe                Moreno                   Galisteo                 F00000000          N
032023071029007000006001TGinés Luis               Núñez                    Martínez                 M00000000          N
032023071029008000006002SJuan Pablo               Espín                    García                   M00000000          N
032023071029008000006002TMaría Ángeles            Gutiérrez                Montañana                F00000000          N
032023071029009000006003SMiriam Dolores           Medina                   Hidalgo De Torralba      F00000000          N
032023071029009000006003TJuan Antonio             Gil                      García                   M00000000          N
032023071029010000010001SRosa María               Rodríguez                Berlanga                 F00000000          N
032023071029010000010001TIago                     Vázquez                  Vázquez                  M00000000          N
032023071029011000010003SAlberto                  Sánchez                  Ortiz                    M00000000          N
032023071029011000010003TMaría Dolores            Serrano                  Egea                     F00000000          N
032023071029012000010002SMaría Pilar              Limón                    Fernández-Caballero      F00000000          N
032023071029012000010002TJesús Enrique            Plaza                    Senabre                  M00000000          N
032023071029013000007001SÁlvaro                   Ocaña                    Rodríguez                M00000000          N
032023071029013000007001TMaría Josefa             Vizcaíno                 Pina                     F00000000          N
032023071029014000003001SMaría Paulina            Rodríguez                Huertas                  F00000000          N
032023071029014000003001TJosé                     Serrano                  Paradinas                M00000000          N
032023071029015000009001SIsabel                   Marín                    Giménez                  F00000000          N
032023071029015000009001TFrancesc                 Cremades                 Gómez                    M00000000          N
032023071039001000005001SAlmudena                 Baldó                    Ballester                F00000000          N
032023071039001000005001TEva                      Ortiz                    Vilella                  F00000000          S
032023071039002000005002SSilvia                   Fernández                García                   F00000000          N
032023071039002000005002TAgustín                  Almodóbar                Barceló                  M00000000          S
032023071039003000005003SSebastián                Cañadas                  Gallardo                 M00000000          N
032023071039003000005003TMaría Dolores            Esteve                   Juan                     F00000000          S
032023071039004000002001SFrancisco                Carreres                 Llorente                 M00000000          N
032023071039004000002001TAna                      Martínez                 Zaragoza                 F00000000          S
032023071039005000002002SDolores                  Vílchez                  López                    F00000000          N
032023071039005000002002TAntonia                  Moreno                   Ruiz                     F00000000          N
032023071039006000002003SAntonio                  Prieto                   Cerdán                   M00000000          N
032023071039006000002003TÁngel                    Franco                   Gutiez                   M00000000          N
032023071039007000006001SAlexandra Estrella       Collado                  Pérez                    F00000000          N
032023071039007000006001TIrene                    Lisarte                  Villalba                 F00000000          N
032023071039008000006002SJaime                    Rozalén                  Romo                     M00000000          N
032023071039008000006002TDavid                    Moreno                   Narganes                 M00000000          N
032023071039009000082001SDarío                    Moreno                   Alzuyet                  M00000000          N
032023071039009000082001TManuel                   Alcaraz                  Ramos                    M00000000          N
032023071039010000006003SOscar                    Castillo                 Marín                    M00000000          N
032023071039010000006003TLesmy                    Menéndez                 González                 F00000000          N
032023071039011000082002SManuel                   De Juan                  Navarro                  M00000000          N
032023071039011000082002TLlum                     Quiñonero                Hernández                F00000000          N
032023071039012000082003SHéctor Manuel            Espinosa                 Ferrer                   M00000000          N
032023071039012000082003TPau Francesc             Torregrosa               i Coloma                 M00000000          N
032023071039013000007001SFidel Julio              Hurtado                  Galaviz                  M00000000          N
032023071039013000007001TObdulia                  Pérez                    Cerdán                   F00000000          N
032023071039014000007003SJosé Manuel              Prado                    Martínez                 M00000000          N
032023071039014000007003TTeresa                   Muñoz                    Armentia                 F00000000          N
032023071039015000007002SBeatriz                  Moreno                   Montero                  F00000000          N
032023071039015000007002TÁngel                    Olmedo                   Sáez                     M00000000          N
032023071039016000009001SJoan Carles              Caldentey                Matheu                   M00000000          N
032023071039016000009001TAdrián                   Martínez                 Ramos                    M00000000          N
032023071039017000013001SJosé María               Albert                   Linares                  M00000000          N
032023071039017000013001TMaría José               Molina                   Martínez                 F00000000          N
032023071039018000013002SLivia Ioana              Spatacian                Ionas                    F00000000          N
032023071039018000013002TJavier Antonio           Ramírez                  Fernández                M00000000          N
032023071039019000013003SWalter Raúl              Batto                    Pavanetti                M00000000          N
032023071039019000013003TElisa                    Pérez-Marsá              Mira                     F00000000          N
032023071049001000005001SJosé Antonio             García                   Alcaina                  M00000000          N
032023071049001000005001TMiguel Ángel             Castellón                Rubio                    M00000000          S
032023071049002000005002SJosé Francisco           Garrido                  Requena                  M00000000          N
032023071049002000005002TJuan José                Matarí                   Sáez                     M00000000          S
032023071049003000005003SJosé Carlos              Lupión                   Carreño                  M00000000          N
032023071049003000005003TCarmen Belén             López                    Zapata                   F00000000          S
032023071049004000002001SJosé Francisco           Tapia                    Rubio                    M00000000          N
032023071049004000002001TAntonio                  Martínez                 Rodríguez                M00000000          S
032023071049005000002002SAntonio                  Morales                  Herrera                  M00000000          N
032023071049005000002002TMaría Teresa             Piqueras                 Valarino                 F00000000          N
032023071049006000002003SCristina                 Zayas                    Amate                    F00000000          N
032023071049006000002003TJuan Francisco           Garrido                  Egea                     M00000000          N
032023071049007000006001SSoledad                  Pérez                    Rubio                    F00000000          N
032023071049007000006001TGermán                   Arqueros                 Rodríguez                M00000000          N
032023071049008000006002SSonia                    Domenech                 Maldonado                F00000000          N
032023071049008000006002TRodrigo                  Navarro                  Sánchez                  M00000000          N
032023071049009000006003SEduardo Adolfo           Torres                   Ramos                    M00000000          N
032023071049009000006003TEmma Montserrat          Descalzo                 Esteban                  F00000000          N
032023071049010000011001SLuis Francisco           Vilar                    Bretones                 M00000000          N
032023071049010000011001TCarolina                 García                   Tomás                    F00000000          N
032023071049011000011002SJésica                   Jiménez                  Gómez                    F00000000          N
032023071049011000011002TJosé Miguel              Ramos                    Garrido                  M00000000          N
032023071049012000011003SMaría del Mar            Palenzuela               Martínez                 F00000000          N
032023071049012000011003TRafael                   Esteban                  Martínez                 M00000000          N
032023071049013000007001SAgustín                  Durán                    Moreno                   M00000000          N
032023071049013000007001TMarina                   Gil                      Martínez                 F00000000          N
032023071049014000004001SGregorio                 Fernández                Felices                  M00000000          N
032023071049014000004001TInmaculada Gema          Burkhardt                Pérez                    F00000000          N
032023071049015000007002SÁngeles                  Tomé                     Montesinos               F00000000          N
032023071049015000007002TManuel                   Conejero                 Calvo-Flores             M00000000          N
032023071049016000007003SJoaquín                  Montes                   Robledo                  M00000000          N
032023071049016000007003TAna                      Nogales                  Valenzuela               F00000000          N
032023071049017000003001SCarlos                   Caballero                Alemany                  M00000000          N
032023071049017000003001TMaría Dolores            Linde                    Izquierdo                F00000000          N
032023071049018000009001SInmaculada               Romero                   Teva                     F00000000          N
032023071049018000009001TIsabel María             Teva                     García                   F00000000          N
032023071049019000008001SJonathan                 Arroyo                   París                    M00000000          N
032023071049019000008001TZeus Ismael              Rodríguez                Fernández                M00000000          N
032023071059001000005001SJesús                    del Campo                Espinosa                 M00000000          N
032023071059001000005001TJuan Pablo               Martín                   Martín                   M00000000          S
032023071059002000005002SMaría Asunción           Martín                   Manzano                  F00000000          N
032023071059002000005002TAlicia                   García                   Rodríguez                F00000000          S
032023071059003000005003SMaría del Pilar          Martínez                 Saguar                   F00000000          N
032023071059003000005003TPiedad                   Sánchez                  García                   F00000000          S
032023071059004000002001SIván                     Zazo                     De la Cruz               M00000000          N
032023071059004000002001TJesús                    Caro                     Adanero                  M00000000          S
032023071059005000002002SJavier                   Herrero                  Resina                   M00000000          N
032023071059005000002002TMaría Virginia           Parra                    Garrosa                  F00000000          N
032023071059006000002003SVirginia                 Suárez                   Blázquez                 F00000000          N
032023071059006000002003TCelestino                Romo                     Suárez                   M00000000          N
032023071059007000006001SFélix                    Sanz                     Cantalapiedra            M00000000          N
032023071059007000006001TNoelia                   Carretero                Carmona                  F00000000          N
032023071059008000035001SMaría Olatz              Díaz                     Navarro                  F00000000          N
032023071059008000035001TRuth                     Pindado                  González                 F00000000          N
032023071059009000006002SMarta                    Martín                   Custodio                 F00000000          N
032023071059009000006002TCarlos                   Salazar                  Moreta                   M00000000          N
032023071059010000006003SPedro Luis               García                   Aldea                    M00000000          N
032023071059010000006003TClara Isabel             Rubio                    Contreras                F00000000          N
032023071059011000035002SGema Marta               Martín                   Fernández                F00000000          N
032023071059011000035002TGregorio Arturo          Varas                    González                 M00000000          N
032023071059012000035003STania                    Dávila                   Cuenca                   F00000000          N
032023071059012000035003TMarcos Antonio           Ajates                   Álvarez                  M00000000          N
032023071059013000010001SÁrica                    Calderón                 Navarro                  F00000000          N
032023071059013000010001TRebeca                   Acevedo                  García                   F00000000          N
032023071059014000010002SMaría Teresa Gloria      López                    Alija                    F00000000          N
032023071059014000010002TAntonino                 González                 Canalejo                 M00000000          N
032023071059015000010003SMarcos                   Gómez Carpintero         de Pedro                 M00000000          N
032023071059015000010003TDolores                  Navarro                  Hernández                F00000000          N
032023071059016000007001SVicente                  de la Calle              Avezuela                 M00000000          N
032023071059016000007001TAnaís                    Martín                   García                   F00000000          N
032023071059017000019001SPilar                    Mazón                    Tovar                    F00000000          N
032023071059017000019001TJosé María               Jiménez                  Hernández                M00000000          N
032023071059018000015001SCarmen                   Vázquez                  Caballero                F00000000          N
032023071059018000015001TJavier                   Alonso                   García                   M00000000          N
032023071059019000003001SMaría del Carmen         Alonso                   Muñoz                    F00000000          N
032023071059019000003001TSergio                   Álvarez                  Gallego                  M00000000          N
032023071059020000009001SMaría Pilar              Arribas                  Navarro                  F00000000          N
032023071059020000009001TAntonio Miguel           González                 Tena                     M00000000          N
032023071069001000002001SMaría De Las Nieves      Peña                     Leco                     F00000000          N
032023071069001000002001TRafael Damián            Lemus                    Rubiales                 M00000000          S
032023071069002000002002SMario                    García                   Rodríguez                M00000000          N
032023071069002000002002TMaría Teresa             Macías                   Mateos                   F00000000          S
032023071069003000005001SJosé Antonio             Murillo                  Dávila                   M00000000          N
032023071069003000005001TJosé Antonio             Monago                   Terraza                  M00000000          S
032023071069004000005002SMagdalena                Carmona                  López                    F00000000          N
032023071069004000005002TCarmen                   Pagador                  López                    F00000000          S
032023071069005000002003SMaría José               Granado                  Jara                     F00000000          N
032023071069005000002003TManuel                   Borrego                  Rodríguez                M00000000          N
032023071069006000005003SAntonio                  García                   Sánchez                  M00000000          N
032023071069006000005003TMaría Natividad          Fuentes                  Del Puerto               F00000000          N
032023071069007000006001STeresa Jesús             Hernández                Reyes                    F00000000          N
032023071069007000006001TGonzalo                  Pozo                     Guisado                  M00000000          N
032023071069008000006002SArturo Andrés            Oliva                    Suárez                   M00000000          N
032023071069008000006002TMarta Gervasia           Garrido                  Moreno                   F00000000          N
032023071069009000006003SMaría Dolores            Amante                   Martínez                 F00000000          N
032023071069009000006003TJosé Félix               Quintana                 Barona                   M00000000          N
032023071069010000010001SVicente Manuel           Cortés                   Caballero                M00000000          N
032023071069010000010001TSalud Ángel              Ramos                    Vergeles                 F00000000          N
032023071069011000010003SJulio César              Pintos                   Cubo                     M00000000          N
032023071069011000010003TMaría Del Carmen         Ibarlucea                Paredes                  F00000000          N
032023071069012000010002SLaura Isabel             Nogales                  Guisado                  F00000000          N
032023071069012000010002TAdrián                   Rodríguez                Santos                   M00000000          N
032023071069013000062001SGema                     Barbo                    Cano                     F00000000          N
032023071069013000062001TDiego José               Albardonedo              Díez-Ochoa               M00000000          N
032023071069014000062002SFrancisco                Fuentes                  Gutiérrez                M00000000          N
032023071069014000062002TMaría Dolores            Díez-Madroñero           González                 F00000000          N
032023071069015000062003SCarmen                   Albújar                  Tarriño                  F00000000          N
032023071069015000062003TJosé María               Fernández                Chavero                  M00000000          N
032023071069016000007001SCarlos                   Mendoza                  Rodríguez                M00000000          N
032023071069016000007001TOlga                     Lama                     Rodríguez                F00000000          N
032023071069017000007002SLidia                    Valor                    Hidalgo                  F00000000          N
032023071069017000007002TFernando                 Jaramillo                Expósito                 M00000000          N
032023071069018000003001SSonia                    Fernández                Holguín                  F00000000          N
032023071069018000003001TMaría Guadalupe          Cascón                   Pérez                    F00000000          N
032023071069019000009001SPablo Luis               Pascual                  De Benito                M00000000          N
032023071069019000009001TAinhoa                   Pérez                    Noguera                  F00000000          N
032023071071001000005001SCarlos                   Martínez de Tejada       Pérez                    M00000000          N
032023071071001000005001TMaría                    Salom                    Coll                     F00000000          S
032023071071002000005002SJoan                     Rotger                   Seguí                    M00000000          N
032023071071002000005002TMartí Ángel              Torres                   Valls                    M00000000          S
032023071071003000029001SMarta                    López                    Expósito                 F00000000          N
032023071071003000029001TPere Joan                Pons                     Sampietro                M00000000          S
032023071071004000029002SRubén                    Castro                   Ortega                   M00000000          N
032023071071004000029002TTeresa                   Suárez                   Genovard                 F00000000          N
032023071071005000085001SJuan José                Martínez                 Riera                    M00000000          N
032023071071005000085001TLaura                    Pérez                    Reol                     F00000000          N
032023071071006000006001SAmaia                    Larrañaga                Badiola                  F00000000          N
032023071071006000006001TGabriel Antonio          Le Senne                 Presedo                  M00000000          N
032023071071007000085002SRuth                     Mateu                    Vinent                   F00000000          N
032023071071007000085002TAntoni Simó              Tomàs                    Canyelles                M00000000          N
032023071071008000006002SSantiago                 Costa                    Martín                   M00000000          N
032023071071008000006002TMaría                    Vidal                    Bennasar                 F00000000          N
032023071071009000007001SLuis                     Gómez                    Rubio                    M00000000          N
032023071071009000007001TNeus                     Broto                    Pachiardi                F00000000          N
032023071071010000007002SElena del Pilar          Sousa                    Silván                   F00000000          N
032023071071010000007002TFumio                    Maruta                   Maruta                   M00000000          N
032023071071011000015001SNora                     Amaro                    Quintana                 F00000000          N
032023071071011000015001TAdrià                    Ruiz                     Rosselló                 M00000000          N
032023071071012000009001SJaume                    Pujantell                Traserra                 M00000000          N
032023071071012000009001TElena                    Fernández                Mateo                    F00000000          N
032023071071013000009002SAngelina                 Moreno                   Luna                     F00000000          N
032023071071013000009002TGuillermo                García                   Salas                    M00000000          N
032023071072001000005001SAntonia Juana            Morro                    Sintes                   F00000000          N
032023071072001000005001TCristóbal                Marqués                  Palliser                 M00000000          S
032023071072002000029001SBárbara                  Torrent                  Bagur                    F00000000          N
032023071072002000029001TMiquel                   Mariano                  Pons                     M00000000          N
032023071072003000086001SPablo Jesús              Jiménez                  Fernández                M00000000          N
032023071072003000086001TIsa                      Allès                    Ferrer                   F00000000          N
032023071072004000006001SMaría Victoria           Sánchez                  Gordillo                 F00000000          N
032023071072004000006001TAlejandro                Llabrés                  García                   M00000000          N
032023071072005000009001SSivina Joan              Barber                   Minaya                   F00000000          N
032023071072005000009001TAntonio                  Triay                    Castro                   M00000000          N
032023071073001000087001SNeus                     Massanet                 Florit                   F00000000          N
032023071073001000087001TJuanjo                   Ferrer                   Martínez                 M00000000          S
032023071073002000005001SJosé Manuel              Alcaraz                  Escandell                M00000000          N
032023071073002000005001TMiguel Ángel             Jerez                    Juan                     M00000000          N
032023071073003000006001SJaime León               Díaz de Entresotos       Cortés                   M00000000          N
032023071073003000006001TEncarnación              Castro                   Rojas                    F00000000          N
032023071073004000009001SMaría del Pilar          Crespo                   Muñoz                    F00000000          N
032023071073004000009001TJavier                   Sánchez                  Aranda                   M00000000          N
032023071089001000047001SELIA                     TORTOLERO                OREJUELA                 F00000000          N
032023071089001000047001TMANUEL                   CRUZ                     RODRÍGUEZ                M00000000          S
032023071089002000047002SIGNASI                   SIMON                    ORTOLL                   M00000000          N
032023071089002000047002TELENA                    VILA                     GÓMEZ                    F00000000          S
032023071089003000047003SDANIEL                   CALVO                    ZURRIAGA                 M00000000          N
032023071089003000047003TGABRIEL                  COLOMÉ                   GARCÍA                   M00000000          S
032023071089004000092001SPatricia                 Freire                   Nuñez                    F00000000          N
032023071089004000092001TJoan                     Queralt                  i Jiménez                M00000000          S
032023071089005000092002SRobert                   Masih                    Nahar                    M00000000          N
032023071089005000092002TErnest                   Maragall                 i Mira                   M00000000          N
032023071089006000051001SCLAUDIO                  CARMONA                  VARGAS                   M00000000          N
032023071089006000051001TLAURA                    CAMPOS                   FERRER                   F00000000          N
032023071089007000092003SEloi                     Hernàndez                i Mosella                M00000000          N
032023071089007000092003TAna María                Surra                    Spadea                   F00000000          N
032023071089008000048001SJUANI                    NAVARRETE                JIMÉNEZ                  F00000000          N
032023071089008000048001TJOSÉ                     TUTUSAUS                 BESANTE                  M00000000          N
032023071089009000048002SJOSÉ ANTONIO             CALLEJA                  CLAVERO                  M00000000          N
032023071089009000048002TMÓNICA                   PARÉS                    CENTENO                  F00000000          N
032023071089010000048003SLORENA                   PARICIO                  BLÁZQUEZ                 F00000000          N
032023071089010000048003TÁLVARO                   BENEJAM                  PERETÓ                   M00000000          N
032023071089011000051002SGABRIEL                  SERRANO                  SANCHEZ                  M00000000          N
032023071089011000051002TCONCEPCION               ABELLAN                  CARRETERO                F00000000          N
032023071089012000057001SFRANCESC                 COLOMÉ                   i TENAS                  M00000000          N
032023071089012000057001TANTONI                   CASTELLÀ                 i CLAVÉ                  M00000000          N
032023071089013000051003SMONTSERRAT               ROMAGOSA                 MASSANA                  F00000000          N
032023071089013000051003TPERE                     CAMPS                    CAMPOS                   M00000000          N
032023071089014000057002SDAVID                    RAMEY                    i RAMÍREZ                M00000000          N
032023071089014000057002TROSA                     HUGUET                   i SUGRANYES              F00000000          N
032023071089015000057003SPEP                      LLOP                     i RIGOL                  M00000000          N
032023071089015000057003TANTONI                   MORRAL                   i BERENGUER              M00000000          N
032023071089016000006001SYolanda                  Ferrer                   Fernández                F00000000          N
032023071089016000006001TDaniel                   Carmona                  Navarro                  M00000000          N
032023071089017000006002SVíctor Orlando           Muñoz                    Ruiz                     M00000000          N
032023071089017000006002TMaría del Mar            Buscá                    Rey                      F00000000          N
032023071089018000006003SMercedes                 García                   Bouza                    F00000000          N
032023071089018000006003TDavid                    Cosculluela              Martínez-Galofré         M00000000          N
032023071089019000058001SMONTSERRAT               ARGENTE DEL CASTILLO     PASCUAL                  F00000000          N
032023071089019000058001TDIMITRI NAGIB            DEFRANC                  CEVALLOS                 M00000000          N
032023071089020000058002SAGUSTIN                  JURADO                   JIMENEZ                  M00000000          N
032023071089020000058002TLUISA                    CLAVER                   OÑATE                    F00000000          N
032023071089021000055001SJORDI                    MOLINARI                 DOMINGO                  M00000000          N
032023071089021000055001TLORENA                   IGLESIAS                 TEIXIDÓ                  F00000000          N
032023071089022000058003SJOSE ANTONIO             PORTA                    ARTIGAS                  M00000000          N
032023071089022000058003TALEJANDRO                CUESTA                   HIDALGO                  M00000000          N
032023071089023000054001SLara                     Revilla                  Gutiérrez                F00000000          N
032023071089023000054001TFerran                   Peris                    Serrano                  M00000000          N
032023071089024000009001SXAVIER                   PEREZ                    FARRE                    M00000000          N
032023071089024000009001TANTONINA                 RODRIGO                  GARCIA                   F00000000          N
032023071089025000009003SANTONIO JOSE             PACHECO                  PEDROSA                  M00000000          N
032023071089025000009003TPILAR                    RUIZ                     PALACIOS                 F00000000          N
032023071089026000009002SHUGO OSWALDO             AGUILAR                  CINALLI                  M00000000          N
032023071089026000009002TANTONIO                  DE LA PUERTA             ANDRES                   M00000000          N
032023071099001000005001SIratxe                   San Millán               Sainz                    F00000000          N
032023071099001000005001TFrancisco Javier         Lacalle                  Lacalle                  M00000000          S
032023071099002000005002SMaría Beatriz            Francés                  Pérez                    F00000000          N
032023071099002000005002TSalvador                 de Foronda               Vaquero                  M00000000          S
032023071099003000005003SJosé Ignacio             Colina                   Contreras                M00000000          N
032023071099003000005003TRaquel                   González                 Benito                   F00000000          S
032023071099004000002001SMiguel Ángel             Adrián                   Gutiérrez                M00000000          N
032023071099004000002001TAnder                    Gil                      García                   M00000000          S
032023071099005000002002SÁngel                    Rocha                    Plaza                    M00000000          N
032023071099005000002002TMaría  del Mar           Arnaiz                   García                   F00000000          N
032023071099006000002003SChaimae                  El Asri                  El Bouhssini             F00000000          N
032023071099006000002003TPedro Luis               Alonso                   Bascones                 M00000000          N
032023071099007000006001SAlejandra                Medina                   Sanz                     F00000000          N
032023071099007000006001TEduardo                  Peña                     Lope                     M00000000          N
032023071099008000006002SLuis                     Domingo                  García                   M00000000          N
032023071099008000006002TMaite                    Alonso                   Ortega                   F00000000          N
032023071099009000006003SMarta                    Alegría                  Martínez                 F00000000          N
032023071099009000006003TRaúl                     Ortega                   Reoyo                    M00000000          N
032023071099010000010001SMaría Vanesa             González                 Mingotes                 F00000000          N
032023071099010000010001TJorge                    García                   Velasco                  M00000000          N
032023071099011000010002SRodrigo                  Braceras                 Lopez                    M00000000          N
032023071099011000010002TMaría Angeles            Pizarro                  De La Fuente             F00000000          N
032023071099012000010003SMaría Isabel             Alameda                  Abejon                   F00000000          N
032023071099012000010003TGuillermo                Ubieto                   Lopez                    M00000000          N
032023071099013000036001SÁlvaro                   Eguiluz                  Urizarna                 M00000000          N
032023071099013000036001TGerardo                  Bilbao                   León                     M00000000          N
032023071099014000037001SSergio                   Varona                   Pérez                    M00000000          N
032023071099014000037001TNazaret                  Del Hierro               González                 F00000000          N
032023071099015000007001STamara                   López                    Sánchez                  F00000000          N
032023071099015000007001TFabio                    Pascual                  Díez                     M00000000          N
032023071099016000037002SAlazne                   Gorostiza                Cuesta                   F00000000          N
032023071099016000037002TTomás                    Camarero                 Arribas                  M00000000          N
032023071099017000037003SEsteban                  Herrero                  Calvo                    M00000000          N
032023071099017000037003TRosa Eva                 Alonso                   Gutiérrez                F00000000          N
032023071099018000003001SSilvia                   Hojas                    Martínez                 F00000000          N
032023071099018000003001TDavid                    Soler                    Soneira                  M00000000          N
032023071099019000015001SAdriana                  Martínez                 García                   F00000000          N
032023071099019000015001TCarlos                   Presa                    Irazabal                 M00000000          N
032023071099020000009001SPatricia                 Álvaro                   Verdejo                  F00000000          N
032023071099020000009001TRaúl                     Anadón                   Pedrola                  M00000000          N
032023071109001000005001SIsidro                   Arrojo                   Batuecas                 M00000000          N
032023071109001000005001TMónica                   Grados                   Caro                     F00000000          S
032023071109002000002001SFrancisco Manuel         García                   Blázquez                 M00000000          N
032023071109002000002001TMiguel Ángel             Nacarino                 Muriel                   M00000000          S
032023071109003000002002SAntonio                  Cano                     Cano                     M00000000          N
032023071109003000002002TMaría Isabel             Moreno                   Duque                    F00000000          S
032023071109004000005002SJuan José                Núñez                    Estévez                  M00000000          N
032023071109004000005002TMaría Dolores            Marcos                   Moyano                   F00000000          S
032023071109005000005003SJosé Luis                Clemente                 Muñoz                    M00000000          N
032023071109005000005003TÓscar                    Mateos                   Prieto                   M00000000          N
032023071109006000002003SNuria                    López                    Martín                   F00000000          N
032023071109006000002003TRaquel                   Medina                   Nuevo                    F00000000          N
032023071109007000006001SBlanca Luz               Retortillo               Carpintero               F00000000          N
032023071109007000006001TIgnacio Javier           Gilete                   Tejero                   M00000000          N
032023071109008000006002SJosé Miguel              Sillero                  Blanco                   M00000000          N
032023071109008000006002TIsabel Pilar             Vivas                    Arceredillo              F00000000          N
032023071109009000006003SMaría Ángeles            Gómez                    Piris                    F00000000          N
032023071109009000006003TSantiago                 Muñoz                    Martín                   M00000000          N
032023071109010000010001SJosé Luis                Sánchez                  Lobato                   M00000000          N
032023071109010000010001TJon                      Álvarez                  Lorenzo                  M00000000          N
032023071109011000010003SJuan                     Romero                   Morales                  M00000000          N
032023071109011000010003TMilagros                 Martínez                 Morán                    F00000000          N
032023071109012000010002SMaría Luisa              Rebolledo                Acedo                    F00000000          N
032023071109012000010002TDavid                    Araújo                   Gómez                    M00000000          N
032023071109013000062001SOlga                     Grande                   Martín                   F00000000          N
032023071109013000062001TJorge                    Andrade                  Hurtado                  M00000000          N
032023071109014000062002SWendy del Rosario        Rosazza                  Álvarez                  F00000000          N
032023071109014000062002TMaría Isabel de la MontañGuisado                  González                 F00000000          N
032023071109015000062003SMaría                    Borrero                  Solano                   F00000000          N
032023071109015000062003TLuis                     Martín                   Recuero                  M00000000          N
032023071109016000063001SMaría Victoria           García                   Jara                     F00000000          N
032023071109016000063001TJosé Julio               Tiemblo                  Pérez                    M00000000          N
032023071109017000007001SPedro Luis               Andrada                  Ramírez                  M00000000          N
032023071109017000007001TSara                     González                 Sánchez                  F00000000          N
032023071109018000063002SAntonio                  Cordobés                 Araújo                   M00000000          N
032023071109018000063002TAdelaida                 Augusto                  Vaquero                  F00000000          N
032023071109019000063003SDavid                    González                 López                    M00000000          N
032023071109019000063003TEmilia                   Parrón                   Campos                   F00000000          N
032023071109020000003001SJosep María              Sevilla                  Vivas                    M00000000          N
032023071109020000003001TFrancisco Manuel         Cobos                    Serrano                  M00000000          N
032023071109021000009001SVicente Gabriel          Villena                  Paterna                  M00000000          N
032023071109021000009001TJosé                     Calvo                    Bru                      M00000000          N
032023071119001000005001SIgnacio                  Trujillo                 Jaén                     M00000000          N
032023071119001000005001TJosé Ignacio             Landaluce                Calleja                  M00000000          S
032023071119002000005002SFrancisco José           Moreno                   García                   M00000000          N
032023071119002000005002TMaría José               García-Pelayo            Jurado                   F00000000          S
032023071119003000005003SDaniel Luis              Rodríguez                Ruiz                     M00000000          N
032023071119003000005003TMaría del Carmen         Pérez                    Becerra                  F00000000          S
032023071119004000002001SMaría del Mar            Suárez                   Manzanero                F00000000          N
032023071119004000002001TAlfonso Carlos           Moscoso                  González                 M00000000          S
032023071119005000002002SRamón                    Núñez                    Núñez                    M00000000          N
032023071119005000002002TCándida                  Verdier                  Mayoral                  F00000000          N
032023071119006000002003SPatricia                 García                   Arenas                   F00000000          N
032023071119006000002003TJosé Ramón               Ortega                   Domínguez                M00000000          N
032023071119007000006001SEstefanía                Durán                    López                    F00000000          N
032023071119007000006001TEnrique José             García-Máiquez           López                    M00000000          N
032023071119008000011001SMilagros                 Pérez                    Hoyos                    F00000000          N
032023071119008000011001TAlejandro                Sánchez                  Godés                    M00000000          N
032023071119009000006002SFrancisco Javier         Mateos                   González                 M00000000          N
032023071119009000006002TBárbara María Teresa     Escañuela                Álvarez Sotomayor        F00000000          N
032023071119010000011002SMiguel Ángel             Ortega                   Domínguez                M00000000          N
032023071119010000011002TIsabel María             Fernández                Orihuela                 F00000000          N
032023071119011000006003SMaría de los Milagros    Gómez                    Travieso                 F00000000          N
032023071119011000006003TFernando                 de la Cruz               Muñoz                    M00000000          N
032023071119012000011003SJuan                     González                 Mesa                     M00000000          N
032023071119012000011003TÁngeles Beatriz          Rodríguez                Borrego                  F00000000          N
032023071119013000012001SJosé                     Peral                    Jiménez                  M00000000          N
032023071119013000012001TFrancisco Javier         García                   Fernández                M00000000          N
032023071119014000012002SAntonio                  Lombardo                 Lijarcio                 M00000000          N
032023071119014000012002TVanessa María            Sánchez                  Martín                   F00000000          N
032023071119015000007001SAntonio Jesús            González                 García                   M00000000          N
032023071119015000007001TEncarnación              Vicente                  Pina                     F00000000          N
032023071119016000012003SJuan Pedro               Romero                   Barberán                 M00000000          N
032023071119016000012003TVictoria Eva             Zarco                    Jiménez                  F00000000          N
032023071119017000007003SJosé Manuel              Muriel                   Jiménez                  M00000000          N
032023071119017000007003TÁngela                   Arana                    González                 F00000000          N
032023071119018000007002SCristina                 Rodríguez de Medina      Chacón                   F00000000          N
032023071119018000007002TManuel María             Cabello                  Izquierdo                M00000000          N
032023071119019000003001SRafael Arcángel          Martínez                 Martínez                 M00000000          N
032023071119019000003001TAna Belén                Lobo                     González                 F00000000          N
032023071119020000013001SAndrés                   Ríos                     García                   M00000000          N
032023071119020000013001TVanesa María             Santos                   Guerrero                 F00000000          N
032023071119021000009001STamara                   Álvarez                  Muñoz                    F00000000          N
032023071119021000009001THassan                   Ben Sid Amar             Mohamed                  M00000000          N
032023071129001000005001SCarmen                   Ballester                Feliu                    F00000000          N
032023071129001000005001TVicente                  Martínez                 Mus                      M00000000          S
032023071129001000005004SVicente Ramón            Adsuara                  Descals                  M00000000          N
032023071129002000005002SLuis                     Gandía                   Querol                   M00000000          N
032023071129002000005002TSusana                   Marqués                  Escoín                   F00000000          S
032023071129002000005005SSusana                   Sanz                     Ferreres                 F00000000          N
032023071129003000002001SAdrian                   Sorribes                 Herraíz                  M00000000          N
032023071129003000002001TAmparo                   Marco                    Gual                     F00000000          S
032023071129003000002004SCarla María              Martínez                 Martínez                 F00000000          N
032023071129004000005003SJaume                    Llorens                  Monzonís                 M00000000          N
032023071129004000005003TVicente                  Tejedo                   Tormo                    M00000000          S
032023071129004000005006SJessica                  Miravete                 Bernat                   F00000000          N
032023071129005000002002SFrancesca                Bartolomé                Palasi                   F00000000          N
032023071129005000002002TEva                      Redondo                  Gamero                   F00000000          N
032023071129005000002005SRamon                    Martínez                 Peiro                    M00000000          N
032023071129006000002003SGerard                   Viciano                  Periz                    M00000000          N
032023071129006000002003TGonzalo                  Moliner                  Bellod                   M00000000          N
032023071129006000002006SMaría Carmen             Gil                      Sánchez                  F00000000          N
032023071129007000082001SRobert                   Castelló                 Abad                     M00000000          N
032023071129007000082001TElsa                     Vilalta                  Fonfría                  F00000000          N
032023071129007000082004SMiriam                   Pañella                  Belles                   F00000000          N
032023071129008000006001SCarolina                 Vilar                    Lopez                    F00000000          N
032023071129008000006001TPedro                    Sancho                   Calduch                  M00000000          N
032023071129008000006004SDavid                    Muñoz                    Pérez                    M00000000          N
032023071129009000006002SAntonio                  Fornés                   Roca                     M00000000          N
032023071129009000006002TLuisa                    Espinós                  Zafra                    F00000000          N
032023071129009000006005SArantxa                  Miralles                 Benages                  F00000000          N
032023071129010000006003SAntonio                  Ferrandiz                Vera                     M00000000          N
032023071129010000006003TMarta                    Caballero                Godes                    F00000000          N
032023071129010000006006SYolanda Carmen           Tena                     Solavera                 F00000000          N
032023071129011000082002SMario                    Llorente                 Ferreres                 M00000000          N
032023071129011000082002TRafael                   Segarra                  Silvestre                M00000000          N
032023071129011000082005SRosario                  Castelló                 Alfaro                   F00000000          N
032023071129012000082003SVíctor                   Zahinos                  Pérez                    M00000000          N
032023071129012000082003TAxel Noel                Monfort                  Cano                     M00000000          N
032023071129012000082006SInes María               Escoi                    Betoret                  F00000000          N
032023071129013000007001SAlfredo                  Jiménez                  Hernández                M00000000          N
032023071129013000007001TFrancisca                Hernández                Rodríguez                F00000000          N
032023071129013000007004SMaría Belén              Franch                   Egea                     F00000000          N
032023071129014000007002SMaría Del Mar            Alsina                   Aicart                   F00000000          N
032023071129014000007002TJorge                    Tur                      Juan                     M00000000          N
032023071129014000007005SJosé Antonio             Jiménez                  Dual                     M00000000          N
032023071129015000007003SGalileo                  Roig                     Giménez                  M00000000          N
032023071129015000007003TCristina                 Rozas                    Martínez                 F00000000          N
032023071129015000007006SAdoración                Sospedra                 Bou                      F00000000          N
032023071129016000009001SJorge Nahuel             Olivera                  Valero                   M00000000          N
032023071129016000009001TRicardo                  Cano                     Gaviria                  M00000000          N
032023071129016000009003STeresa                   Juan                     Tarazona                 F00000000          N
032023071129017000019001SVeronica                 Garrido                  Batalla                  F00000000          N
032023071129017000019001TJuan                     Amoros                   Mezquita                 M00000000          N
032023071129017000019002SAntonio Pascual          Belmar                   García                   M00000000          N
032023071129018000009002SJuan                     Torres                   Alfaro                   M00000000          N
032023071129018000009002TRosa María               Lentini                  Chao                     F00000000          N
032023071129018000009004SMiriam                   Navarrete                Marquez                  F00000000          N
032023071139001000005001SJoaquín                  Dotor                    Sánchez                  M00000000          N
032023071139001000005001TRosa María               Romero                   Sánchez                  F00000000          S
032023071139002000005002SIsabel María             Mora                     Gómez                    F00000000          N
032023071139002000005002TLeopoldo Jerónimo        Sierra                   Gallardo                 M00000000          S
032023071139003000005003SCarmen María             Montalbán                Martínez                 F00000000          N
032023071139003000005003TRaúl Dalmacio            Valero                   Mejía                    M00000000          S
032023071139004000002001SMaría Jesús              Villaverde               Malagón                  F00000000          N
032023071139004000002001TJulián                   Nieva                    Delgado                  M00000000          S
032023071139005000002002SJosé Javier              Márquez                  Vivar                    M00000000          N
032023071139005000002002TMaría Del Señor          Fresneda                 Guerra                   F00000000          N
032023071139006000002003SMaría                    Montes                   Sánchez                  F00000000          N
032023071139006000002003TJosé                     Fernández                Teno                     M00000000          N
032023071139007000006001SMaría De Los Milagros    Calahorra                Vera                     F00000000          N
032023071139007000006001TJesús Felipe             Sánchez-Crespo           Ruiz Del Moral           M00000000          N
032023071139008000006002SDavid                    Silvestre                Piñeiro                  M00000000          N
032023071139008000006002TMaría del Carmen         Ruiz                     Bolaños                  F00000000          N
032023071139009000006003SDolores                  González                 López                    F00000000          N
032023071139009000006003TCarlos                   Fernández                Ayala                    M00000000          N
032023071139010000010001SFrancisco                García-Navas             Romero                   M00000000          N
032023071139010000010001TJuan                     Garrido                  Morales                  M00000000          N
032023071139011000010002SDiego                    Ruiz                     Figueroa                 M00000000          N
032023071139011000010002TMinerva                  Del Hoyo                 Ramírez                  F00000000          N
032023071139012000010003SÁngel                    Aguas                    Nuevo                    M00000000          N
032023071139012000010003TAntonio                  Moreno                   Valiente                 M00000000          N
032023071139013000007001SJesús Antonio            Campo                    Román                    M00000000          N
032023071139013000007001TMaría Antonieta          Martín de Almagro        López-Menchero           F00000000          N
032023071139014000007002SCristina                 Martín de Almagro        López-Menchero           F00000000          N
032023071139014000007002TCarlos                   Rodríguez                Hervás                   M00000000          N
032023071139015000003001SCarmen Cecilia           Monsalve                 Clemente                 F00000000          N
032023071139015000003001TIñigo                    Carrión                  Echevarría               M00000000          N
032023071139016000009001SRicardo                  Rodríguez                Barba                    M00000000          N
032023071139016000009001TAlejandro                Cerro                    De Lara                  M00000000          N
032023071149001000005001SMaría Auxiliadora        Moreno                   Rueda                    F00000000          N
032023071149001000005001TFernando                 Priego                   Chacón                   M00000000          S
032023071149002000005002SCarlos                   Urbano                   de Luna                  M00000000          N
032023071149002000005002TCristina                 Casanueva                Jiménez                  F00000000          S
032023071149003000005003SMaría del Pilar          Bartolomé                Hernández                F00000000          N
032023071149003000005003TLorena                   Guerra                   Sánchez                  F00000000          S
032023071149004000002001SJosé                     González                 Arenas                   M00000000          N
032023071149004000002001TMaría de los Ángeles     Luna                     Morales                  F00000000          S
032023071149005000002002SFrancisca Araceli        Carmona                  Alcántara                F00000000          N
032023071149005000002002TAlfonso                  Muñoz                    Cuenca                   M00000000          N
032023071149006000002003SJuan Manuel              Poyato                   Cuenca                   M00000000          N
032023071149006000002003TCarmen                   Lara                     Estepa                   F00000000          N
032023071149007000011001SCarmen María             Ruiz                     Sierra                   F00000000          N
032023071149007000011001TSergio Domingo           Álvarez                  del Moral                M00000000          N
032023071149008000011003SRosa María               Rodríguez                Ruz                      F00000000          N
032023071149008000011003TDolores                  Ventura                  Sánchez                  F00000000          N
032023071149009000006001SBernhard                 Dietz                    Guerrero                 M00000000          N
032023071149009000006001TRocío                    Puebla                   Mendoza                  F00000000          N
032023071149010000011002SFrancisco Manuel         López                    Morales                  M00000000          N
032023071149010000011002TEduardo                  Muñoz                    Cañuelo                  M00000000          N
032023071149011000006002SMaría Elena              Alcalá                   Rueda                    F00000000          N
032023071149011000006002TMiguel Ángel             Castellano               Cañete                   M00000000          N
032023071149012000006003SJuan Luis                Rodríguez                García                   M00000000          N
032023071149012000006003TMaría de los Dolores     Fernández                Córdoba                  F00000000          N
032023071149013000007001SCecilio                  Galdón                   Martínez                 M00000000          N
032023071149013000007001TSara                     Romero                   Valenzuela               F00000000          N
032023071149014000007002SEsther                   Caballero                García                   F00000000          N
032023071149014000007002TManuel                   Urbano                   Navas                    M00000000          N
032023071149015000007003SFrancisco José           Moya                     Barrena                  M00000000          N
032023071149015000007003TMaría Pilar              Bares                    Ruiz                     F00000000          N
032023071149016000014001SPilar                    Márquez                  Quesada                  F00000000          N
032023071149016000014001TFrancisco                Infante                  Lisarte                  M00000000          N
032023071149017000014002SJuan José                Frías                    Rubio                    M00000000          N
032023071149017000014002TMaría Lourdes            Bellido                  Garrido                  F00000000          N
032023071149018000003001SMiguel                   Delgado                  Ayuso                    M00000000          N
032023071149018000003001TRafael                   Ruiz                     Nosea                    M00000000          N
032023071149019000015001SAdriana                  Bezos                    Gómez                    F00000000          N
032023071149019000015001TGuillermo                González                 Sánchez                  M00000000          N
032023071149020000014003SJuana                    Hidalgo                  Utanda                   F00000000          N
032023071149020000014003TCarlos                   Bermudo                  Munzón                   M00000000          N
032023071149021000009001SMercedes                 Jiménez                  Ortiz                    F00000000          N
032023071149021000009001TAntonio                  Muro                     Romero                   M00000000          N
032023071159001000005001SMiguel                   Lorenzo                  Torres                   M00000000          N
032023071159001000005001TRosa María               Gallego                  Neira                    F00000000          S
032023071159002000005002SMaría Josefa             Pose                     Rodríguez                F00000000          N
032023071159002000005002TVerónica María           Casal                    Míguez                   F00000000          S
032023071159003000005003SJosé Antonio             Constenla                Ramos                    M00000000          N
032023071159003000005003TManuel Santos            Ruiz                     Rivas                    M00000000          S
032023071159004000064001SManuel                   Mirás                    Franqueira               M00000000          N
032023071159004000064001TJosé Antonio             Sánchez                  Bugallo                  M00000000          S
032023071159005000064002SInés                     Ramos                    López                    F00000000          N
032023071159005000064002TNatividad                González                 Laso                     F00000000          N
032023071159006000064003SMaría Jesús              Regueiro                 Sánchez                  F00000000          N
032023071159006000064003TFabián                   Canosa                   Pasantes                 M00000000          N
032023071159007000065001SAlexandre                Garrido                  López                    M00000000          N
032023071159007000065001TXesús                    Gómez                    Antelo                   M00000000          N
032023071159008000066001SLois Uxío                Taboada                  Arribe                   M00000000          N
032023071159008000066001TMaría Pilar              Jiménez                  Aleixandre               F00000000          N
032023071159009000065002SNoelia                   Castaño                  Gosende                  F00000000          N
032023071159009000065002TLuis Cipriano            Fernández                Ageitos                  M00000000          N
032023071159010000065003SCarlos                   Babío                    Urkidi                   M00000000          N
032023071159010000065003TMaría Socorro            Cea                      Vázquez                  F00000000          N
032023071159011000066002SMaría de los Ángeles     Liste                    Moure                    F00000000          N
032023071159011000066002TJosé Manuel              Sánchez                  Aguión                   M00000000          N
032023071159012000066003SMaría Jesús              Pereiro                  Mariño                   F00000000          N
032023071159012000066003TMaría Pilar              Candocia                 Pita                     F00000000          N
032023071159013000006001SMelchora                 Muñoz                    Fuentes                  F00000000          N
032023071159013000006001TManuel                   Fuentes                  Lamas                    M00000000          N
032023071159014000006002SManuel Javier            Sánchez                  Fernández                M00000000          N
032023071159014000006002TJosé Enrique             Fernández del Campo      Carreño                  M00000000          N
032023071159015000006003SMaría Concepción         Abalo                    Castex                   F00000000          N
032023071159015000006003TMaría Catalina           Ces                      Casais                   F00000000          N
032023071159016000007001SSamuel                   Cruz                     Rodríguez                F00000000          N
032023071159016000007001TIsabel                   Barral                   Domínguez                M00000000          N
032023071159017000007002SMaría del Pilar          Grandal                  Azpeitia                 M00000000          N
032023071159017000007002TLuis Miguel              González                 Seijas                   F00000000          N
032023071159018000007003SJosé Luis                Martínez                 López                    F00000000          N
032023071159018000007003TMaría Belén              Placer                   García                   M00000000          N
032023071159019000009001SMaría del Carmen         Pérez                    de la Blanca             F00000000          N
032023071159019000009001TAlberto                  Paz                      Viñas                    M00000000          N
032023071169001000005001SCayetano Javier          Solana                   Ciprés                   M00000000          N
032023071169001000005001TBenjamín                 Prieto                   Valencia                 M00000000          S
032023071169001000005004SMaría Amparo             Girón                    Mota                     F00000000          N
032023071169002000005002SRaquel                   Hortelano                Ojeda                    F00000000          N
032023071169002000005002TMaría Jesús              Bonilla                  Domínguez                F00000000          S
032023071169002000005005SSamuel                   Mondéjar                 Morales                  M00000000          N
032023071169003000005003SCarmen                   Dimas                    Benedicto                F00000000          N
032023071169003000005003TAlejo Joaquín            Miranda de Larra         Arnaiz                   M00000000          S
032023071169003000005006SJosé Ramón               Ubiedo                   Cerqueira                M00000000          N
032023071169004000002001SIgnacio                  Casillas                 Sáiz                     M00000000          N
032023071169004000002001TCarmen                   Torralba                 Valiente                 F00000000          S
032023071169004000002004SMontserrat               Manzano                  Mecina                   F00000000          N
032023071169005000002002SMaría Paz                Martínez                 Millán                   F00000000          N
032023071169005000002002TAlfonso                  Escudero                 Ortega                   M00000000          N
032023071169005000002005SJavier                   Sáiz                     Lapeña                   M00000000          N
032023071169006000002003SAlfredo                  Domingo                  Valera                   M00000000          N
032023071169006000002003TEster                    Barrios                  Cañas                    F00000000          N
032023071169006000002006SMiriam                   Ontiveros                Roa                      F00000000          N
032023071169007000006001SMaría Soledad            Galán                    Polo                     F00000000          N
032023071169007000006001TRafael                   Rodríguez                Bartolomé                M00000000          N
032023071169007000006004SCarlos                   Navarro                  Lizárraga                M00000000          N
032023071169008000006002SJesús Manuel             De la Huz                Grimaldos                M00000000          N
032023071169008000006002TMaría José               López                    Beamud                   F00000000          N
032023071169008000006005SLorena                   García                   Barbero                  F00000000          N
032023071169009000006003SMiriam                   San Román                Sanz                     F00000000          N
032023071169009000006003TDavid                    Borja                    Pérez                    M00000000          N
032023071169009000006006SLuis                     Muñoz                    Sánchez                  M00000000          N
032023071169010000010001SIsabel                   Plaza                    Pérez                    F00000000          N
032023071169010000010001TJacobo                   Medianero                Millán                   M00000000          N
032023071169010000010004SJesús                    Martínez                 García                   M00000000          N
032023071169011000010002SAndrés                   Fernández                Ruiz                     M00000000          N
032023071169011000010002TMaite Julia              Pérez                    Quiroz                   F00000000          N
032023071169011000010005SBeatriz                  Torrijos                 Delgado                  F00000000          N
032023071169012000010003SMaría Esperanza          Cotillas                 Pérez                    F00000000          N
032023071169012000010003TMaría Amparo             Merino                   Segovia                  F00000000          N
032023071169012000010006SJosé                     Rubio                    Ortega                   M00000000          N
032023071169013000007001SDomingo                  Espinosa                 Fernández                M00000000          N
032023071169013000007001TCaridad                  Lledó                    Perea                    F00000000          N
032023071169013000007002SJoaquina                 Panadero                 Campos                   F00000000          N
032023071169014000014001SMaría Amor               Aladren                  Iranzo                   F00000000          N
032023071169014000014001TJosé Ángel               Camacho                  Mora                     M00000000          N
032023071169014000014004SFrancisco                Aznarez                  Romeo                    M00000000          N
032023071169015000003001SInés Rocío               Terol                    Conthe                   F00000000          N
032023071169015000003001TMario                    Martínez                 Belmar                   M00000000          N
032023071169015000003002SMiguel Ángel             De Juan                  Cebrián                  M00000000          N
032023071169016000015001SAlejandro                Castiñeira               Viñas                    M00000000          N
032023071169016000015001TEsther                   Ordóñez                  Fernández                F00000000          N
032023071169016000015002SMaría Mercedes           Roldán                   Luceno                   F00000000          N
032023071169017000014002SJavier                   Vicente                  Hernando                 M00000000          N
032023071169017000014002TCristina                 Hervás                   Mediavilla               F00000000          N
032023071169017000014005SMontserrat               Pedrosa                  Buil                     F00000000          N
032023071169018000009001SCarlos                   Peris                    Diente                   M00000000          N
032023071169018000009001TEncarnación              Serrano                  Paricio                  F00000000          N
032023071169018000009002SAmparo                   Del Amo                  Davo                     F00000000          N
032023071169019000014003SLorena                   Cuello                   Hurtado                  F00000000          N
032023071169019000014003TEduardo                  Ros                      Córcoles                 M00000000          N
032023071169019000014006SCarlos                   Garrido                  Iglesias                 M00000000          N
032023071179001000047001SÀlex                     Maqueda                  Moreno                   M00000000          N
032023071179001000047001TConsol                   Canteny                  Arbolí                   F00000000          S
032023071179002000047002SCarolina                 Barrionuevo i            Moscoso                  F00000000          N
032023071179002000047002TMartí                    Sans                     Pairuto                  M00000000          S
032023071179003000047003SFrancisco Jesús          Becerra                  Ramírez                  M00000000          N
032023071179003000047003TLluïsa                   Blanch                   Fulcarà                  F00000000          S
032023071179004000057001SJosep                    Coma                     Guitart                  M00000000          N
032023071179004000057001TJoan                     Bagué                    Roura                    M00000000          S
032023071179005000093001SElisenda                 Pérez                    Esteve                   F00000000          N
032023071179005000093001TJordi                    Martí                    Deulofeu                 M00000000          N
032023071179006000057002SEstefania                Carabellido              Bruns                    F00000000          N
032023071179006000057002TAlbert                   Piñeira                  Brosel                   M00000000          N
032023071179007000057003SRoberto                  Fernández                Santos                   M00000000          N
032023071179007000057003TMontserrat               Mindan                   Cortada                  F00000000          N
032023071179008000093002SAndreu                   Pujol                    Mas                      M00000000          N
032023071179008000093002TJosep María              Terricabras i            Nogueras                 M00000000          N
032023071179009000093003SXavier                   Vinyoles i               Compta                   M00000000          N
032023071179009000093003TSusanna                  Pagés                    Jutglar                  F00000000          N
032023071179010000051001SCarmen                   Guardiola                Fernández                F00000000          N
032023071179010000051001TJordi                    Lloveras                 Avellí                   M00000000          N
032023071179011000056001SMª Luisa                 Rodríguez                Cantoya                  F00000000          N
032023071179011000056001TAlfonso                  Sánchez                  Fisac                    M00000000          N
032023071179012000056002SSebastián                Mateo                    Herrero                  M00000000          N
032023071179012000056002TVanesa                   Mányik                   Jiménez                  F00000000          N
032023071179013000051002SRoberto                  Martínez                 Soler                    M00000000          N
032023071179013000051002TAnna                     Portillo                 Cuberes                  F00000000          N
032023071179014000056003SMª Àngels                Cerdeño                  Bascuñana                F00000000          N
032023071179014000056003TJuan Ramón               Iturriagagoitia          Bassas                   M00000000          N
032023071179015000051003SMagdalena                Bischoff                 Jancovich                F00000000          N
032023071179015000051003TRubén                    Paz                      Martín                   M00000000          N
032023071179016000006001SFrancisco Javier         Medina                   Gutiérrez                M00000000          N
032023071179016000006001TAna María                Catalán                  Martínez                 F00000000          N
032023071179017000006002SMaría Carmen             Herrera                  López                    F00000000          N
032023071179017000006002TJordi                    Vivo                     Fernández                M00000000          N
032023071179018000006003SRoberto                  Martínez                 Hernández                M00000000          N
032023071179018000006003TCristina                 Ruz                      Navarro                  F00000000          N
032023071179019000058001SDavid                    Cortés                   Muñoz                    M00000000          N
032023071179019000058001TElena                    Costa                    Farré                    F00000000          N
032023071179020000055001SSalvador                 Mendoza                  Alcober                  M00000000          N
032023071179020000055001TAlicia                   Fuentes                  Company                  F00000000          N
032023071179021000058002SCristina                 Yborra                   Casado                   F00000000          N
032023071179021000058002TRamon                    Torredemer               Turu                     M00000000          N
032023071179022000058003SJuan Carlos              Villar                   Moreno                   M00000000          N
032023071179022000058003TCamila Fernanda          Parra                    Alvarado                 F00000000          N
032023071179023000054001SNatalia                  Dolader                  Martínez                 F00000000          N
032023071179023000054001TTomás                    Ferreira                 Crubellati               M00000000          N
032023071179024000009001SSergio                   Carmona                  Barba                    M00000000          N
032023071179024000009001TSandra                   Barba                    Olaiz                    F00000000          N
032023071189001000005001SJuan José                Martínez                 Martín                   M00000000          N
032023071189001000005001TVicente                  Azpitarte                Pérez                    M00000000          S
032023071189002000005002SAntonio                  Adarve                   Molina                   M00000000          N
032023071189002000005002TFrancisco Joaquín        Camacho                  Borrego                  M00000000          S
032023071189003000005003SAntonio Manuel           García                   Villena                  M00000000          N
032023071189003000005003TMaría Eva                Martín                   Pérez                    F00000000          S
032023071189004000002001SAbelardo                 Vico                     Ruiz                     M00000000          N
032023071189004000002001TJosé                     Entrena                  Ávila                    M00000000          S
032023071189005000002002SMaría Belén              Porcel                   Gálvez                   F00000000          N
032023071189005000002002TElvira                   Ramón                    Utrabo                   F00000000          N
032023071189006000002003SJuan                     Rodíguez                 López                    M00000000          N
032023071189006000002003TAlejandro José           Zubeldia                 Santoyo                  M00000000          N
032023071189007000006001SMercedes                 Heredia                  Rico                     F00000000          N
032023071189007000006001TJosé Manuel              Pérez                    Padial                   M00000000          N
032023071189008000006002SAlberto                  Peña                     López                    M00000000          N
032023071189008000006002TMaría De La Cruz         Lozano                   Marín                    F00000000          N
032023071189009000006003SSilvia Clara             Enríquez                 Gallego                  F00000000          N
032023071189009000006003TDavid                    Navarro                  Quesada                  M00000000          N
032023071189010000010001SNatalia                  García                   Caballos                 F00000000          N
032023071189010000010001TMariano                  Martin                   Civantos                 M00000000          N
032023071189011000010003SLuis José                García                   Llorente                 M00000000          N
032023071189011000010003TMatilde                  Ramiro                   Gutiérrez                F00000000          N
032023071189012000010002SPatricia                 Lara                     Fernández                F00000000          N
032023071189012000010002TFrancisco                Puentedura               Anllo                    M00000000          N
032023071189013000007001SJosé                     Roca                     Olmos                    M00000000          N
032023071189013000007001TEncarnación              Hidalgo                  Tenorio                  F00000000          N
032023071189014000007002SLorena                   Martín                   Benítez                  F00000000          N
032023071189014000007002TÁngel María              Díaz                     Claudio                  M00000000          N
032023071189015000016001SJosé Ángel               Castro                   Ruiz                     M00000000          N
032023071189015000016001TMaría del Pilar          Bensusan                 Martín                   F00000000          N
032023071189016000016002SInmaculada               Vázquez                  Bustos                   F00000000          N
032023071189016000016002TRafael Darío             Ruiz                     Jiménez                  M00000000          N
032023071189017000016003SLidia María              Moreno                   Espigares                F00000000          N
032023071189017000016003TJosé Antonio             Sánchez                  Pérez                    M00000000          N
032023071189018000003001SMaría Rosa               Mercado                  Alonso                   F00000000          N
032023071189018000003001TEduardo                  Castillo                 Moral                    M00000000          N
032023071189019000015001SLara                     Piñero                   Serrano                  F00000000          N
032023071189019000015001TPablo                    Mora                     Fumero                   M00000000          N
032023071189020000009001SJosé Sanjaya             Rico                     Moral                    M00000000          N
032023071189020000009001TKim Joaquina             Pérez                    Fernández-Figares        F00000000          N
032023071189021000013001SLaura                    Martínez                 Pozos                    M00000000          N
032023071189021000013001TEmilio                   Jiménez                  Rodríguez                F00000000          N
032023071189022000009002SFrancisco Manuel         Beyxer                   Navarro                  M00000000          N
032023071189022000009002TRafael                   Ordinas                  Montojo                  M00000000          N
032023071199001000005001SRocío                    López                    López                    F00000000          N
032023071199001000005001TLucas                    Castillo                 Rodríguez                M00000000          S
032023071199001000005004SPedro                    Loranca                  Garcés                   M00000000          N
032023071199002000005002SEnrique                  Quintana                 Arranz                   M00000000          N
032023071199002000005002TMaría                    Patricio                 Zafra                    F00000000          S
032023071199002000005005SGema                     Cañones                  Ordóñez                  F00000000          N
032023071199003000005003SIsmael                   Sánchez                  Vecino                   M00000000          N
032023071199003000005003TMaría Montserrat         Rivas                    de la Torre              F00000000          S
032023071199003000005006SZahara                   Franco                   Clemente                 F00000000          N
032023071199004000002001SLuis                     Blanco                   Herranz                  M00000000          N
032023071199004000002001TAraceli                  Martínez                 Esteban                  F00000000          S
032023071199004000002004SAndrea                   de la Corte              Rodríguez                F00000000          N
032023071199005000002002SMaría Esperanza          Magán                    Bronchalo                F00000000          N
032023071199005000002002TJosé Luis                Blanco                   Moreno                   M00000000          N
032023071199005000002005SAlejandro                López                    Gálvez                   M00000000          N
032023071199006000002003SFelipe                   Lucio                    Moreno                   M00000000          N
032023071199006000002003TRiansares                Serrano                  Morales                  F00000000          N
032023071199006000002006SRosa Ana                 Gómez                    Pérez                    F00000000          N
032023071199007000006001SEva María                Henche                   Pérez                    F00000000          N
032023071199007000006001TJuan González            Perabá                   Miralles                 M00000000          N
032023071199007000006004SCamilo José              Gil                      Fernández de Angulo      M00000000          N
032023071199008000006002SJosé Luis                Arcángel                 Fernández                M00000000          N
032023071199008000006002TMaría del Sagrario       Muñoz                    Valverde                 F00000000          N
032023071199008000006005SSandra                   del Saz                  Cadalso                  F00000000          N
032023071199009000006003SVirginia                 García                   Martín                   F00000000          N
032023071199009000006003TJosé María               Antón                    García                   M00000000          N
032023071199009000006006SJuan Carlos              González                 Martínez                 M00000000          N
032023071199010000010001SSusana                   Cordón                   Grandio                  F00000000          N
032023071199010000010001TJuan Antonio             Pendás                   Zacarías                 M00000000          N
032023071199010000010004SDaniel                   Cebrián                  García-Parrado           M00000000          N
032023071199011000010002SLuis Ángel               Dorado                   Torres                   M00000000          N
032023071199011000010002TÁngeles                  Yagüe                    Gordo                    F00000000          N
032023071199011000010005SÁngeles                  López                    Carmona                  F00000000          N
032023071199012000010003SYolanda                  Díaz                     Arranz                   F00000000          N
032023071199012000010003TDaniel                   Touset                   López                    M00000000          N
032023071199012000010006SManuel Luis              Gallego                  Delgado                  M00000000          N
032023071199013000007001SManuel                   Cubillo                  Menayo                   M00000000          N
032023071199013000007001TMaría del Pilar          Samper                   Samper                   F00000000          N
032023071199013000007002STeodosia                 Felipe                   Delgado                  F00000000          N
032023071199014000003001SDavid                    González                 Tejero                   M00000000          N
032023071199014000003001TJaime                    Gil                      Merino                   M00000000          N
032023071199014000003002SBeatriz                  Plans                    Beriso                   F00000000          N
032023071199015000015001SAlba María               de la Viuda              Martín                   F00000000          N
032023071199015000015001TJorge                    Fernández                Asenjo                   M00000000          N
032023071199015000015002SCarlos                   San Emeterio             Fernández                M00000000          N
032023071199016000009001SMaría Julia              Pérez                    Cervera                  F00000000          N
032023071199016000009001TRafael                   Cortés                   Tejedor                  M00000000          N
032023071199016000009002SFrancisco                Mañas                    Ruiz                     M00000000          N
032023071199017000019001SRosa María               Pastor                   Morera                   F00000000          N
032023071199017000019001TLuis Enrique             Nieto                    del Canto                M00000000          N
032023071199017000019002SÁngel Luis               Sanz                     de Benito                M00000000          N
032023071209001000094001SIgone                    Lamarain                 Cobo                     F00000000          N
032023071209001000094001TGorka                    Elejabarrieta            Díaz                     M00000000          S
032023071209002000094002SIbon                     Gereka                   Balentziaga              M00000000          N
032023071209002000094002TOlaia                    Duarte                   Lopez                    F00000000          S
032023071209003000094003SHaizea                   Cortaberría              Garechana                F00000000          N
032023071209003000094003TMario                    Zubiaga                  Garate                   M00000000          S
