021993061199999000002002TLUIS DE GRANDES PASCUAL                                                     000000000000000000S
021993061199999000002003TLUIS ROMERO DEL AMO                                                         000000000000000000N
021993061209999000002001TJOSE EUGENIO AZPIROZ VILLAR                                                 000000000000000000S
021993061209999000002002TRICARDO HUESO ABANCENS                                                      000000000000000000N
021993061209999000002003TCARMEN NAGEL TEJADA                                                         000000000000000000N
021993061209999000002004TANDRES BERNABE RODRIGUEZ                                                    000000000000000000N
021993061209999000002005TJOSE CARLOS GARCIA PAREDES                                                  000000000000000000N
021993061209999000002006TJAIME MAYOR OREJA                                                           000000000000000000N
021993061219999000002001TEMILIANO SANZ ESCALERA                                                      000000000000000000S
021993061219999000002002TMARIA DEL PILAR PULGAR FRAILE                                               000000000000000000S
021993061219999000002003TWENCESLAO ALBERTO FONT BRIONES                                              000000000000000000N
021993061219999000002004TANA MARIA BAÑEZ RIVERA                                                      000000000000000000N
021993061219999000002005TMANUEL SABORIT HERNANDIS                                                    000000000000000000N
021993061229999000002001TROSA VILLALON RICO                                                          000000000000000000S
021993061229999000002002TAURORA ABAD RUIZ                                                            000000000000000000N
021993061229999000002003TANGEL MARIA MUZAS ROTA                                                      000000000000000000N
021993061239999000002001TGABINO PUCHE RODRIGUEZ-ACOSTA                                               000000000000000000S
021993061239999000002002TLUIS DE TORRES GOMEZ                                                        000000000000000000S
021993061239999000002003TJUAN PIZARRO NAVARRETE                                                      000000000000000000N
021993061239999000002004TSOFIA CASTELLO NICAS                                                        000000000000000000N
021993061239999000002005TFRANCISCO ARMIJO HIGUERAS                                                   000000000000000000N
021993061239999000002006TMARIA INOCENCIA SANCHEZ ALCAIDE                                             000000000000000000N
021993061249999000002001TMANUEL NUÑEZ PEREZ                                                          000000000000000000S
021993061249999000002002TJUAN MORANO MASA                                                            000000000000000000S
021993061249999000002003TANGEL ESCUREDO FRANCO                                                       000000000000000000S
021993061249999000002004TEMILIO GUTIERREZ FERNANDEZ                                                  000000000000000000N
021993061249999000002005TNATIVIDAD CORDERO MONROY                                                    000000000000000000N
021993061269999000002001TLUIS ANGEL ALEGRE GALILEA                                                   000000000000000000S
021993061269999000002002TNEFTALI ISASI GOMEZ                                                         000000000000000000S
021993061269999000002003TJOSE IGNACIO CENICEROS GONZALEZ                                             000000000000000000N
021993061269999000002004TCONRADO ESCOBAR LAS HERAS                                                   000000000000000000N
021993061279999000002001TMAURO ANTONIO VARELA PEREZ                                                  000000000000000000S
021993061279999000002002TJULIO PADILLA CARBALLADA                                                    000000000000000000S
021993061279999000002003TENRIQUE ALVAREZ PAREDES                                                     000000000000000000S
021993061279999000002004TAURORA CARRO PARAMO                                                         000000000000000000N
021993061279999000002005TJOSE CARLOS RODRIGUEZ ANDINA                                                000000000000000000N
021993061289999000002001TJOSE MARIA AZNAR LOPEZ                                                      000000000000000000S
021993061289999000002002TRODRIGO DE RATO FIGAREDO                                                    000000000000000000S
021993061289999000002003TRODOLFO MARTIN VILLA                                                        000000000000000000S
021993061289999000002004TRAFAEL ARIAS-SALGADO MONTALVO                                               000000000000000000S
021993061289999000002005TALEJANDRO MUÑOZ-ALONSO LEDO                                                 000000000000000000S
021993061289999000002006TJUAN CARLOS VERA PRO                                                        000000000000000000S
021993061289999000002007TALVARO DE LAPUERTA QUINTERO                                                 000000000000000000S
021993061289999000002008TANA MATO ADROVER                                                            000000000000000000S
021993061289999000002009TCRISTOBAL RICARDO MONTORO ROMERO                                            000000000000000000S
021993061289999000002010TLUIS EDUARDO CORTES MUÑOZ                                                   000000000000000000S
021993061289999000002011TCARLOS ARAGONES MENDIGUCHIA                                                 000000000000000000S
021993061289999000002012TJOSE MARIA MICHAVILA NUÑEZ                                                  000000000000000000S
021993061289999000002013TROGELIO BAON RAMIREZ                                                        000000000000000000S
021993061289999000002014TJOSE MANUEL FERNANDEZ NORNIELLA                                             000000000000000000S
021993061289999000002015TELENA GARCIA-ALCAÑIZ CALVO                                                  000000000000000000S
021993061289999000002016TJUAN TOMAS ESTEO PALOMO                                                     000000000000000000S
021993061289999000002017TTEOFILO DE LUIS RODRIGUEZ                                                   000000000000000000N
021993061289999000002018TPEDRO NUÑEZ MORGADES                                                        000000000000000000N
021993061289999000002019TMARIA TERESA GARCIA-SISO PARDO                                              000000000000000000N
021993061289999000002020TMANUEL JOSE RODRIGUEZ GONZALEZ                                              000000000000000000N
021993061289999000002021TMARIA JOSEFA AGUADO DEL OLMO                                                000000000000000000N
021993061289999000002022TANTONIO ABDON CABRERO RUIZ                                                  000000000000000000N
021993061289999000002023TGINES LOPEZ RODRIGUEZ                                                       000000000000000000N
021993061289999000002024TMANUEL TROITIÑO PELAZ                                                       000000000000000000N
021993061289999000002025TFRANCISCO JAVIER ESPADAS LOPEZ-TERRADAS                                     000000000000000000N
021993061289999000002026TFRANCISCO EXTREMERA MERENCIO                                                000000000000000000N
021993061289999000002027TJAVIER RAMON CEPEDA BARROS                                                  000000000000000000N
021993061289999000002028TALICIA BELMONTE ATIENZA                                                     000000000000000000N
021993061289999000002029TFLORENTINO JESUS BRIONES SOLIS                                              000000000000000000N
021993061289999000002030TSONSOLES TRINIDAD ABOIN ABOIN                                               000000000000000000N
021993061289999000002031TBARTOLOME GONZALEZ GIMENEZ                                                  000000000000000000N
021993061289999000002032TMARIA DOLORES LOPEZ DE LA RICA                                              000000000000000000N
021993061289999000002033TIGNACIO DEL RIO GARCIA DE SOLA                                              000000000000000000N
021993061289999000002034TJOSE MARIA DE LA TORRE MONTORO                                              000000000000000000N
021993061299999000002001TCELIA VILLALOBOS TALERO                                                     000000000000000000S
021993061299999000002002TFEDERICO JAVIER SOUVIRON GARCIA                                             000000000000000000S
021993061299999000002003TMARIA ESPERANZA OÑA SEVILLA                                                 000000000000000000S
021993061299999000002004TPABLO MARCIAL IZQUIERDO JUAREZ                                              000000000000000000N
021993061299999000002005TLUIS CASASECA NAVAS                                                         000000000000000000N
021993061299999000002006TANA MARIA CORREDERA QUINTANA                                                000000000000000000N
021993061299999000002007TJESUS CALVO SORIANO                                                         000000000000000000N
021993061299999000002008TFRANCISCO GOMEZ ROMAN                                                       000000000000000000N
021993061299999000002009TANTONIO VILLENA MONTENEGRO                                                  000000000000000000N
021993061299999000002010TANA JESUS MORILLO GALEOTE                                                   000000000000000000N
021993061309999000002001TLUIS GAMIR CASARES                                                          000000000000000000S
021993061029999000001001TJUAN DE DIOS IZQUIERDO COLLADO                                              000000000000000000S
021993061029999000001002TJOSE JEREZ COLINO                                                           000000000000000000S
021993061029999000001003TJOSE CUENCA RICO                                                            000000000000000000N
021993061029999000001004TFRUCTUOSO DIAZ CARRILLO                                                     000000000000000000N
021993061039999000001001TJOSE V.BEVIA PASTOR                                                         000000000000000000S
021993061039999000001002TALBERTO PEREZ FERRE                                                         000000000000000000S
021993061039999000001003TMARIA TERESA SEMPERE JAEN                                                   000000000000000000S
021993061039999000001004TLUIS BERENGUER FUSTER                                                       000000000000000000S
021993061039999000001005TJORGE CREMADES SENA                                                         000000000000000000N
021993061039999000001006TMANUEL CATALAN CHANA                                                        000000000000000000N
021993061039999000001007TREMEI GALIANA ROIG                                                          000000000000000000N
021993061039999000001008TMIGUEL TEROL MARTINEZ                                                       000000000000000000N
021993061039999000001009TMARIA TERESA CABRERA DE SANTOS                                              000000000000000000N
021993061039999000001010TFRANCISCA MUÑOZ GIL                                                         000000000000000000N
021993061059999000001001TJERONIMO NIETO GONZALEZ                                                     000000000000000000S
021993061059999000001002TLUIS ALBERTO ANTONIO MARTIN                                                 000000000000000000N
021993061059999000001003TPILAR OCHANDO FERNANDEZ                                                     000000000000000000N
021993061069999000001001TFRANCISCO MIGUEL FERNANDEZ MARUGAN                                          000000000000000000S
021993061069999000001002TFRANCISCO FUENTES GALLARDO                                                  000000000000000000S
021993061069999000001003TALFREDO GIMENO ORTIZ                                                        000000000000000000S
021993061069999000001004TMARIA DOLORES SANCHEZ DIAZ                                                  000000000000000000S
021993061069999000001005TFRANCISCO HERNANDO LOPEZ                                                    000000000000000000N
021993061069999000001006TJUAN SANCHEZ MORENO                                                         000000000000000000N
021993061079999000001001TFELIX PONS IRAZAZABAL                                                       000000000000000000S
021993061079999000001002TANTONIO COSTA COSTA                                                         000000000000000000S
021993061079999000001003TALBERTO MORAGUES GOMILA                                                     000000000000000000S
021993061079999000001004TMARGARITA NAJERA ARANZABAL                                                  000000000000000000N
021993061079999000001005TANTONIA MERCADAL SERRA                                                      000000000000000000N
021993061079999000001006TANTONI JOSEP ROIG CUART                                                     000000000000000000N
021993061079999000001007TMIGUEL OLIVER BISBAL                                                        000000000000000000N
021993061099999000001001TJOSE LUIS CORCUERA CUESTA                                                   000000000000000000S
021993061099999000001002TFEDERICO SANZ DIAZ                                                          000000000000000000S
021993061099999000001003TMARIA ISABEL ABAD PINILLOS                                                  000000000000000000N
021993061099999000001004TJULIO VICTOR PASCUAL ABAD                                                   000000000000000000N
021993061109999000001001TALEJANDRO CERCAS ALONSO                                                     000000000000000000S
021993061109999000001002TJAIME NARANJO GONZALO                                                       000000000000000000S
021993061109999000001003TVICTORIANO RONCERO RODRIGUEZ                                                000000000000000000S
021993061109999000001004TADELA SANCHEZ DE BUSTOS                                                     000000000000000000N
021993061109999000001005TANTONIO FERNANDO FERNANDEZ PRECIADO                                         000000000000000000N
021993061129999000001001TFRANCISCO ARNAU NAVARRO                                                     000000000000000000S
021993061129999000001002TOFELIA SOLER NOMDEDEU                                                       000000000000000000S
021993061459999000001004TEMILIANO GARCIA-PAGE SANCHEZ                                                000000000000000000N
021993061459999000001005TLUIS CABIEDAS GUZMAN                                                        000000000000000000N
021993061469999000001001TCIPRIA CISCAR CASABAN                                                       000000000000000000S
021993061469999000001002TVICENTE ALBERO SILLA                                                        000000000000000000S
021993061469999000001003TANTONI ASUNCION HERNANDEZ                                                   000000000000000000S
021993061469999000001004TJAUME CASTELLS FERRER                                                       000000000000000000S
021993061469999000001005TJOSE MARIA MOHEDANO FUERTES                                                 000000000000000000S
021993061469999000001006TADELA PLA PASTOR                                                            000000000000000000S
021993061469999000001007TJUAN ANTONIO LLORET LLORENS                                                 000000000000000000N
021993061469999000001008TJAVIER PANIAGUA FUENTES                                                     000000000000000000N
021993061469999000001009TVICENTE GARCES RAMON                                                        000000000000000000N
021993061469999000001010TMARTA BENLLOCH GARCIA                                                       000000000000000000N
021993061469999000001011TCELESTE GARCIA ESTARLICH                                                    000000000000000000N
021993061469999000001012TJUAN BERTRAN PELLUCH                                                        000000000000000000N
021993061469999000001013TJOSE MARIA VIDAL PERIS                                                      000000000000000000N
021993061469999000001014TVICTOR SAHUQUILLO MARTINEZ                                                  000000000000000000N
021993061469999000001015TINES IBAÑEZ FABREGAT                                                        000000000000000000N
021993061469999000001016TCARMEN FERRER ESCRIVA                                                       000000000000000000N
021993061479999000001001TTOMAS RODRIGUEZ BOLAÑOS                                                     000000000000000000S
021993061479999000001002TANTONIO PEREZ SOLANO                                                        000000000000000000S
021993061479999000001003TMARIA DEL CARMEN ZAPATA PICON                                               000000000000000000N
021993061479999000001004TMARCOS ANTONIO DE PAZ MANCHO                                                000000000000000000N
021993061479999000001005TJOSE ANTONIO PEREZ GARCIA                                                   000000000000000000N
021993061499999000001001TDEMETRIO MADRID LOPEZ                                                       000000000000000000S
021993061499999000001002TM. ISABEL BLANCA TERESA FERNANDEZ MARASSA                                   000000000000000000N
021993061499999000001003TNORBERTO NUÑEZ TORIBIO                                                      000000000000000000N
021993061509999000001001TLUIS CARLOS PIQUER JIMENEZ                                                  000000000000000000S
021993061509999000001002TFERNANDO GIMENO MARIN                                                       000000000000000000S
021993061509999000001003TJOSE FELIX SAENZ LORENZO                                                    000000000000000000S
021993061509999000001004TMANUELA GARCIA VILLAMAYOR                                                   000000000000000000N
021993061509999000001005TEDUARDO JOSE ALONSO LIZONDO                                                 000000000000000000N
021993061509999000001006TMARIA ANGELES ORTIZ ALVAREZ                                                 000000000000000000N
021993061509999000001007TJUDITH MARTINEZ VELASCO                                                     000000000000000000N
021993061519999000001001TMARIA DEL CARMEN CERDEIRA MORTERERO                                         000000000000000000N
021993061529999000001001TJULIO BASSETS RUTLLANT                                                      000000000000000000S
021993061019999000002001TMARCELINO OREJA AGUIRRE                                                     000000000000000000S
021993061019999000002002TJAVIER SAMPEDRO SAMPEDRO                                                    000000000000000000N
021993061019999000002003TANTONIO SALAZAR DE ANDRES                                                   000000000000000000N
021993061019999000002004TJOSE IGNACIO OYARZABAL DE MIGUEL                                            000000000000000000N
021993061029999000002001TMIGUEL RAMIREZ GONZALEZ                                                     000000000000000000S
021993061029999000002002TATANASIO S. BALLESTEROS MORCILLO                                            000000000000000000S
021993061029999000002003TJOSE MARIA BARCINA MAGRO                                                    000000000000000000N
021993061029999000002004TFERNANDO SERRA MOLINA                                                       000000000000000000N
021993061039999000002001TFEDERICO TRILLO FIGUEROA MARTINEZ-CONDE                                     000000000000000000S
021993061039999000002002TLUIS FERNANDO CARTAGENA TRAVESEDO                                           000000000000000000S
021993061039999000002003TJOSE CHOLBI DIEGO                                                           000000000000000000S
021993061039999000002004TDIEGO SUCH PEREZ                                                            000000000000000000S
021993061039999000002005TJULIO FRANCISCO DE ESPAÑA MOYA                                              000000000000000000S
021993061039999000002006TFRANCISCO VICENTE MURCIA BARCELO                                            000000000000000000N
021993061039999000002007TMARIA DEL CARMEN DIAZ VILLANUEVA                                            000000000000000000N
021993061039999000002008TEDUARDO GARCIA DE SOLA                                                      000000000000000000N
021993061039999000002009TJOSE MIGUEL SAVAL PEREZ                                                     000000000000000000N
021993061039999000002010TROSALIA GARRIDO MUÑOZ                                                       000000000000000000N
021993061049999000002001TMANUEL ARQUEROS OROZCO                                                      000000000000000000S
021993061049999000002002TRAFAEL ANTONIO HERNANDO FRAILE                                              000000000000000000S
021993061049999000002003TMANUEL FUENTES MARTIN                                                       000000000000000000N
021993061049999000002004TMARIA MONTSERRAT CASADO VERA                                                000000000000000000N
021993061049999000002005TFERNANDO CABEZON RUIZ                                                       000000000000000000N
021993061059999000002001TFELICIANO BLAZQUEZ SANCHEZ                                                  000000000000000000S
021993061059999000002002TAGUSTIN DIAZ DE MERA Y GARCIA CONSUEGRA                                     000000000000000000S
021993061129999000001003TBENJAMIN SALVADOR NEBOT                                                     000000000000000000N
021993061129999000001004TJUAN VICENTE RAMBLA SANZ                                                    000000000000000000N
021993061129999000001005TGEMMA LLORENS SILVESTRE                                                     000000000000000000N
021993061139999000001001TMIGUEL ANGEL MARTINEZ MARTINEZ                                              000000000000000000S
021993061139999000001002TRAFAEL LOPEZ MARTIN DE LA VEGA                                              000000000000000000S
021993061139999000001003TFRANCISCO JAVIER MARTIN DEL BURGO SIMARRO                                   000000000000000000S
021993061139999000001004TCONSUELO RAMIREZ LIÑAN                                                      000000000000000000N
021993061139999000001005TSANTIAGO MORENO GONZALEZ                                                    000000000000000000N
021993061169999000001001TVIRGILIO ZAPATERO GOMEZ                                                     000000000000000000S
021993061169999000001002TJUSTO TOMAS ZAMBRANA PINEDA                                                 000000000000000000N
021993061169999000001003TMARIA ANGELES BALLESTEROS BELINCHON                                         000000000000000000N
021993061199999000001001TJOSE LUIS ROS MAORAD                                                        000000000000000000S
021993061199999000001002TRAFAEL CABELLOS DE FRANCISCO                                                000000000000000000N
021993061199999000001003TMARIA DE LAS NIEVES PILAR MORANCHEL MORENO                                  000000000000000000N
021993061229999000001001TVICTOR MORLAN GRACIA                                                        000000000000000000S
021993061229999000001002TMARIA PELLICER RASO                                                         000000000000000000S
021993061229999000001003TJESUS MIGUEL FRANCO SANGIL                                                  000000000000000000N
021993061249999000001001TJOSE LUIS RODRIGUEZ ZAPATERO                                                000000000000000000S
021993061249999000001002TCONRADO ALONSO BUITRON                                                      000000000000000000S
021993061249999000001003TMARIA ANGELES RUBIO MARTINEZ                                                000000000000000000N
021993061249999000001004TMARIA DEL ROCIO LEON ALLER                                                  000000000000000000N
021993061249999000001005TMANUEL ANGEL DIEZ ESTRADA                                                   000000000000000000N
021993061269999000001001TJAVIER LUIS SAENZ COSCULLUELA                                               000000000000000000S
021993061269999000001002TANGEL MARTINEZ SANJUAN                                                      000000000000000000S
021993061269999000001003TMARIA CONCEPCION PEREZ SANTO-TOMAS                                          000000000000000000N
021993061269999000001004TFRANCISCO JAVIER RUIZ AZNAREZ                                               000000000000000000N
021993061289999000001001TFELIPE GONZALEZ MARQUEZ                                                     000000000000000000S
021993061289999000001002TBALTASAR GARZON REAL (INDEPENDIENTE)                                        000000000000000000S
021993061289999000001003TJAVIER SOLANA MADARIAGA                                                     000000000000000000S
021993061289999000001004TJOSE JOAQUIN ALMUNIA AMANN                                                  000000000000000000S
021993061289999000001005TJOSE BARRIONUEVO PEÑA                                                       000000000000000000S
021993061289999000001006TCARMEN GARCIA BLOISE                                                        000000000000000000S
021993061289999000001007TJOSE ACOSTA CUBERO                                                          000000000000000000S
021993061289999000001008TFROILAN LUIS PEREZ GONZALEZ                                                 000000000000000000S
021993061289999000001009TMANUEL DE LA ROCHA RUBI                                                     000000000000000000S
021993061289999000001010TISABEL ALBERDI ALONSO                                                       000000000000000000S
021993061289999000001011TLEON MAXIMO RODRIGUEZ VALVERDE                                              000000000000000000S
021993061289999000001012TCARLOS LOPEZ RIAÑO                                                          000000000000000000S
021993061289999000001013TCARLOS ALBERTO DAVILA SANCHEZ                                               000000000000000000S
021993061289999000001014TRAFAEL MARIA GARCIA-RICO FERNANDEZ                                          000000000000000000N
021993061289999000001015TMARIA ENEDINA ALVAREZ GAYOL                                                 000000000000000000N
021993061289999000001016TANTONIO FERNANDEZ GORDILLO                                                  000000000000000000N
021993061289999000001017TJESUS VICENTE MINGO BENITEZ                                                 000000000000000000N
021993061289999000001018TMODESTO NOLLA ESTRADA                                                       000000000000000000N
021993061289999000001019TRUTH PORTA CANTONI                                                          000000000000000000N
021993061289999000001020THENAR CORBI MURGUI                                                          000000000000000000N
021993061289999000001021TRAFAEL EUGENIO GONZALEZ DIAZ                                                000000000000000000N
021993061289999000001022TMARIA LUZ MARTIN BARRIOS                                                    000000000000000000N
021993061289999000001023TMIRYAM ALVAREZ PAEZ                                                         000000000000000000N
021993061289999000001024TMARIA ELENA ALMAZAN VICARIO                                                 000000000000000000N
021993061289999000001025TJOSE MANUEL FRANCO PARDO                                                    000000000000000000N
021993061289999000001026TVICTOR JOSE FERNANDEZ AGUILAR                                               000000000000000000N
021993061289999000001027TENCARNACION ASENSIO PEREZ                                                   000000000000000000N
021993061289999000001028TMARIA ISABEL LIZCANO FERNANDEZ                                              000000000000000000N
021993061289999000001029TANTONIO ESPIN ILUMINATTI                                                    000000000000000000N
021993061289999000001030TRICARDO PEREZ-SOLERO PUIG                                                   000000000000000000N
021993061289999000001031TMONICA KIELMANNSEGGE FLORIAN                                                000000000000000000N
021993061289999000001032TLUIS MIGUEL SAN JOSE UGENA                                                  000000000000000000N
021993061289999000001033TANGEL DIAZ PLASENCIA                                                        000000000000000000N
021993061289999000001034TMACARIO ESTEBAN SERRANO                                                     000000000000000000N
021993061309999000001001TJOSEFA PARDO ORTIZ                                                          000000000000000000S
021993061309999000001002TJUAN MANUEL CAÑIZARES MILLAN                                                000000000000000000S
021993061309999000001003TJOSE ANTONIO ALONSO CONESA                                                  000000000000000000S
021993061309999000001004TJORGE BENITO NOVELLA SUAREZ                                                 000000000000000000S
021993061309999000001005TM. DOLORES ROMERO MARTINEZ                                                  000000000000000000N
021993061309999000001006TANTONIA VISIEDO NIETO                                                       000000000000000000N
021993061309999000001007TPEDRO CAMPILLO JIMENEZ                                                      000000000000000000N
021993061309999000001008TANGEL LOZANO RODRIGUEZ                                                      000000000000000000N
021993061309999000001009TPEDRO SAURA GARCIA                                                          000000000000000000N
021993061319999000001001TCARLOS SOLCHAGA CATALAN                                                     000000000000000000S
021993061319999000001002TBLANCA GARCIA MANZANARES                                                    000000000000000000S
021993061319999000001003TFRANCISCO SAN MARTIN SALA                                                   000000000000000000N
021993061319999000001004TFRANCISCA CATALAN FABO                                                      000000000000000000N
021993061319999000001005TJOSE LUIS CASTEJON GARRUES                                                  000000000000000000N
021993061339999000001001TLUIS MARTINEZ NOVAL                                                         000000000000000000S
021993061339999000001002TMARCELO PALACIOS ALONSO                                                     000000000000000000S
021993061339999000001003TALVARO CUESTA MARTINEZ                                                      000000000000000000S
021993061339999000001004TJOSE MANUEL GONZALEZ GARCIA                                                 000000000000000000S
021993061339999000001005TMARIA VIRTUDES MONTESERIN RODRIGUEZ                                         000000000000000000N
021993061339999000001006TGABRIEL PEREZ VILLALTA                                                      000000000000000000N
021993061339999000001007TANA ROSA MIGOYA DIEGO                                                       000000000000000000N
021993061339999000001008TRAFAEL SANCHEZ LAVANDERA                                                    000000000000000000N
021993061339999000001009TMARIA CARMEN RODRIGUEZ FERNANDEZ                                            000000000000000000N
021993061349999000001001TJUAN RAMON LAGUNILLA ALONSO                                                 000000000000000000S
021993061349999000001002TJOSE MARIA CRESPO LORENZO                                                   000000000000000000N
021993061349999000001003TPILAR MARCOS CLAVERO                                                        000000000000000000N
021993061359999000001001TCARMELO ARTILES BOLAÑOS                                                     000000000000000000S
021993061359999000001002TBLAS GABRIEL TRUJILLO ORAMAS                                                000000000000000000S
021993061359999000001003TOLIVIA ESTEVEZ SANTANA                                                      000000000000000000N
021993061359999000001004TFRANCISCO RODRIGUEZ MONTERO                                                 000000000000000000N
021993061359999000001005TGUSTAVO VEGA BOLAÑOS                                                        000000000000000000N
021993061359999000001006TMARIA JESUS MARTIN GONZALEZ                                                 000000000000000000N
021993061359999000001007TTOMAS PEREZ JIMENEZ                                                         000000000000000000N
021993061379999000001001TJESUS CALDERA SANCHEZ-CAPITAN                                               000000000000000000S
021993061379999000001002TMARIA FRANCISCA VICENTE GARCIA                                              000000000000000000S
021993061379999000001003TMARIA JULIA PAREJA CORZO                                                    000000000000000000N
021993061379999000001004THILARIO VEGAS SERRANO                                                       000000000000000000N
021993061389999000001001TANTONIO MARTINON CEJAS                                                      000000000000000000S
021993061389999000001002TNESTOR PADRON DELGADO                                                       000000000000000000S
021993061389999000001003TMARIA DOLORES PELAYO DUQUE                                                  000000000000000000S
021993061389999000001004TANTONIO MANUEL RODRIGUEZ CEREZO                                             000000000000000000N
021993061389999000001005TMANUEL LUIS MENDEZ MARTIN                                                   000000000000000000N
021993061389999000001006TJUAN LUIS GONZALEZ PADRON                                                   000000000000000000N
021993061389999000001007TMARIA CATALINA HERMINIA GIL LORENZO                                         000000000000000000N
021993061399999000001001TMATILDE FERNANDEZ SANZ                                                      000000000000000000S
021993061399999000001002TJOSE RAMON LAGO FREIRE                                                      000000000000000000S
021993061399999000001003TDOLORES GOROSTIAGA SAIZ                                                     000000000000000000S
021993061399999000001004TANGEL DUQUE HERRERA                                                         000000000000000000N
021993061399999000001005TMIGUEL ANGEL GONZALEZ VEGA                                                  000000000000000000N
021993061409999000001001TJUAN MUÑOZ GARCIA                                                           000000000000000000S
021993061409999000001002TANGEL BALLESTERO DIEZ                                                       000000000000000000N
021993061409999000001003TMARIA VICENTA GONZALEZ ALBALAT                                              000000000000000000N
021993061429999000001001TJOSE MARIA MARTINEZ LASECA                                                  000000000000000000S
021993061429999000001002TMARIA ELOISA ALVAREZ OTEO                                                   000000000000000000N
021993061429999000001003TMANUEL NUÑEZ ENCABO                                                         000000000000000000N
021993061449999000001001TJAVIER VELASCO RODRIGUEZ                                                    000000000000000000S
021993061449999000001002TGERARDO TORRES SAHUQUILLO                                                   000000000000000000S
021993061449999000001003TMARIA LUCIA GOMEZ GARCIA                                                    000000000000000000N
021993061459999000001001TJUAN PEDRO HERNANDEZ MOLTO                                                  000000000000000000S
021993061459999000001002TALFREDO PEREZ RUBALCABA                                                     000000000000000000S
021993061459999000001003TMARIA DEL CARMEN MORENO GONZALEZ                                            000000000000000000S
021993061199999000003002TGUZMAN PISON LLAMO                                                          000000000000000000N
021993061199999000003003TYOLANDA LOZANO ORTEGA                                                       000000000000000000N
021993061209999000003001TANGEL DE LEON CUEVAS                                                        000000000000000000N
021993061209999000003002TFELIPE ARTEAGA GONZALEZ                                                     000000000000000000N
021993061209999000003003TJORGE RUIZ SOLER                                                            000000000000000000N
021993061209999000003004TRAMON IZARD RODRIGUEZ                                                       000000000000000000N
021993061209999000003005TANTONIO MARTOS VILLARINO                                                    000000000000000000N
021993061209999000003006TMARIA ROSARIO GARCIA FERNANDEZ                                              000000000000000000N
021993061219999000003001TANTONIO DIAZ GOMEZ                                                          000000000000000000N
021993061219999000003002TMANUEL PALACIOS MAESTRE                                                     000000000000000000N
021993061219999000003003TRAFAEL GARCIA GARCIA                                                        000000000000000000N
021993061219999000003004TMONSERRAT CANAL ANTEQUERA                                                   000000000000000000N
021993061219999000003005TANTONIO GUTIERREZ APONTE                                                    000000000000000000N
021993061229999000003001TBERNARDO BAQUEDANO GARCIA                                                   000000000000000000N
021993061229999000003002TANTONIO GOMEZ RODRIGUEZ                                                     000000000000000000N
021993061229999000003003TMARIA CARMEN MERIZ SABOYA                                                   000000000000000000N
021993061239999000003001TFRANCISCO HERRERA GARCIA                                                    000000000000000000N
021993061239999000003002TGREGORIO GARRIDO GARCIA                                                     000000000000000000N
021993061239999000003003TRAFAEL GOMEZ PEREA                                                          000000000000000000N
021993061239999000003004TMARIA DEL CARMEN SUAREZ RUANO                                               000000000000000000N
021993061239999000003005TMIGUEL FRANCISCO GUTIERREZ PAREDES                                          000000000000000000N
021993061239999000003006TGERARDO APARICIO VILLENA                                                    000000000000000000N
021993061249999000003001TPORFIRIO DIEZ CASADO                                                        000000000000000000N
021993061249999000003002TROQUE ESCUDERO VEGA                                                         000000000000000000N
021993061249999000003003TDAVID GARCIA RUBIO                                                          000000000000000000N
021993061249999000003004TMARIA LUISA GUERRA HERRERA                                                  000000000000000000N
021993061249999000003005TVICTORINO GONZALEZ GONZALEZ                                                 000000000000000000N
021993061269999000003001TMANUEL MARIA FERNANDEZ ILARRAZA                                             000000000000000000N
021993061269999000003002TMARIA PILAR SALARRULLANA DE VERDA                                           000000000000000000N
021993061269999000003003TJUAN JOSE MUÑOZ ORTEGA                                                      000000000000000000N
021993061269999000003004TPABLO GARCIA ALCALDE                                                        000000000000000000N
021993061279999000003001TGONZALO FERNANDEZ LOPEZ                                                     000000000000000000N
021993061279999000003002TMANUEL MUÑOZ AYALA                                                          000000000000000000N
021993061279999000003003TJOSE MANUEL YAÑEZ FERNANDEZ                                                 000000000000000000N
021993061279999000003004TALFREDO DE SENA ROMO                                                        000000000000000000N
021993061279999000003005TJORGE VARELA GONZALEZ                                                       000000000000000000N
021993061289999000003001TRAFAEL CALVO ORTEGA                                                         000000000000000000N
021993061289999000003002TJOSE LUIS GOMEZ-CALCERRADA GASCON                                           000000000000000000N
021993061289999000003003TGUADALUPE RUIZ-GIMENEZ AGUILAR                                              000000000000000000N
021993061289999000003004TELENA MENDEZ-LEITE SERRANO                                                  000000000000000000N
021993061289999000003005TJOSE ANTONIO SOUTO PAZ                                                      000000000000000000N
021993061289999000003006TGONZALO SAENZ DE BURUAGA CARRILLO DE ALBORNOZ                               000000000000000000N
021993061289999000003007TANGEL ALVAREZ PLAZA                                                         000000000000000000N
021993061289999000003008TJOSE QUIROS DIAZ-VALDES                                                     000000000000000000N
021993061289999000003009TELADIO NAVARRO CASTILLO                                                     000000000000000000N
021993061289999000003010TPEDRO ANTONIO FOURNIER FERNANDEZ                                            000000000000000000N
021993061289999000003011TCARLOS ANTONIO GARCIA ALVAREZ                                               000000000000000000N
021993061289999000003012TJOSE MANUEL FERNANDEZ MENENDEZ                                              000000000000000000N
021993061289999000003013TJUAN DAZA GONZALEZ                                                          000000000000000000N
021993061289999000003014TALFONSA RIOS SALVADOR                                                       000000000000000000N
021993061289999000003015TVICENTE LUIS GAMBORINO APARISI                                              000000000000000000N
021993061289999000003016TJOSE CARLOS CAMINS MOCHALES                                                 000000000000000000N
021993061289999000003017TMARCELO NAVARRO FERNANDEZ                                                   000000000000000000N
021993061289999000003018TANTONIO VEGA MUÑOZ                                                          000000000000000000N
021993061289999000003019TLUIS FRANCISCO GOMEZ-JORDANA DIAZ-MERRY                                     000000000000000000N
021993061289999000003020TMANUEL GALVAN FRADEJAS                                                      000000000000000000N
021993061289999000003021TAMPARO ALMARCHA BARBADO                                                     000000000000000000N
021993061289999000003022TJESUS MARIA ALONSO SANZ                                                     000000000000000000N
021993061289999000003023TFRANCISCO JAVIER TIRADO SUAREZ                                              000000000000000000N
021993061289999000003024TCARLOS BARAHONA GARCIA                                                      000000000000000000N
021993061289999000003025TANTONIO I. PRESAS CASTILLA                                                  000000000000000000N
021993061289999000003026TLUIS RODULFO ZABALA                                                         000000000000000000N
021993061289999000003027TMARIA NIEVES MARTINEZ HUERGO                                                000000000000000000N
021993061289999000003028TEUSEBIO GONZALEZ CASTILLA                                                   000000000000000000N
021993061289999000003029TESTHER GARCIA TAPIAS                                                        000000000000000000N
021993061289999000003030TJESUS ANGEL SIMON BLANCO                                                    000000000000000000N
021993061289999000003031TPEDRO MARTINEZ JURADO                                                       000000000000000000N
021993061289999000003032TFRANCISCO CUESTA REDONDO                                                    000000000000000000N
021993061289999000003033TBENITO DE DIEGO GONZALEZ                                                    000000000000000000N
021993061289999000003034TLAURA MORSO PEREZ                                                           000000000000000000N
021993061299999000003001TJOSE MANUEL MUÑOZ PASTRANA                                                  000000000000000000N
021993061299999000003002TMANUEL CERON MONTERO                                                        000000000000000000N
021993061299999000003003TCARLOS ROMANCE FELIPE                                                       000000000000000000N
021993061299999000003004TANA REMEDIOS RUIZ GARCIA                                                    000000000000000000N
021993061299999000003005TPEDRO RUBIO PEREZ                                                           000000000000000000N
021993061299999000003006TJUAN RUIZ LOPEZ                                                             000000000000000000N
021993061299999000003007TFRANCISCA MARIA ISABEL BARRERO CONTERO                                      000000000000000000N
021993061299999000003008TMIGUEL RUIZ RUIZ                                                            000000000000000000N
021993061299999000003009TELADIO BURGOS GOMEZ                                                         000000000000000000N
021993061299999000003010TCESAR SANCHEZ CAÑIZARES                                                     000000000000000000N
021993061309999000003001TENRIQUE EGEA IBAÑEZ                                                         000000000000000000N
021993061309999000003002TANGEL MORENILLA MOYA                                                        000000000000000000N
021993061309999000003003TSUSANO RODRIGUEZ MARTINEZ                                                   000000000000000000N
021993061309999000003004TDIEGO ALFONSO GARCIA COBACHO                                                000000000000000000N
021993061309999000003005TJOSE RAMON ESCUDERO MOYA                                                    000000000000000000N
021993061309999000003006TPEDRO VILCHES PACHECO                                                       000000000000000000N
021993061309999000003007TMARIA DEL CARMEN SEGURA CARRASCO                                            000000000000000000N
021993061309999000003008TFEDERICO SANCHEZ PEREZ                                                      000000000000000000N
021993061309999000003009TJUAN PEDRO CHACON CERVANTES                                                 000000000000000000N
021993061319999000003001TJUAN JOSE OTAMENDI RODRIGUEZ BETHENCOURT                                    000000000000000000N
021993061319999000003002TLUIS ORDUÑA GAN                                                             000000000000000000N
021993061319999000003003TPEDRO ALZUETA SARASIBAR                                                     000000000000000000N
021993061319999000003004TTOMAS RUIZ MARTINEZ                                                         000000000000000000N
021993061319999000003005TMAXIMO MONASTERIO FALCON                                                    000000000000000000N
021993061329999000003001TJOSE SEARA FERNANDEZ                                                        000000000000000000N
021993061329999000003002TJOSE CARLOS ZARAGOZA GONZALEZ                                               000000000000000000N
021993061029999000004001TMARIA DEL CARMEN VALMORISCO MARTIN                                          000000000000000000N
021993061029999000004002TJOSE EDUARDO MARTINEZ VALERO                                                000000000000000000N
021993061029999000004003TMARIA SELIA PUÑAL LUCENDO                                                   000000000000000000N
021993061029999000004004TMIGUEL LUCAS PICAZO                                                         000000000000000000N
021993061139999000004001TPEDRO PABLO NOVILLO CICUENDEZ                                               000000000000000000N
021993061139999000004002TPAULA FERNANDEZ PAREJA                                                      000000000000000000N
021993061139999000004003TISIDRO SANCHEZ SANCHEZ                                                      000000000000000000N
021993061139999000004004TVIRGINIA ALVAREZ CARRERO                                                    000000000000000000N
021993061139999000004005TJOSE ANTONIO SAEZ HERNANDEZ                                                 000000000000000000N
021993061199999000004001TANGELES YAGUE GORDO                                                         000000000000000000N
021993061199999000004002TJOSE MARIA REY CUEVAS                                                       000000000000000000N
021993061199999000004003TJOSE LUIS BLANCO MORENO                                                     000000000000000000N
021993061289999000004001TJULIO ANGUITA GONZALEZ                                                      000000000000000000S
021993061289999000004002TDIEGO LOPEZ GARRIDO                                                         000000000000000000S
021993061289999000004003TFRANCISCO FRUTOS GRAS                                                       000000000000000000S
021993061289999000004004TFRANCO GONZALEZ BLAZQUEZ                                                    000000000000000000S
021993061289999000004005TMARIA DE LOS ANGELES MAESTRO MARTIN                                         000000000000000000S
021993061289999000004006TRUBEN CRUZ ORIVE                                                            000000000000000000N
021993061289999000004007TJOSE LUIS NUÑEZ CASAL                                                       000000000000000000N
021993061289999000004008TMARIA TERESA NEVADO BUENO                                                   000000000000000000N
021993061289999000004009TSUSANA LOPEZ BLANCO                                                         000000000000000000N
021993061289999000004010TMARIA BEGOÑA SAN JOSE SERRAN                                                000000000000000000N
021993061289999000004011TISABELO HERREROS MARTIN-MAESTRO                                             000000000000000000N
021993061289999000004012TENRIQUE SANTIAGO ROMERO                                                     000000000000000000N
021993061289999000004013TJULIO SETIEM MARTINEZ                                                       000000000000000000N
021993061289999000004014TCRISTINA REAL RUBIO                                                         000000000000000000N
021993061059999000002003TANA MARIA GERMAIN ESTEBANEZ                                                 000000000000000000N
021993061069999000002001TLUIS JACINTO RAMALLO GARCIA                                                 000000000000000000S
021993061069999000002002TISIDORO HERNANDEZ-SITO GARCIA-BLANCO                                        000000000000000000S
021993061069999000002003TMARIANO GALLEGO BARRERO                                                     000000000000000000N
021993061069999000002004TMARIA DEL CARMEN SERRADILLA SANTOS                                          000000000000000000N
021993061069999000002005TMARIA SOFIA CANO MONTERO                                                    000000000000000000N
021993061069999000002006TSANTIAGO MURILLO RICO                                                       000000000000000000N
021993061079999000002001TFRANCISCO GILET GIRART                                                      000000000000000000S
021993061079999000002002TMARIA LUISA CAVA DE LLANO Y CARRIO                                          000000000000000000S
021993061079999000002003TADOLFO VILAFRANCA BOSCH                                                     000000000000000000S
021993061079999000002004TJOAQUIN COTONER GOYENECHE                                                   000000000000000000S
021993061079999000002005TJOSE MARIA RODRIGUEZ BARBERA                                                000000000000000000N
021993061079999000002006TBARTOLOME BLANQUER SUREDA                                                   000000000000000000N
021993061079999000002007TABEL MATUTES JUAN                                                           000000000000000000N
021993061089999000002001TJORGE FERNANDEZ DIAZ                                                        000000000000000000S
021993061089999000002002TMANUEL MILIAN MESTRE                                                        000000000000000000S
021993061089999000002003TGUILLERMO GORTAZAR ECHEVERRIA                                               000000000000000000S
021993061089999000002004TSERGIO GOMEZ ALBA RUIZ                                                      000000000000000000S
021993061089999000002005TMARIA REYES MONTSENY MASIP                                                  000000000000000000S
021993061089999000002006TSALVADOR SANZ PALACIO                                                       000000000000000000S
021993061089999000002007TANTONIO ARDERIU FREIXA                                                      000000000000000000N
021993061089999000002008TARMANDO QUEROL GASULLA                                                      000000000000000000N
021993061089999000002009TSALVADOR TORRES CONSUEGRA                                                   000000000000000000N
021993061089999000002010TAMADOR ROSAS OUTES                                                          000000000000000000N
021993061089999000002011TGONZALO PRIETO TOUBES                                                       000000000000000000N
021993061089999000002012TJOSEP TUTUSAUS BESANTE                                                      000000000000000000N
021993061089999000002013TJORDI ANDRES GONZALEZ                                                       000000000000000000N
021993061089999000002014TMARIA DEL CARMEN MARTINEZ CARBONELL                                         000000000000000000N
021993061089999000002015TEMILIO MARZO NOVELLA                                                        000000000000000000N
021993061089999000002016TJOSE LUIS AYLLON MANSO                                                      000000000000000000N
021993061089999000002017TJUAN LOPEZ GARCIA                                                           000000000000000000N
021993061089999000002018TJOSE MENDEZ ROMEO                                                           000000000000000000N
021993061089999000002019TENRIQUE GUIU CODOL                                                          000000000000000000N
021993061089999000002020TMARIA LUISA PUGA SANCHEZ                                                    000000000000000000N
021993061089999000002021TROSARIO DE ANTA FRAILE                                                      000000000000000000N
021993061089999000002022TJUAN MONZO BERGE                                                            000000000000000000N
021993061089999000002023TMANUEL RIVAS PERALES                                                        000000000000000000N
021993061089999000002024TANTONIO ALSINA FELIP                                                        000000000000000000N
021993061089999000002025TNATALIA DE VICENTE AROLAS                                                   000000000000000000N
021993061089999000002026TCARLOS GARZON MORENO                                                        000000000000000000N
021993061089999000002027TANA MARIA TORRIJOS HERNANDEZ                                                000000000000000000N
021993061089999000002028TJOSE GIRBAU MARQUES                                                         000000000000000000N
021993061089999000002029TJAVIER PARRA ARAMENDIA                                                      000000000000000000N
021993061089999000002030TVICTOR MARTI DE VILLASANTE                                                  000000000000000000N
021993061089999000002031TMERCEDES MUÑOZ RAMONET                                                      000000000000000000N
021993061089999000002032TALEIX VIDAL-QUADRAS ROCA                                                    000000000000000000N
021993061099999000002001TJUAN CARLOS APARICIO PEREZ                                                  000000000000000000S
021993061099999000002002TGABRIEL CISNEROS LABORDA                                                    000000000000000000S
021993061099999000002003TALBERTO GALERON DE MIGUEL                                                   000000000000000000N
021993061099999000002004TANGEL GUERRA GARCIA                                                         000000000000000000N
021993061109999000002001TFELIPE CAMISON ASENSIO                                                      000000000000000000S
021993061109999000002002TRAMON AGUIRRE RODRIGUEZ                                                     000000000000000000S
021993061109999000002003TAMADOR ALVAREZ ALVAREZ                                                      000000000000000000N
021993061109999000002004TMARIA ROSARIO HONTORIA BARBERO                                              000000000000000000N
021993061109999000002005TCARLOS JAVIER FLORIANO CORRALES                                             000000000000000000N
021993061119999000002001TMARIA TEOFILA MARTINEZ SAIZ                                                 000000000000000000S
021993061119999000002002TLUIS ANGEL FERNANDEZ RODRIGUEZ                                              000000000000000000S
021993061119999000002003TALFONSO MORENO DEL CUVILLO                                                  000000000000000000S
021993061119999000002004TANTONIO SANZ CABELLO                                                        000000000000000000N
021993061119999000002005TJOSE LUIS LANDERO MATEOS                                                    000000000000000000N
021993061119999000002006TMANUELA FORJA RAMIREZ                                                       000000000000000000N
021993061119999000002007TJOSE AYALA RUIZ                                                             000000000000000000N
021993061119999000002008TJUAN DE DIOS RAYO JURADO                                                    000000000000000000N
021993061119999000002009TJUAN IGNACIO LOPEZ-ESCOBAR FERNANDEZ                                        000000000000000000N
021993061129999000002001TJUAN COSTA CLIMENT                                                          000000000000000000S
021993061129999000002002TGABRIEL ELORRIAGA FERNANDEZ                                                 000000000000000000S
021993061129999000002003TM. CARMEN PARDO RAGA                                                        000000000000000000S
021993061129999000002004TSALVADOR OLIVER FOIX                                                        000000000000000000N
021993061129999000002005TANGEL MIGUEL BARRACHINA ROS                                                 000000000000000000N
021993061139999000002001TFRANCISCO JAVIER RUPEREZ RUBIO                                              000000000000000000S
021993061139999000002002TEDUARDO RODRIGUEZ ESPINOSA                                                  000000000000000000S
021993061139999000002003TJUAN ANGEL DEL REY CASTELLANOS                                              000000000000000000N
021993061139999000002004TRAMON DEL BURGO FERNANDEZ                                                   000000000000000000N
021993061139999000002005TANGELA MARIA DE GRACIA MUÑOZ JIMENEZ                                        000000000000000000N
021993061149999000002001TDIEGO JORDANO SALINAS                                                       000000000000000000S
021993061149999000002002TJOSE MARIA ROBLES FRAGA                                                     000000000000000000S
021993061149999000002003TMARIA AMALIA SANTIAS PEREZ                                                  000000000000000000N
021993061149999000002004TANTONIO PRIETO MAHEDERO                                                     000000000000000000N
021993061149999000002005TMARIA AMELIA CARACUEL DEL OLMO                                              000000000000000000N
021993061149999000002006TENRIQUE PORRAS ESTRADA                                                      000000000000000000N
021993061149999000002007TFRANCISCO JAVIER ALVAREZ GONZALEZ                                           000000000000000000N
021993061159999000002001TAUGUSTO JOAQUIN CESAR LENDOIRO                                              000000000000000000S
021993061159999000002002TMARIA JESUS AMPARO SAINZ GARCIA                                             000000000000000000S
021993061159999000002003TARSENIO MIGUEL FERNANDEZ DE MESA DIAZ DEL RIO                               000000000000000000S
021993061159999000002004TANTONIO GOMEZ VAZQUEZ                                                       000000000000000000S
021993061159999000002005TBELEN MARIA DO CAMPO PIÑEIRO                                                000000000000000000S
021993061159999000002006TMANUEL RUIZ RIVAS                                                           000000000000000000N
021993061159999000002007TJESUS MANUEL PEREZ CORGOS                                                   000000000000000000N
021993061159999000002008THIPOLITO FARIÑAS SOBRINO                                                    000000000000000000N
021993061159999000002009TADOLFO GACIO VAZQUEZ                                                        000000000000000000N
021993061169999000002001TGERVASIO MARTINEZ-VILLASEÑOR GARCIA                                         000000000000000000S
021993061169999000002002TJOSE MADERO JARABO                                                          000000000000000000S
021993061169999000002003TMANUEL FERREROS LORENZO                                                     000000000000000000N
021993061189999000002001TANDRES OLLERO TASSARA                                                       000000000000000000S
021993061189999000002002TJOSE GABRIEL DIAZ BERBEL                                                    000000000000000000S
021993061189999000002003TBLANCA FERNANDEZ-CAPEL BAÑOS                                                000000000000000000S
021993061189999000002004TEUGENIO ENRIQUE CASTILLO JAEN                                               000000000000000000N
021993061189999000002005TJOSE CARLOS LOPEZ PEREZ                                                     000000000000000000N
021993061189999000002006TMANUEL TORRES RIVAS                                                         000000000000000000N
021993061189999000002007TCAROLINA GONZALEZ VIGO                                                      000000000000000000N
021993061199999000002001TENRIQUE FERNANDEZ-MIRANDA Y LOZANA                                          000000000000000000S
021993061409999000003002TJOSE LUIS DE PABLO ROBERTO                                                  000000000000000000N
021993061409999000003003TANTONIO CAMARA MARTIN                                                       000000000000000000N
021993061419999000003001TANTONIO ANSELMO TITOS CLARES                                                000000000000000000N
021993061419999000003002TLUIS MIGUEL PONS MORICHE                                                    000000000000000000N
021993061419999000003003TPEDRO REPULLO RUIZ DE CASTROVIEJO                                           000000000000000000N
021993061419999000003004TJOSE GABRIEL FERREIRA CABALLERO                                             000000000000000000N
021993061419999000003005TJESUS TRONCOSO GARCIA                                                       000000000000000000N
021993061419999000003006TROGELIO CALVETE GARCIA                                                      000000000000000000N
021993061419999000003007TMARIA ANGELES AGUILERA LUNA                                                 000000000000000000N
021993061419999000003008TJOSE MANUEL PEREZ VASCO                                                     000000000000000000N
021993061419999000003009TFRANCISCO SERRANO MORENO                                                    000000000000000000N
021993061419999000003010TMARCELINO CRIADO ORTIZ                                                      000000000000000000N
021993061419999000003011TMARIA JOSEFA AMOEDO PERIANES                                                000000000000000000N
021993061419999000003012TRAFAEL CARMONA RUIZ                                                         000000000000000000N
021993061429999000003001TJAIME HERNANDO SANCHEZ                                                      000000000000000000N
021993061429999000003002TSANTOS SANCHEZ SANZ                                                         000000000000000000N
021993061429999000003003TJOSE LUIS CALVO MORALES                                                     000000000000000000N
021993061439999000003001TMARIA DEL CARMEN VILLAR FERNANDEZ                                           000000000000000000N
021993061439999000003002TTEOFILO ALVAREZ PERE                                                        000000000000000000N
021993061439999000003003TPABLO PEREZ HERRERO                                                         000000000000000000N
021993061439999000003004TBLAS OLIVAN FRANCH                                                          000000000000000000N
021993061439999000003005TMARIA ROSA DELGADO GARCIA                                                   000000000000000000N
021993061439999000003006TFRANCISCO BAIXAULI PERIS                                                    000000000000000000N
021993061449999000003001TJOSE MONTON ZURIAGA                                                         000000000000000000N
021993061449999000003002TMARIA DOLORES SERRANO ALBERO                                                000000000000000000N
021993061449999000003003TCARLOS HERNANZ PEREZ                                                        000000000000000000N
021993061459999000003001TCESAR SANCHEZ ALEGRIA                                                       000000000000000000N
021993061459999000003002TALFONSA GARRIDO DIAZ                                                        000000000000000000N
021993061459999000003003TANGEL FERNANDEZ VILLAR                                                      000000000000000000N
021993061459999000003004TMARIANO PEDRO CAMBERO GARCIA                                                000000000000000000N
021993061459999000003005TRAMON REGIDOR BONET                                                         000000000000000000N
021993061479999000003001TESTEBAN RIERA DE CASO                                                       000000000000000000N
021993061479999000003002TJESUS GAMEZ MONTES                                                          000000000000000000N
021993061479999000003003TMARIA REYES RODRIGUEZ SANZ                                                  000000000000000000N
021993061479999000003004TMIGUEL ANGEL URDIALES ESCUDERO                                              000000000000000000N
021993061479999000003005TFRANCISCO JAVIER ESPINILLA CALERO                                           000000000000000000N
021993061489999000003001TJAVIER BILBAO TUDANCA                                                       000000000000000000N
021993061489999000003002TCONCEPCION ALONSO GAGO                                                      000000000000000000N
021993061489999000003003TEUGENIO FORD ALVAREZ                                                        000000000000000000N
021993061489999000003004TFELICISIMO GARCIA QUIJANO                                                   000000000000000000N
021993061489999000003005TMARCOS GONZALEZ DIAZ                                                        000000000000000000N
021993061489999000003006TJUAN JOSE MAGAÑA PEREZ                                                      000000000000000000N
021993061489999000003007TJOSE IGNACIO BELTRAN NIETO                                                  000000000000000000N
021993061489999000003008TYOLANDA GARCIA HORAS                                                        000000000000000000N
021993061489999000003009TCARLOS ORTIZ DE ZARATE Y ORTIZ DE URTARAN                                   000000000000000000N
021993061499999000003001TPEDRO SAN MARTIN RAMOS                                                      000000000000000000N
021993061499999000003002TFRANCISCO AÑEZ BARTOLOME                                                    000000000000000000N
021993061499999000003003TFRANCISCO ANTON RAPINO                                                      000000000000000000N
021993061509999000003001TMIGUEL ANGEL ROYO OLIVEROS                                                  000000000000000000N
021993061509999000003002TGONZALO PALACIOS MUR                                                        000000000000000000N
021993061509999000003003TSANTIAGO COMELLA PONS                                                       000000000000000000N
021993061509999000003004TNATALIA ALBAREZ ORTIZ                                                       000000000000000000N
021993061509999000003005TIGNACIO ORTEGA MAYNAR                                                       000000000000000000N
021993061509999000003006TENRIQUE NAVARRO VALENZUELA                                                  000000000000000000N
021993061509999000003007TCARLOS LOPEZ BETRIAN                                                        000000000000000000N
021993061519999000003001TJOSE FRANCISCO RIOS CLARO                                                   000000000000000000N
021993061529999000003001TJOSE MANUEL CALZADO PUERTAS                                                 000000000000000000N
021993061019999000003001TMANUEL FERNANDEZ ANGULO                                                     000000000000000000N
021993061019999000003002TMARIA JESUS DEL RIO RAMON                                                   000000000000000000N
021993061019999000003003TSALVADOR RIO ALVAREZ                                                        000000000000000000N
021993061019999000003004TMARIA DOLORES ECHEVARRIA DAUBAGNA                                           000000000000000000N
021993061029999000003001TMANUEL PRUDENCIO MARTINEZ GOMEZ                                             000000000000000000N
021993061029999000003002TMARIA JESUS MUÑOZ ESCRIBANO                                                 000000000000000000N
021993061029999000003003TJESUS PATERNA MOROTE                                                        000000000000000000N
021993061029999000003004TFERNANDO DE LA CRUZ GARCIA CESPEDES                                         000000000000000000N
021993061039999000003001TVICENTE BUADES NAVARRO                                                      000000000000000000N
021993061039999000003002TEDUARDO MONFORT BOLUFER                                                     000000000000000000N
021993061039999000003003TANTONIA MARTINEZ SOLER                                                      000000000000000000N
021993061039999000003004TGODOFREDO FOLGADO GARCIA                                                    000000000000000000N
021993061039999000003005TMANUEL SANCHEZ DE PACO                                                      000000000000000000N
021993061039999000003006TVICENTA ALVAREZ ARNAU                                                       000000000000000000N
021993061039999000003007TJOAQUIN MARSET BROTONS                                                      000000000000000000N
021993061039999000003008TANTONIO CASCALES NIETO                                                      000000000000000000N
021993061039999000003009TJOSE MIGUEL GIRONA GONZALEZ                                                 000000000000000000N
021993061039999000003010TMARIA NIEVES PEREZ ASENSI                                                   000000000000000000N
021993061049999000003001TJOAQUIN GUSTAVO RUBIRA RAMON                                                000000000000000000N
021993061049999000003002TANTONIO PINTOR LOPEZ                                                        000000000000000000N
021993061049999000003003TDIEGO SANCHEZ LOPEZ                                                         000000000000000000N
021993061049999000003004TJUAN FERNANDEZ CABEZAS                                                      000000000000000000N
021993061049999000003005TALBERTO GARCIA DENGRA                                                       000000000000000000N
021993061059999000003001TJOSE RAMON CASO GARCIA                                                      000000000000000000N
021993061059999000003002TALFREDO BARRANCO MORENO                                                     000000000000000000N
021993061059999000003003TANA MORENO RODRIGUEZ                                                        000000000000000000N
021993061069999000003001TJUAN JOSE SIERRA ROMERO                                                     000000000000000000N
021993061069999000003002TJOSE LUIS VELILLA SANZ                                                      000000000000000000N
021993061069999000003003TANTONIO PORRAS FERNANDEZ                                                    000000000000000000N
021993061069999000003004TJOSE TENA MUÑOZ                                                             000000000000000000N
021993061069999000003005TEULALIA CHAPARRO DORADO                                                     000000000000000000N
021993061069999000003006TGREGORIO CEBRIAN BERROCAL                                                   000000000000000000N
021993061079999000003001TMARIA ANTONIA ALEÑAR PUJADAS                                                000000000000000000N
021993061079999000003002TANTONIO ANGLADA ANGLADA                                                     000000000000000000N
021993061079999000003003TESTEBAN MONJO FORNES                                                        000000000000000000N
021993061079999000003004TMIGUEL CARRERAS TORRENT                                                     000000000000000000N
021993061079999000003005TPABLO JOVER GINART                                                          000000000000000000N
021993061079999000003006TJUAN FRANCH SERRA                                                           000000000000000000N
021993061079999000003007TJUAN MARIA MULET ESTRANY                                                    000000000000000000N
021993061089999000003001TFERNANDO JOSE GARCIA FRUCTUOSO                                              000000000000000000N
021993061089999000003002TRAMIRO LOPEZ LOPEZ                                                          000000000000000000N
021993061089999000003003TJESUS VARELA MANUBENS                                                       000000000000000000N
021993061089999000003004TCARLOS GALDEANO SOLER                                                       000000000000000000N
021993061089999000003005TPEDRO LOCUBICHE RIDAO                                                       000000000000000000N
021993061089999000003006TADELA CANELA MORA                                                           000000000000000000N
021993061089999000003007TANTONIO DEL VAL CUCURULL                                                    000000000000000000N
021993061089999000003008TELIAS LABRADOR MANONELLAS                                                   000000000000000000N
021993061089999000003009TAMADEU MURIA I GINE                                                         000000000000000000N
021993061089999000003010TANDRES PARDO GARCIA                                                         000000000000000000N
021993061089999000003011TCARMEN VILA NANTES                                                          000000000000000000N
021993061089999000003012TJOSE MANUEL GARCIA BUENAGA                                                  000000000000000000N
021993061089999000003013TANGEL HERREROS ALFARO                                                       000000000000000000N
021993061089999000003014TANGEL MARCOS MARTIN                                                         000000000000000000N
021993061089999000003015TJOSEP MARTI ESTUBLIER                                                       000000000000000000N
021993061089999000003016TMARIA VICTORIA PASTOR BIOT                                                  000000000000000000N
021993061089999000003017TFRANCISCO BORREGA ROMERO                                                    000000000000000000N
021993061089999000003018TFRANCISCO JAVIER ASO ROCA                                                   000000000000000000N
021993061089999000003019TPLACIDO ROMERO GOMEZ                                                        000000000000000000N
021993061089999000003020TPASCUAL ORTEGA FERNANDEZ                                                    000000000000000000N
021993061089999000003021TMANUEL BERLANGA REPULLO                                                     000000000000000000N
021993061089999000003022TJUAN FRANCISCO GIRO VELAZQUEZ                                               000000000000000000N
021993061089999000003023TMANUEL PARDO GARCIA                                                         000000000000000000N
021993061089999000003024TFRANCISCO MANUEL RODRIGUEZ BLANCO                                           000000000000000000N
021993061089999000003025TANA MARIA CUSCO SEGARRA                                                     000000000000000000N
021993061089999000003026TISIDRO JESUS GUERRERO GUARDIOLA                                             000000000000000000N
021993061089999000003027TALFONSO MENASALVAS MAYORGA                                                  000000000000000000N
021993061089999000003028TJESUS RUIZ RUIZ                                                             000000000000000000N
021993061089999000003029TJOSE ORTIZ SERRULLA                                                         000000000000000000N
021993061089999000003030TJUAN NAVARRET CASTELLANO                                                    000000000000000000N
021993061089999000003031TMARIA DOLORES MUÑOZ ESPINO                                                  000000000000000000N
021993061089999000003032TJOSE REINA BAENA                                                            000000000000000000N
021993061099999000003001TANTONIO VALVERDE ORTEGA                                                     000000000000000000N
021993061099999000003002TVICENTE SANTIAGO JAVIER PEREZ DE LA TORRE                                   000000000000000000N
021993061099999000003003TPABLO SEVILLA RODRIGUEZ                                                     000000000000000000N
021993061099999000003004TJULIAN ALTABLE VICARIO                                                      000000000000000000N
021993061109999000003001TMACARIO HERRERA MUÑOZ                                                       000000000000000000N
021993061109999000003002TJUAN MANUEL GUTIERREZ GARCIA                                                000000000000000000N
021993061109999000003003TMARIA VICTORIA VILLALBA SANTACRUZ                                           000000000000000000N
021993061109999000003004TJESUS MUÑOZ PASCUAL                                                         000000000000000000N
021993061109999000003005TILDEFONSO LOPEZ HERRERO                                                     000000000000000000N
021993061119999000003001TPABLO ROMAN RODRIGUEZ                                                       000000000000000000N
021993061119999000003002TJUAN DE DIOS REGORDAN DOMINGUEZ                                             000000000000000000N
021993061119999000003003TFRANCISCO RODRIGUEZ GUISADO                                                 000000000000000000N
021993061119999000003004TMANUEL CHOZAS RIVERA                                                        000000000000000000N
021993061119999000003005TRAMON ASTORGA LOPEZ                                                         000000000000000000N
021993061119999000003006TALONSO VARO MALIA                                                           000000000000000000N
021993061119999000003007TPILAR ORELLANA DE MOLINA                                                    000000000000000000N
021993061119999000003008TJOSE MIGUEL MONTAÑES FERNANDEZ                                              000000000000000000N
021993061119999000003009TRAFAEL VAZQUEZ SAEZ                                                         000000000000000000N
021993061129999000003001TCARLOS LAGUNA ASENSI                                                        000000000000000000N
021993061129999000003002TANGEL SOLSONA MONTON                                                        000000000000000000N
021993061129999000003003TFRANCISCO DE LA RUBIA DE LA RUBIA                                           000000000000000000N
021993061129999000003004TROSA ROS PONS                                                               000000000000000000N
021993061129999000003005TJUAN JOSE COSTA ALBA                                                        000000000000000000N
021993061139999000003001TRAMON ALEN VAZQUEZ                                                          000000000000000000N
021993061139999000003002TVICENTE GALLEGO ASENSIO                                                     000000000000000000N
021993061139999000003003TJOSE ANTONIO CALVO BABIANO                                                  000000000000000000N
021993061139999000003004TSINFOROSO FERNANDEZ-CAMUÑAS CALERO                                          000000000000000000N
021993061139999000003005TANTONIO SALOMON LIZCANO                                                     000000000000000000N
021993061149999000003001TANTONIO JOSE DELGADO DE JESUS                                               000000000000000000N
021993061149999000003002TANDRES GOMEZ MISA                                                           000000000000000000N
021993061149999000003003TJAVIER MARTINEZ RUIZ                                                        000000000000000000N
021993061149999000003004TALICIA ALCONCHEL CABEZAS                                                    000000000000000000N
021993061149999000003005TMIGUEL LUQUE MARIN                                                          000000000000000000N
021993061149999000003006TSERGIO JOSE GONZALEZ AGUILERA                                               000000000000000000N
021993061149999000003007TFCO. MARTINEZ FERNANDEZ-PACHECO                                             000000000000000000N
021993061119999000006002TJOSE LUIS ANTOLIN DE ANTONIO                                                000000000000000000N
021993061119999000006003TJUAN CASTELLS TRUJILLO                                                      000000000000000000N
021993061119999000006004TJOSE ANGEL REINA MARTINEZ                                                   000000000000000000N
021993061119999000006005TJOSE MANUEL MARQUEZ MOLERO                                                  000000000000000000N
021993061119999000006006TJOSE GOMEZ POO                                                              000000000000000000N
021993061119999000006007TANTONIA GONZALEZ MACHO                                                      000000000000000000N
021993061119999000006008TJOSE MANUEL RUIZ VELA                                                       000000000000000000N
021993061119999000006009TANTONIO LUIS TRUJILLO CASTRO                                                000000000000000000N
021993061129999000006001TRAFAEL CABELLO FERRERA                                                      000000000000000000N
021993061129999000006002TVICENTE ALMENAR ROCATI                                                      000000000000000000N
021993061129999000006003TCANDIDA ORTIZ ORTIZ                                                         000000000000000000N
021993061129999000006004TFRANCISCO MARTINEZ SOLER                                                    000000000000000000N
021993061129999000006005TVICENTE MONTALT BADIA                                                       000000000000000000N
021993061149999000006001TFRANCISCO ANTONIO RAMIREZ VERDU                                             000000000000000000N
021993061149999000006002TFRANCISCO SANCHEZ JIMENEZ                                                   000000000000000000N
021993061149999000006003TMARIA DOLORES TRONCOSO SANCHEZ                                              000000000000000000N
021993061149999000006004TGABRIEL LOZANO CANSINO                                                      000000000000000000N
021993061149999000006005TJOSE ANTONIO CARRION TORRES                                                 000000000000000000N
021993061149999000006006TJOSE LUIS BUSTOS JIMENEZ                                                    000000000000000000N
021993061149999000006007TLUIS BUGELLA GOMEZ                                                          000000000000000000N
021993061189999000006001TCESAR NAVEROS GOMEZ                                                         000000000000000000N
021993061189999000006002TMARIA DEL CARMEN SUAREZ PERAL                                               000000000000000000N
021993061189999000006003TJOSE MIGUEL ALVAREZ MARTIN                                                  000000000000000000N
021993061189999000006004TMARIA DEL MAR SOLIS SANCHEZ                                                 000000000000000000N
021993061189999000006005TANTONIO ARANDA LOPEZ                                                        000000000000000000N
021993061189999000006006TNATIVIDAD SOLIS SANCHEZ                                                     000000000000000000N
021993061189999000006007TMARGARITA FERNANDEZ MATEOS                                                  000000000000000000N
021993061199999000006001TENRIQUE RUIZ RUIZ                                                           000000000000000000N
021993061199999000006002TPATROCINIO CASTAÑEDA ALVAREZ                                                000000000000000000N
021993061199999000006003TJUANA LUNA MAYADO                                                           000000000000000000N
021993061219999000006001TRAMON PEREZ CONDE                                                           000000000000000000N
021993061219999000006002TJOSE ENRIQUE SOLIS MURIEL                                                   000000000000000000N
021993061219999000006003TANA MARIA GARCIA SANCHEZ                                                    000000000000000000N
021993061219999000006004TDOMINGO RODRIGUEZ NAVARRO                                                   000000000000000000N
021993061219999000006005TMARIA JESUS JIMENEZ ALBA                                                    000000000000000000N
021993061239999000006001TMANUEL MIGUEL CARO GABUCIO                                                  000000000000000000N
021993061239999000006002TJOSE MANUEL CUBERO GARCIA                                                   000000000000000000N
021993061239999000006003TPEDRO MANUEL SERRANO PEREZ                                                  000000000000000000N
021993061239999000006004TFRANCISCO JAVIER CARRASCOSA SALGUERO                                        000000000000000000N
021993061239999000006005TALFREDO GOMEZ INFANTES                                                      000000000000000000N
021993061239999000006006TJUAN ANTONIO LEIVA ESPINO                                                   000000000000000000N
021993061249999000006001TMATIAS DIEZ CACHON                                                          000000000000000000N
021993061249999000006002TRAFAEL CARNERO RODRIGUEZ                                                    000000000000000000N
021993061249999000006003TJAIME CARRO SANTIN                                                          000000000000000000N
021993061249999000006004TANIBAL RODRIGUEZ GARCIA                                                     000000000000000000N
021993061249999000006005TJOSE LUIS RODRIGUEZ DE BERBERIA                                             000000000000000000N
021993061289999000006001TRAFAEL MUÑIZ GARCIA                                                         000000000000000000N
021993061289999000006002TANTONIO DE VALENTIN RUBIO                                                   000000000000000000N
021993061289999000006003TJESUS LOPEZ MARTINEZ                                                        000000000000000000N
021993061289999000006004TJOSE MANUEL PEREZ NOGUEROLES                                                000000000000000000N
021993061289999000006005TMARIA DEL CAMINO CARRILLO IGLESIAS                                          000000000000000000N
021993061289999000006006TEMILIO POY PEREZ                                                            000000000000000000N
021993061289999000006007TFRANCISCO IGLESIAS DIEZ                                                     000000000000000000N
021993061289999000006008TISABEL PEREZ HERNANDO                                                       000000000000000000N
021993061289999000006009TJULIO SANCHEZ DE LAS MATAS SANZ                                             000000000000000000N
021993061289999000006010TMANUEL CARLON URIEN                                                         000000000000000000N
021993061289999000006011TM. DEL CAMINO IGLESIAS GARCIA                                               000000000000000000N
021993061289999000006012TANTONINO GONZALEZ CARRASCO                                                  000000000000000000N
021993061289999000006013TJULIA RODRIGUEZ MARTOS                                                      000000000000000000N
021993061289999000006014TPILAR FONBELLIDA SAMANIEGO                                                  000000000000000000N
021993061289999000006015TEMILIO POY BIURRUN                                                          000000000000000000N
021993061289999000006016TALBERTO JOSE GOMEZ VAQUERO                                                  000000000000000000N
021993061289999000006017TJOAQUIN YAGUE GARATE                                                        000000000000000000N
021993061289999000006018TJUAN ANTONIO SANCHEZ DE LAS MATAS SANZ                                      000000000000000000N
021993061289999000006019TMARIA NIEVES GARCIA LABAJOS                                                 000000000000000000N
021993061289999000006020TGRACIANO PACHECA HERNANDEZ                                                  000000000000000000N
021993061289999000006021TAMADOR ARRIAGA GARCIA                                                       000000000000000000N
021993061289999000006022TJOAQUIN JOSE CARRILLO IGLESIAS                                              000000000000000000N
021993061289999000006023TTOMAS CASTRO GONZALEZ                                                       000000000000000000N
021993061289999000006024TELVIRA ARAU GIMENEZ                                                         000000000000000000N
021993061289999000006025TJESUS MALDONADO PICON                                                       000000000000000000N
021993061289999000006026TFRANCISCO SANZ CANO                                                         000000000000000000N
021993061289999000006027TGERMAN SALCEDO BLAZQUEZ                                                     000000000000000000N
021993061289999000006028TBALBINO LOPEZ SOLANO                                                        000000000000000000N
021993061289999000006029TJOSE M. TAMAYO COLLADO                                                      000000000000000000N
021993061289999000006030TJOSE LUIS GONZALEZ SERRANO                                                  000000000000000000N
021993061289999000006031TFRANCISCO JAVIER ANDUJAR ANGEL                                              000000000000000000N
021993061289999000006032TFERNANDO LUNA MALLADO                                                       000000000000000000N
021993061289999000006033TCONSUELO MARTINEZ GALLEGO                                                   000000000000000000N
021993061289999000006034TFILEMON PRADO MORENO                                                        000000000000000000N
021993061299999000006001TFRANCISCO ORTIZ LOZANO                                                      000000000000000000N
021993061159999000003001TJOSE ALEJANDRO SALGADO SANCHEZ                                              000000000000000000N
021993061159999000003002TPEDRO TASENDE ANTELO                                                        000000000000000000N
021993061159999000003003TFERNANDO AGUSTIN LAGO LORENZO                                               000000000000000000N
021993061159999000003004TMANUEL JOSE OUTES TRILLO                                                    000000000000000000N
021993061159999000003005TJESUS SANCHEZ REY                                                           000000000000000000N
021993061159999000003006TELIAS MONTERO AGRA                                                          000000000000000000N
021993061159999000003007TPATRICIA ALBO VILLARREAL                                                    000000000000000000N
021993061159999000003008TCARLOS CANDAMIO LAGO                                                        000000000000000000N
021993061159999000003009TJUAN MANUEL BAÑOBRE CASTRO                                                  000000000000000000N
021993061169999000003001TRAFAEL ROMERO URIBES                                                        000000000000000000N
021993061169999000003002TPEDRO ANTONIO FUENTES REAL                                                  000000000000000000N
021993061169999000003003TANGEL ORTIZ MARTINEZ                                                        000000000000000000N
021993061189999000003001TLUCIANO FERNANDEZ ALBA                                                      000000000000000000N
021993061189999000003002TANTONIO HERRERA ESTEVEZ                                                     000000000000000000N
021993061189999000003003TCARMEN MEDINA MARTOS                                                        000000000000000000N
021993061189999000003004TJAVIER ENRIQUE ARQUES LLORENS                                               000000000000000000N
021993061189999000003005TPEDRO MUNUERA OGALLA                                                        000000000000000000N
021993061189999000003006TDOLORES ORTEGA FERNANDEZ                                                    000000000000000000N
021993061189999000003007TJUAN JOSE GONZALEZ RUS                                                      000000000000000000N
021993061199999000003001TJULIAN LAGUNA MARTINEZ                                                      000000000000000000N
021993061049999000006002TFRANCISCO ORTEGA PEÑAS                                                      000000000000000000N
021993061049999000006003TMANUEL GARCIA MONTILLA                                                      000000000000000000N
021993061049999000006004TANA GARCIA LATORRE                                                          000000000000000000N
021993061049999000006005TMANUEL FERNANDEZ RIVERA                                                     000000000000000000N
021993061089999000006001TENRIQUE CARO MUELA                                                          000000000000000000N
021993061089999000006002TBERNARDO RAMOS QUERO                                                        000000000000000000N
021993061089999000006003TANA LUISA RODRIGUEZ QUINTANILLA                                             000000000000000000N
021993061089999000006004TAGUSTIN SANCHEZ MARTINEZ                                                    000000000000000000N
021993061089999000006005TTOMAS IZQUIERDO PAREDES                                                     000000000000000000N
021993061089999000006006TFRANCISCO LOPEZ MARTINEZ                                                    000000000000000000N
021993061089999000006007TDANIEL SENSERRICH MARCOS                                                    000000000000000000N
021993061089999000006008TROBERTO JUAN AUSEJO                                                         000000000000000000N
021993061089999000006009TJORGE XIOL MARTIN                                                           000000000000000000N
021993061089999000006010TTRINIDAD GONZALEZ FERNANDEZ                                                 000000000000000000N
021993061089999000006011TMANUEL BELLMUNT RATIA                                                       000000000000000000N
021993061089999000006012TLAUREANO MENDOZA CONDE                                                      000000000000000000N
021993061089999000006013TLUIS VAZQUEZ GONZALEZ                                                       000000000000000000N
021993061089999000006014TJOSE ARNAU PI                                                               000000000000000000N
021993061089999000006015TJORGE LOPEZ PUNTAS                                                          000000000000000000N
021993061089999000006016TJOSE ANTONIO BECARES GIL                                                    000000000000000000N
021993061089999000006017TVIRTUDES LOPEZ PUNTAS                                                       000000000000000000N
021993061089999000006018TCARLOS DEMICHELI NAVARRO                                                    000000000000000000N
021993061089999000006019TANDRES LOPEZ MORENO                                                         000000000000000000N
021993061089999000006020TFRANCISCO AMAT BORRULL                                                      000000000000000000N
021993061089999000006021TJESUS LOPEZ MARTIN                                                          000000000000000000N
021993061089999000006022TCARLOS JIMENEZ RODRIGUEZ                                                    000000000000000000N
021993061089999000006023TANTONIO JIMENEZ SANCHEZ                                                     000000000000000000N
021993061089999000006024TFRANCISCA DELGADO RIO                                                       000000000000000000N
021993061089999000006025TCARLOS JIMENEZ SANCHEZ                                                      000000000000000000N
021993061089999000006026TJUAN FERNANDEZ LLAMAS                                                       000000000000000000N
021993061089999000006027TSONIA RAMOS QUERO                                                           000000000000000000N
021993061089999000006028TMANUEL FER. MARCOS RIVERO                                                   000000000000000000N
021993061089999000006029TIGNACIO MARTINEZ ALONSO                                                     000000000000000000N
021993061089999000006030TJUAN RIPOLL NAVES                                                           000000000000000000N
021993061089999000006031TVICENTE GUETO RUIZ DE ADANA                                                 000000000000000000N
021993061089999000006032TALFREDO ARROYO BRAVO                                                        000000000000000000N
