021989101199999000015002TENRIQUE GONZALEZ CERRADA                                                    000000000000000000N
021989101199999000015003TJOSE MANUEL MORENO DIAZ                                                     000000000000000000N
021989101209999000015001TLUIS ISABEL MORALES                                                         000000000000000000N
021989101209999000015002TIGNACIO BUSTOS GARCIA                                                       000000000000000000N
021989101209999000015003TJUAN FRANCISCO BONILLA ESPINOSA                                             000000000000000000N
021989101469999000014007TMARIA CARMEN ROIG MARTINEZ                                                  000000000000000000N
021989101469999000014008TMARIA JOSE SAYAS JIMENEZ                                                    000000000000000000N
021989101469999000014009TALFONSO DOMINGUEZ GENTO                                                     000000000000000000N
021989101469999000014010TMARIA DEL CONSUELO SABATER LLACER                                           000000000000000000N
021989101469999000014011TOVIDIO PALOMARES GARCIA                                                     000000000000000000N
021989101469999000014012TMARIA TERESA NARANJO ROCA                                                   000000000000000000N
021989101469999000014013TRAFAEL BESES MIGUEL                                                         000000000000000000N
021989101469999000014014TANGELA LEON CANOVAS                                                         000000000000000000N
021989101469999000014015TANTONIO SANTAMARIA CREO                                                     000000000000000000N
021989101469999000014016TMARIA CARMEN RAMIREZ FERNANDEZ                                              000000000000000000N
021989101499999000014001TFRANCISCO JAVIER GONZALEZ HERNANDEZ                                         000000000000000000N
021989101499999000014002TINMACULADA MARIA PAZ FELIPE SANCHEZ                                         000000000000000000N
021989101499999000014003TMARIA ELENA LIVIANOS GONZALEZ                                               000000000000000000N
021989101509999000014001TCLARA R REBOLLEDO GAUDES                                                    000000000000000000N
021989101509999000014002TMARIA JESUS PEREZ ESTEBAN                                                   000000000000000000N
021989101509999000014003TJUSTO MOLINA RODRIGUEZ                                                      000000000000000000N
021989101419999000025003TANTONIO ORTEGA GARCIA                                                       000000000000000000N
021989101419999000025004TJOSE TOMAS PEREZ VILLAR                                                     000000000000000000N
021989101419999000025005TMARCELINO FERNANDEZ PIÑON                                                   000000000000000000N
021989101419999000025006TMARIA ANGELES FERNANDEZ LUNA                                                000000000000000000N
021989101419999000025007TJULIAN ALVAREZ ORTEGA                                                       000000000000000000N
021989101419999000025008TJUAN ORTEGA PEREZ                                                           000000000000000000N
021989101419999000025009TMARIA PILAR LOPEZ MARTIN                                                    000000000000000000N
021989101419999000025010TJUAN PANTION RODRIGUEZ                                                      000000000000000000N
021989101419999000025011TFRANCISCO AMADOR TIRADO                                                     000000000000000000N
021989101419999000025012TDIEGO DE LOS SANTOS LOPEZ                                                   000000000000000000N
021989101049999000025001TESTANISLAO ESTELLER VICIANA                                                 000000000000000000N
021989101049999000025002TMARIA ENCARNACION CRUZ MATILLA                                              000000000000000000N
021989101049999000025003TMIGUEL FERNANDO GARCES TERCERO                                              000000000000000000N
021989101049999000025004TANTONIO NICOLAS GONZALEZ PARRA                                              000000000000000000N
021989101049999000025005TFERNANDO MOLERO GARZON                                                      000000000000000000N
021989101119999000025001TANTONIO MORENO OLMEDO                                                       000000000000000000S
021989101149999000024003TPEDRO MOYA MILANES                                                          000000000000000000S
021989101149999000024004TCARMEN DEL CAMPO CASASUS                                                    000000000000000000S
021989101149999000024005TANGUSTIAS CONTRERAS VILLAR                                                  000000000000000000S
021989101149999000024006TMARIA ISABEL ANTONIA FLORES FERNANDEZ                                       000000000000000000N
021989101149999000024007TJUAN CASTELLANO CAMARA                                                      000000000000000000N
021989101189999000024001TANGEL DIAZ SOL                                                              000000000000000000S
021989101189999000024002TANTONIO JARA ANDREU                                                         000000000000000000S
021989101189999000024003TFRANCISCO JAVIER VALLS GARCIA                                               000000000000000000S
021989101189999000024004TFRANCISCA PLEGUEZUELOS AGUILAR                                              000000000000000000S
021989101189999000024005TMARIANO GUTIERREZ TERRON                                                    000000000000000000N
021989101189999000024006TMARIA ISABEL RODRIGUEZ CALVO                                                000000000000000000N
021989101189999000024007TFRANCISCO DE PAULA LOMBARDO ENRIQUEZ                                        000000000000000000N
021989101219999000024001TCARLOS NAVARRETE MERINO                                                     000000000000000000S
021989101219999000024002TJENARO GARCIA-ARRECIADO BATANERO                                            000000000000000000S
021989101219999000024003TJAIME JAVIER BARRERO LOPEZ                                                  000000000000000000S
021989101219999000024004TDOMINGO PRIETO GARCIA                                                       000000000000000000S
021989101429999000050003TJUAN ANGEL RUIZ REVILLA                                                     000000000000000000N
021989101479999000050001TMARCELINO GONZALO PIEDRAHITA                                                000000000000000000N
021989101479999000050002TCESAR ALVAREZ CANTERO                                                       000000000000000000N
021989101479999000050003TFLORENCIA JIMENEZ HIDALGO                                                   000000000000000000N
021989101479999000050004TJUAN ANTONIO SANZ VELASCO                                                   000000000000000000N
021989101479999000050005TJOSE ANTONIO GONZALEZ RODRIGUEZ                                             000000000000000000N
021989101249999000051001TFRANCISCO IGLESIAS CARREÑO                                                  000000000000000000N
021989101249999000051002TJOSE CAYETANO RODRIGUEZ DE CASTRO                                           000000000000000000N
021989101249999000051003TALFREDO RUBIO RAMOS                                                         000000000000000000N
021989101249999000051004TLUIS MANUEL ESTEBAN GUTIERREZ                                               000000000000000000N
021989101249999000051005TPEDRO MAXIMO DIEZ OREJAS                                                    000000000000000000N
021989101379999000051001TMIGUEL ANGEL DIEGO NUÑEZ                                                    000000000000000000N
021989101379999000051002TMARCELINO GARCIA MORENO                                                     000000000000000000N
021989101379999000051003TJOSE LUIS VAZQUEZ REGALADO                                                  000000000000000000N
021989101379999000051004TFRANCISCO JAVIER VIDAL HERNANDEZ                                            000000000000000000N
021989101499999000051001TMANUELA IGLESIAS CARREÑO                                                    000000000000000000N
021989101089999000016029TJUAN SOLA GONZALEZ                                                          000000000000000000N
021989101089999000016030TELOISA MORCILLO FERNANDEZ                                                   000000000000000000N
021989101089999000016031TMONTSERRAT ORTIZ MARTINEZ                                                   000000000000000000N
021989101089999000016032TLEONIDES ALBA BENITO                                                        000000000000000000N
021989101129999000016001TANGEL SERRANO MOLINA                                                        000000000000000000N
021989101129999000016002TJOAQUIN DEL PRADO TENA                                                      000000000000000000N
021989101129999000016003TFEDERICO BIXQUERT BLANES                                                    000000000000000000N
021989101129999000016004TMARIA ANA TOMAS CALERO                                                      000000000000000000N
021989101129999000016005TFRANCISCA OLIVA DE LA OLIVA                                                 000000000000000000N
021989101159999000016001TCONSTANTINO TRILLO VARELA                                                   000000000000000000N
021989101159999000016002TFERNANDO LUIS RAMOS ARMESTO                                                 000000000000000000N
021989101159999000016003TMIGUEL ANGEL RIOS TORRE                                                     000000000000000000N
021989101159999000016004TLUIS BOUZA COLLADO                                                          000000000000000000N
021989101159999000016005TMARGARITA CASTRO BOGO                                                       000000000000000000N
021989101159999000016006TJOSE GANDARA ROZAS                                                          000000000000000000N
021989101159999000016007TJOSE MANUEL CASTRO SANDE                                                    000000000000000000N
021989101469999000015002TMARIA ISABEL CABALLERO GRANERO                                              000000000000000000N
021989101469999000015003TMARIA DEL MAR NUÑEZ DE LAS HERAS                                            000000000000000000N
021989101469999000015004TFRANCISCO CORREA ARMERO                                                     000000000000000000N
021989101469999000015005TMARIA CRUZ DEL OLMO REINOSO                                                 000000000000000000N
021989101469999000015006TLEANDRO VIDAL BERNAL                                                        000000000000000000N
021989101469999000015007TMARIA DEL CARMEN RIEZU RIEZU                                                000000000000000000N
021989101469999000015008TJUAN MANUEL LOPEZ FRANCO                                                    000000000000000000N
021989101469999000015009TANDREA HERNANDEZ DIEZ                                                       000000000000000000N
021989101469999000015010TLUCIA ALFANJARIN MOR                                                        000000000000000000N
021989101469999000015011TJAVIER MATAIX CABRERA                                                       000000000000000000N
021989101469999000015012TJAVIER RUIZ CABALLO                                                         000000000000000000N
021989101469999000015013TJOSE ANTONIO NAVARRO ALFANJARIN                                             000000000000000000N
021989101469999000015014TMIGUEL ANGEL LONGAS ALONSO                                                  000000000000000000N
021989101469999000015015TANTONIO GARCIA GONZALEZ                                                     000000000000000000N
021989101469999000015016TANTONIO LARA GARCIA                                                         000000000000000000N
021989101479999000015001TRAFAEL COLLANTES NUÑEZ                                                      000000000000000000N
021989101419999000022012TFRANCISCO PUERTAS SANCHEZ                                                   000000000000000000N
021989101049999000023001TMARIA ISABEL RODRIGUEZ VIZCAINO (PCA)                                       000000000000000000N
021989101049999000023002TJUAN CARMONA INFANTES (PASOC)                                               000000000000000000N
021989101049999000023003TJOSE LUIS SUAREZ MUYOR (PCA)                                                000000000000000000N
021989101049999000023004TGLORIA MARIA GAGO VAZQUEZ (PASOC)                                           000000000000000000N
021989101049999000023005TENRIQUE PEÑA ROMERA (PCA)                                                   000000000000000000N
021989101119999000023001TJERONIMO ANDREU ANDREU (PCA-PCE)                                            000000000000000000S
021989101119999000023002TMARIA JULIA HIDALGO DE ARGUESO (PCA-PCE)                                    000000000000000000N
021989101119999000023003TELENA SANTIAGO MUÑOZ (PASOC)                                                000000000000000000N
021989101119999000023004TSEBASTIAN GONZALEZ BARROSO (INDEPENDIENTE)                                  000000000000000000N
021989101119999000023005TJOSE MANUEL FERNANDEZ TRILLO (PCA-PCE)                                      000000000000000000N
021989101119999000023006TLUIS GONZALEZ VAZQUEZ (PCA-PCE)                                             000000000000000000N
021989101119999000023007TANDRES JAVIER DEL RIO ALCANTARA (PCA-PCE)                                   000000000000000000N
021989101119999000023008TJESUS MARIA GARGALLO MARTINEZ (INDEPENDIENTE)                               000000000000000000N
021989101119999000023009TFRANCISCA ROSADO VILLAGRAN (INDEPENDIENTE)                                  000000000000000000N
021989101289999000021012TCARLOS RELAÑO GARCIA                                                        000000000000000000N
021989101289999000021013TSERGIO ARCHAGA SIERRA                                                       000000000000000000N
021989101289999000021014TMARTA MARIA HIDALGO IGLESIAS                                                000000000000000000N
021989101289999000021015TANTONIO NOGUERA MATEOS                                                      000000000000000000N
021989101289999000021016TFELIPE SAMPER MUÑOZ                                                         000000000000000000N
021989101289999000021017TJOSE LLORA MANZANERA                                                        000000000000000000N
021989101289999000021018TANTONIO PERTEGAZ GARCIA                                                     000000000000000000N
021989101289999000021019TFRANCISCO LATORRE ROYO                                                      000000000000000000N
021989101289999000021020TMIGUEL ASENSIO GIL                                                          000000000000000000N
021989101289999000021021TCARMEN MAÑEZ BIELSA                                                         000000000000000000N
021989101289999000021022TANGEL CEBRIAN GIMENO                                                        000000000000000000N
021989101289999000021023TMIGUEL LLORA MARTIN                                                         000000000000000000N
021989101289999000021024TFEDERICO SENDER GIL                                                         000000000000000000N
021989101289999000021025TMANUEL GOMEZ MORRO                                                          000000000000000000N
021989101289999000021026TVICENTE GARCIA PEÑA                                                         000000000000000000N
021989101289999000021027TVICENTE MANZANERA SIMON                                                     000000000000000000N
021989101289999000021028TJOSE AZNAR GOMEZ                                                            000000000000000000N
021989101289999000019025TELADIO FERNANDEZ PADURA                                                     000000000000000000N
021989101289999000019026TJAVIER CID SICLUNA                                                          000000000000000000N
021989101289999000019027TFRANCISCO DE BORJA URIZARBARRENA VIANA                                      000000000000000000N
021989101289999000019028TGENARO RODRIGO AGUDO                                                        000000000000000000N
021989101289999000019029TCLARA ISABEL DUQUE NUÑEZ                                                    000000000000000000N
021989101289999000019030TMIGUEL LOPEZ MARQUES                                                        000000000000000000N
021989101289999000019031TOSCAR RODRIGO CORROCHANO                                                    000000000000000000N
021989101289999000019032TANA MARIA GUZMAN PAULETE                                                    000000000000000000N
021989101289999000019033TCARLOS CARMENA MIGUEL                                                       000000000000000000N
021989101419999000019001TMANUEL POLO OLIVA                                                           000000000000000000N
021989101419999000019002TMARIA DEL CARMEN RECIO HEREDIA                                              000000000000000000N
021989101419999000019003TFRANCISCO JAVIER BEJAR VILLEGAS                                             000000000000000000N
021989101419999000019004TJOSE CASTILLA CAÑETE                                                        000000000000000000N
021989101419999000019005TFRANCISCA CALVO LIÑAN                                                       000000000000000000N
021989101419999000019006TMARIA LUISA DE LOS SANTOS RENDON                                            000000000000000000N
021989101419999000019007TCARMEN RUIZ GARCIA                                                          000000000000000000N
021989101419999000019008TJOSE MANUEL CASCALES GALVEZ                                                 000000000000000000N
021989101289999000018027TALBERTO ARMENGOD MECA                                                       000000000000000000N
021989101289999000018028TMARIA SANCHEZ FERNANDEZ                                                     000000000000000000N
021989101289999000018029TJUAN FERNANDEZ GIL                                                          000000000000000000N
021989101289999000018030TMARIA JOSEFA ALVAREZ VEGA                                                   000000000000000000N
021989101289999000018031TJUAN DOMENECH RICART                                                        000000000000000000N
021989101289999000018032TLOURDES BUENDIA PEREZ                                                       000000000000000000N
021989101289999000018033TEUFEMIA MATESANZ BERZAL                                                     000000000000000000N
021989101299999000018001TJAIME MORENO LORCA                                                          000000000000000000N
021989101299999000018002TMARIA CATALAN GIMENEZ                                                       000000000000000000N
021989101299999000018003TJOSE LUIS ALVAREZ VALLEJO                                                   000000000000000000N
021989101299999000018004TISABEL CAÑADA PASTOR                                                        000000000000000000N
021989101299999000018005TRAFAEL FUERTES CASTILLERO                                                   000000000000000000N
021989101299999000018006TANA HERNANDEZ VILLALONGA                                                    000000000000000000N
021989101299999000018007TFRANCISCO JAVIER FERNANDEZ-CALVILLO PEREZ                                   000000000000000000N
021989101299999000018008TEVA MARIA ELVIRA SANCHEZ                                                    000000000000000000N
021989101299999000018009TMAXIMO ALVAREZ VEGA                                                         000000000000000000N
021989101299999000018010TMARIA GEMA PRIETO MONZON                                                    000000000000000000N
021989101089999000018026TALEJANDRO ALARCON GUTIERREZ                                                 000000000000000000N
021989101089999000018027TMARIA ESPERANZA RODRIGUEZ RODRIGUEZ                                         000000000000000000N
021989101089999000018028TJOSE ANTONIO RODRIGUEZ MARTINEZ                                             000000000000000000N
021989101089999000018029TMARIA SONSOLES MOLINERO PEÑA                                                000000000000000000N
021989101089999000018030TJUAN BOFILL FUENTE                                                          000000000000000000N
021989101089999000018031TCONCEPCION GONZALEZ RAMOS                                                   000000000000000000N
021989101089999000018032TJESUS FERNANDEZ GONZALEZ                                                    000000000000000000N
021989101119999000018001TALBERTO SANCHEZ BAZ                                                         000000000000000000N
021989101119999000018002TMARGARITA LOPEZ RUIZ                                                        000000000000000000N
021989101119999000018003TANTONIO MANUEL GARCIA SOMOZA                                                000000000000000000N
021989101119999000018004TMARIA JESUS HUERTAS PANTOJA                                                 000000000000000000N
021989101119999000018005TFRANCISCO REBOLLO LOBATO                                                    000000000000000000N
021989101119999000018006TMATILDE RAMOS PONCE                                                         000000000000000000N
021989101119999000018007TLUIS ALBERTO COLLIA GUERRA                                                  000000000000000000N
021989101119999000018008TMONTSERRAT JACAS SALA                                                       000000000000000000N
021989101119999000018009TJOSE SALVADOR FERRER SALAS                                                  000000000000000000N
021989101289999000019009TMARIA ALEJANDRA BARCELO MEZQUITA                                            000000000000000000N
021989101289999000019010TMERCEDES DIEGUEZ MOLINA                                                     000000000000000000N
021989101289999000019011TEDUARDO GUERRA PAREDES                                                      000000000000000000N
021989101289999000019012TRICARDO ROMERO ZARZA                                                        000000000000000000N
021989101289999000019013TISABEL MONTEJANO MATA                                                       000000000000000000N
021989101289999000019014TJERONIMO ESCALERA UREÑA                                                     000000000000000000N
021989101289999000019015TJOSE A. SUAREZ VALBUENA                                                     000000000000000000N
021989101289999000019016TMIGUEL A. SEGURA URETA                                                      000000000000000000N
021989101289999000019017TSANTIAGO SALDO MARTINEZ                                                     000000000000000000N
021989101289999000019018TCARMEN RODRIGUEZ RODRIGUEZ                                                  000000000000000000N
021989101289999000019019TFERNANDO A. PORTELA SANZ                                                    000000000000000000N
021989101289999000019020TMARIA PILAR RUIZ SOROGOYEN                                                  000000000000000000N
021989101289999000019021TV. IVAN URIZARBARRENA VIANA                                                 000000000000000000N
021989101289999000019022TJOSE MARIA PONS DEL CID                                                     000000000000000000N
021989101289999000019023TELENA GONZALEZ PEREZ                                                        000000000000000000N
021989101289999000019024TSANTIAGO BLANCO RODRIGUEZ                                                   000000000000000000N
021989101289999000018011TCRISTOBAL PUERTAS LAZO                                                      000000000000000000N
021989101289999000018012TDOLORES DOMINGUEZ PALOS                                                     000000000000000000N
021989101289999000018013TELADIO GRANDE PASCUAL                                                       000000000000000000N
021989101289999000018014TMARIA TERESA ESTEVEZ LEBATO                                                 000000000000000000N
021989101289999000018015TPEDRO FERRUS PALACIOS                                                       000000000000000000N
021989101289999000018016TFRANCISCA FERNANDEZ DOMINGUEZ                                               000000000000000000N
021989101289999000018017TRIGOLIO SAMA PALENCIA                                                       000000000000000000N
021989101289999000018018TCONSUELO GARCIA GALLEGO                                                     000000000000000000N
021989101289999000018019TEUGENIO BENITO GORDO                                                        000000000000000000N
021989101289999000018020TMARIA DEL CARMEN ALCANTARA GRANADOS                                         000000000000000000N
021989101289999000018021TBENJAMIN BURGOS DOMENECH                                                    000000000000000000N
021989101289999000018022TMARIA DEL CARMEN CERCADILLO PEREZ                                           000000000000000000N
021989101289999000018023TANTONIO CLEMENTE CASTELLS                                                   000000000000000000N
021989101289999000018024TMONTSERRAT CORTES CARDONA                                                   000000000000000000N
021989101289999000018025TJAVIER BARRANCO GARCIA                                                      000000000000000000N
021989101289999000018026TMARTA MARTINEZ DOMENECH                                                     000000000000000000N
021989101089999000018010TMARIA HERRAN OCHARAN                                                        000000000000000000N
021989101089999000018011TJOSE LUIS RODRIGUEZ GARCIA                                                  000000000000000000N
021989101089999000018012TPILAR ZAMORA PARDO                                                          000000000000000000N
021989101089999000018013TJOSE FERNANDO LOPEZ SALGUERO                                                000000000000000000N
021989101089999000018014TLAURA BARCELO PEREZ                                                         000000000000000000N
021989101089999000018015TALVARO TORIBIO DIAZ                                                         000000000000000000N
021989101089999000018016TADORACION ALVAREZ LOZANO                                                    000000000000000000N
021989101089999000018017TANTONIO COBOS ALONSO                                                        000000000000000000N
021989101089999000018018TMARIA DOLORES MOLES BALLESTE                                                000000000000000000N
021989101089999000018019TJUAN RAMON ROMERO BARRENECHEA                                               000000000000000000N
021989101089999000018020TMARIA ORTIN GRACIA                                                          000000000000000000N
021989101089999000018021TESTRELLA BARRIO DOMINGUEZ                                                   000000000000000000N
021989101089999000018022TGASPAR IBAÑEZ MARQUES                                                       000000000000000000N
021989101089999000018023TCRISTINA RICO GARCIA                                                        000000000000000000N
021989101089999000018024TJOSE MARIA HERNANDEZ LARREA                                                 000000000000000000N
021989101089999000018025TMARIA CARMEN CRISTOBAL GIL                                                  000000000000000000N
021989101339999000016008TARTURO CARNERERO MENENDEZ                                                   000000000000000000N
021989101339999000016009TFLORA GALVEZ JAEN                                                           000000000000000000N
021989101359999000016001TFRANCISCO RUIZ MONTESDEOCA                                                  000000000000000000N
021989101359999000016002TFRANCISCO SAAVEDRA RODRIGUEZ                                                000000000000000000N
021989101359999000016003TASUNCION QUINTANA VIERA                                                     000000000000000000N
021989101359999000016004TDAMIAN ACOSTA NOBLE                                                         000000000000000000N
021989101359999000016005TJOSE RAMON MORENO GONZALEZ                                                  000000000000000000N
021989101359999000016006TAGUSTIN PEREZ QUINTANA                                                      000000000000000000N
021989101359999000016007TFRANCISCO HERNANDEZ TRUJILLO                                                000000000000000000N
021989101369999000016001TJUAN JOSE RODRIGUEZ GONZALEZ                                                000000000000000000N
021989101369999000016002TVICENTE CASTRO BOGO                                                         000000000000000000N
021989101369999000016003TMANUEL RODRIGUEZ NANDIN                                                     000000000000000000N
021989101369999000016004TRICARDO JOSE CARUNCHO NUÑEZ                                                 000000000000000000N
021989101369999000016005TJOSE MANUEL VAZQUEZ DIAZ                                                    000000000000000000N
021989101369999000016006TANDRES ALVAREZ VILA                                                         000000000000000000N
021989101369999000016007TROSA MARIA PEREIRA BERGES                                                   000000000000000000N
021989101279999000014003TANGEL MOURE MOSQUERA                                                        000000000000000000N
021989101279999000014004TANTONIA LOPEZ LOPEZ                                                         000000000000000000N
021989101279999000014005THECTOR BELLO RIVAS                                                          000000000000000000N
021989101299999000014001TJUAN ANTONIO ROMERO CAMPANO                                                 000000000000000000N
021989101299999000014002TJOSE ANDRES GALVEZ MORALES                                                  000000000000000000N
021989101299999000014003TJUAN JOSE MERINO CARRILLO                                                   000000000000000000N
021989101299999000014004TPEDRO CORES URIA                                                            000000000000000000N
021989101299999000014005TMARIA ISABEL GARCIA-GRANADOS LOPEZ DE HIERRO                                000000000000000000N
021989101299999000014006TMARIA PILAR SALDAÑA DUPORT                                                  000000000000000000N
021989101299999000014007TJESUS MANUEL LOPEZ TORO                                                     000000000000000000N
021989101299999000014008TANTONIO GARRIDO GARCIA                                                      000000000000000000N
021989101299999000014009TRAFAEL CAÑADA NUÑEZ                                                         000000000000000000N
021989101299999000014010TMIGUEL ANGEL BARBA LOPEZ                                                    000000000000000000N
021989101309999000014001TLUIS PEREZ ANDREU                                                           000000000000000000N
021989101309999000014002TMIGUEL MORENO MORENO                                                        000000000000000000N
021989101309999000014003TDOMINGO LARROSA MARIN                                                       000000000000000000N
021989101029999000014001TMARIA DEL CARMEN MANRIQUE GARCIA                                            000000000000000000N
021989101029999000014002TJUAN CARLOS GUTIERREZ ESCUDERO                                              000000000000000000N
021989101029999000014003TJUANA JOVER MAÑEZ                                                           000000000000000000N
021989101029999000014004TEMILIO PRECIADO FERRADEZ                                                    000000000000000000N
021989101039999000014001TFRANCISCO NAVARRO MAESTRE                                                   000000000000000000N
021989101039999000014002TABELARDO LLORET RIVERA                                                      000000000000000000N
021989101039999000014003TLUIS ANTONIO VILLADA LOBETE                                                 000000000000000000N
021989101039999000014004TANTONIA TECLES MARTINEZ                                                     000000000000000000N
021989101039999000014005TANTONIO SANCHEZ AMOROS                                                      000000000000000000N
021989101039999000014006TANTONIO AVIO VAZQUEZ                                                        000000000000000000N
021989101039999000014007TJOSE MARTINEZ TOME                                                          000000000000000000N
021989101039999000014008TRAFAEL BALLESTER PAYA                                                       000000000000000000N
021989101039999000014009TMARIA JOSE MIRETE GRAU                                                      000000000000000000N
021989101039999000014010TANTONIO GARCIA CANOVAS                                                      000000000000000000N
021989101049999000014001TGABRIEL GALDEANO SALMERON                                                   000000000000000000N
021989101049999000014002TFRANCISCA OLIVENCIA FERNANDEZ                                               000000000000000000N
021989101299999000015006TMIGUEL ANGEL SANCHEZ DEL RIO GARCIA                                         000000000000000000N
021989101299999000015007TJOSE LUIS DOMENECH TELLADO                                                  000000000000000000N
021989101299999000015008TENRIQUE LLORENTE VAZQUEZ                                                    000000000000000000N
021989101299999000015009TSILVIA PERAL ARPA                                                           000000000000000000N
021989101299999000015010TMARCO ANTONIO RUIZ SOTO                                                     000000000000000000N
021989101309999000015001TMANUEL VALVERDE RELLO                                                       000000000000000000N
021989101309999000015002TJESUS HERRERA FERNANDEZ                                                     000000000000000000N
021989101309999000015003TJUAN A MAIQUEZ CASAS                                                        000000000000000000N
021989101309999000015004TESTEBAN M LINARES IBORRA                                                    000000000000000000N
021989101309999000015005TSIMON FRUTOS GARCIA                                                         000000000000000000N
021989101309999000015006TEMILIO GARCIA LATORRE                                                       000000000000000000N
021989101309999000015007TMIGUEL GARCIA SEIQUER                                                       000000000000000000N
021989101309999000015008TANTONIO LOPEZ CAMARASA                                                      000000000000000000N
021989101309999000015009TLIDIA MADRONA LOPEZ ARRONIZ                                                 000000000000000000N
021989101339999000015001TLUIS MIGUEL GONZALEZ MARTIN                                                 000000000000000000N
021989101339999000015002TCARLOS PERAL LOPEZ                                                          000000000000000000N
021989101169999000015001TANTONIO FRANCISCO BERGOÑOS DEL REY                                          000000000000000000N
021989101169999000015002TJUAN CARLOS FRANCISCO LADRON DE GUEVARA CAÑAS                               000000000000000000N
021989101169999000015003TRUBEN DARIO CHAVES RUBIO                                                    000000000000000000N
021989101189999000015001TJUAN CARLOS MUÑOZ MOYA                                                      000000000000000000N
021989101189999000015002TEMILIA FERNANDEZ CAMPOS                                                     000000000000000000N
021989101189999000015003TFRANCISCO JAVIER GALVEZ ZURITA                                              000000000000000000N
021989101189999000015004TMARIA DEL MAR RAMOS MARTIN                                                  000000000000000000N
021989101189999000015005TANTONIO JESUS TORRES PRIETO                                                 000000000000000000N
021989101189999000015006TMARIA NURIA GARCIA ROMERO                                                   000000000000000000N
021989101189999000015007TFRANCISCO BAZAN CORTES                                                      000000000000000000N
021989101199999000015001TISABEL DE LA RUBIA ARENAS                                                   000000000000000000N
021989101439999000018001TJOSEFA LORCA ORTIN                                                          000000000000000000N
021989101139999000018002TAURELIO RODRIGUEZ ARCAS                                                     000000000000000000N
021989101139999000018003TMARIA ELENA DE LA ROJA UTRILLA                                              000000000000000000N
021989101139999000018004TJUAN EDUARDO CARRERA CORRAL                                                 000000000000000000N
021989101139999000018005TDOLORES MARTINEZ BAÑOS                                                      000000000000000000N
021989101149999000018001TGUILLERMO CARPIO LABLANCA                                                   000000000000000000N
021989101149999000018002TMARIA ENGRACIA VALDUNCIEL VALERO                                            000000000000000000N
021989101149999000018003TJULIO REMEDIO MENDO                                                         000000000000000000N
021989101149999000018004TMARIA DEL CARMEN GOMEZ RAMIREZ                                              000000000000000000N
021989101149999000018005TJUAN MARTINEZ SUECO                                                         000000000000000000N
021989101149999000018006TJOSEFA MELLADO LEAL                                                         000000000000000000N
021989101149999000018007TDALMIRO GONZALEZ MARTINEZ                                                   000000000000000000N
021989101169999000018001TANDRES GIMENEZ MORENO                                                       000000000000000000N
021989101169999000018002TCECILIA SAZ MONGIL                                                          000000000000000000N
021989101169999000018003TMARIA DEL CARMEN PUERTAS TORTOSA                                            000000000000000000N
021989101179999000018001TAURORA BERANGUERAS ALVAREZ                                                  000000000000000000N
021989101179999000018002TJOSE ANTONIO PEREZ ALVAREZ                                                  000000000000000000N
021989101469999000016005TESTHER PEREZ CASTELLO                                                       000000000000000000N
021989101469999000016006TFELIPE GURILLO RUIZ                                                         000000000000000000N
021989101469999000016007TJULIO ESTELLES VALERO                                                       000000000000000000N
021989101469999000016008TANGEL YEBENES MOLES                                                         000000000000000000N
021989101469999000016009TMIGUEL ALCOCEL MASET                                                        000000000000000000N
021989101469999000016010TELISA SALVADOR SERRALTA                                                     000000000000000000N
021989101469999000016011TADELA PEREDA MARTINEZ                                                       000000000000000000N
021989101469999000016012TALEJANDRO MAYORDOMO BUENDIA                                                 000000000000000000N
021989101469999000016013TISABEL CERVERA GRAU                                                         000000000000000000N
021989101469999000016014TANTONIO FERRER PALERO                                                       000000000000000000N
021989101469999000016015TVICENTE ALMIÑANA ALEMANY                                                    000000000000000000N
021989101469999000016016TVICENTE MIGUEL MARTINEZ PEIRO                                               000000000000000000N
021989101479999000016001TPAULINO CASTRILLERO ORTEGA                                                  000000000000000000N
021989101479999000016002TTEODORO CANALES BARBERO                                                     000000000000000000N
021989101479999000016003TMIGUEL ANGEL RODRIGUEZ MATEO                                                000000000000000000N
021989101479999000016004TGERMAN DE LA CRUZ ORTEGA                                                    000000000000000000N
021989101339999000014007TRAQUEL GONZALEZ PINTOR                                                      000000000000000000N
021989101339999000014008TEDUARDO CAMPOMANES CALLEJA                                                  000000000000000000N
021989101339999000014009TABILIO ALVAREZ RODRIGUEZ                                                    000000000000000000N
021989101349999000014001TPEDRO COSGAYA BRAVO (LV-LV)                                                 000000000000000000N
021989101349999000014002TISIDRO CESAR AYUSO RODRIGUEZ (LV-LV)                                        000000000000000000N
021989101349999000014003TMARLENE BRAUWEILER KADER (LV-LV)                                            000000000000000000N
021989101359999000014001TMANUEL SANTANA MACIAS                                                       000000000000000000N
021989101359999000014002TTERESA J HERRERA PEREZ                                                      000000000000000000N
021989101359999000014003TROSARIO MARIA AUSLANDER ALAMO                                               000000000000000000N
021989101359999000014004TANA AGUSTINA MEDINA PEREDA                                                  000000000000000000N
021989101359999000014005TFERMINA MARIANO PERERA                                                      000000000000000000N
021989101359999000014006TGEORGINA ALONSO CABALLERO                                                   000000000000000000N
021989101359999000014007TJUAN FRANCISCO SANTANA ALONSO                                               000000000000000000N
021989101379999000014001TFRANCISCO MARTIN MARTIN                                                     000000000000000000N
021989101379999000014002TEMILIO ALCON RUBIO                                                          000000000000000000N
021989101379999000014003TSECUNDINO VICENTE GONZALEZ                                                  000000000000000000N
021989101119999000014006TSALVADOR ALEJANDRO FERNANDEZ MURGA                                          000000000000000000N
021989101119999000014007TMANUEL ORELLANA DE LOS SANTOS (INDEPENDIENTE)                               000000000000000000N
021989101119999000014008TJOSE MANUEL ARENAS PEÑA                                                     000000000000000000N
021989101119999000014009TFRANCISCO SECO TEJADA                                                       000000000000000000N
021989101129999000014001TJOSE MIGUEL REBOLLO DE LA ROSA                                              000000000000000000N
021989101129999000014002TPEDRO DOMINGUEZ GENTO                                                       000000000000000000N
021989101129999000014003TROSA MARIA VALVERDE DE MARTINEZ                                             000000000000000000N
021989101129999000014004TAMELIA ESPI GARCIA                                                          000000000000000000N
021989101129999000014005TROSA MARIA VICENTE PALACIO                                                  000000000000000000N
021989101139999000014001TAUGUSTO SERRANO OLMEDO                                                      000000000000000000N
021989101139999000014002TASUNCION GUTIERREZ QUILES                                                   000000000000000000N
021989101139999000014003TEDUARDO TOLEDANO MARTIN-DUARTE                                              000000000000000000N
021989101139999000014004TSERVANDO SERRANO TORRES                                                     000000000000000000N
021989101139999000014005TJERONIMA ALISES GONZALEZ                                                    000000000000000000N
021989101159999000014001TFRANCISCO LUEIRO GARCIA                                                     000000000000000000N
021989101159999000014002TMAXIMINO LOPEZ RIVAS                                                        000000000000000000N
021989101369999000015001TJAVIER BARBERO ALVAREZ                                                      000000000000000000N
021989101369999000015002TMARIA DE LOS ANGELES DAVILA BUGARIN                                         000000000000000000N
021989101369999000015003TJUAN CARLOS CAMESELLE GALLEGO                                               000000000000000000N
021989101369999000015004TBEGOÑA CRISTINA MOLDES FERNANDEZ                                            000000000000000000N
021989101369999000015005TJULIO CESAR RUIZ BLANCO                                                     000000000000000000N
021989101369999000015006TMARIA VIRGINIA OJEA CANEDA                                                  000000000000000000N
021989101369999000015007TOLGA MARIA GAMALLO OTERO                                                    000000000000000000N
021989101369999000015008TBEATRIZ FERNANDEZ SANGIAO                                                   000000000000000000N
021989101379999000015001TANTONIO SILVA ABOY                                                          000000000000000000N
021989101379999000015002TJOSE MIGUEL MORO MATEOS                                                     000000000000000000N
021989101379999000015003TMARIA DE LOS ANGELES AMORES CANCHO                                          000000000000000000N
021989101379999000015004TMANUELA BERROCAL ZABALLOS                                                   000000000000000000N
021989101389999000015001TJOSE FRANCISCO RODRIGUEZ COLOMER                                            000000000000000000N
021989101389999000015002TJUAN JOSE REYES SANTANA                                                     000000000000000000N
021989101389999000015003TMARIA VICTORIA BURGOS GARCIA                                                000000000000000000N
021989101389999000015004TARACELI SOSA RIVERO                                                         000000000000000000N
021989101239999000015005TD. DAVID AGELAN RODRIGUEZ                                                   000000000000000000N
021989101239999000015006TSANTIAGO LUNA DURAN                                                         000000000000000000N
021989101249999000015001TFRANCISCO JAVIER SALETA HERZA                                               000000000000000000N
021989101249999000015002TMARIA LUISA CERNUDAS GARCIA                                                 000000000000000000N
021989101249999000015003TJOSE LUIS ALONSO PAN                                                        000000000000000000N
021989101249999000015004TMARIA TERESA VARELA HERNANDEZ                                               000000000000000000N
021989101249999000015005TJOSE LUIS JAVIER SECANE ESCARIZ                                             000000000000000000N
021989101269999000015001TJAVIER JESUS HERRANZ AGUAYO                                                 000000000000000000N
021989101269999000015002TNATIVIDAD JIMENEZ LOPEZ                                                     000000000000000000N
021989101269999000015003TMERCEDES SANZ MONTES                                                        000000000000000000N
021989101269999000015004TMARIA JESUS NUÑEZ GARCIA                                                    000000000000000000N
021989101289999000015001TFELIX HERRERA PALOMERO                                                      000000000000000000N
021989101289999000015002TPABLO EUGENIO MARTINEZ ESCUTIA                                              000000000000000000N
021989101289999000015003TJOSE LUIS GARCIA GARCIA                                                     000000000000000000N
021989101289999000015004TLUIS MEDINA MORACHO                                                         000000000000000000N
021989101289999000015005TMANUEL HIDALGO GONZALEZ                                                     000000000000000000N
021989101289999000015006TANGEL MARIO BARRANCO HERVADA                                                000000000000000000N
021989101039999000015004TMARIA AMPARO GIMENEZ MEGIAS                                                 000000000000000000N
021989101039999000015005TBIENVENIDA DOLORES PALAU GOMEZ                                              000000000000000000N
021989101039999000015006TSILVIA CHINER GONZALEZ                                                      000000000000000000N
021989101039999000015007TJESUS DE LA TORRE HERNANDEZ                                                 000000000000000000N
021989101039999000015008TANA MARIA VALIENTE MARTINEZ                                                 000000000000000000N
021989101039999000015009TSANTIAGO VALDERAS LEON                                                      000000000000000000N
021989101039999000015010TJOSEFA DOMINGO ZANON                                                        000000000000000000N
021989101059999000015001TMARIA ELENA JIMENEZ GONZALEZ                                                000000000000000000N
021989101059999000015002TANTONIO JAVIER PANGUA DE LA VARGA                                           000000000000000000N
021989101059999000015003TMARIA NIEVES HERNANDEZ SANCHEZ                                              000000000000000000N
021989101069999000015001TJOSE CARLOS ZORITA GOMEZ                                                    000000000000000000N
021989101069999000015002TMIGUEL ERNESTO CUADRILLERO GAGO                                             000000000000000000N
021989101069999000015003TMARIA DOLORES FILGUEIRA DIAZ                                                000000000000000000N
021989101069999000015004TMARIA DEL PILAR JUSDADO ARRANZ                                              000000000000000000N
021989101069999000015005TFELIX JAVIER DEL POZO PAEZ                                                  000000000000000000N
021989101069999000015006TMARIA GEMA RODRIGUEZ ALVAREZ                                                000000000000000000N
021989101099999000015001TMANUEL GARCIA HERNANDEZ                                                     000000000000000000N
021989101039999000026008TSERGIO RAFAEL VIDAL CALISALVO                                               000000000000000000N
021989101039999000026009TJOSE BELEÑA I GUTIERREZ                                                     000000000000000000N
021989101039999000026010TJAIME REVERTER I CABOT                                                      000000000000000000N
021989101079999000026001TVICTOR ARRESE I CASTAÑE (PSD)                                               000000000000000000N
021989101079999000026002TMARIA JOSE VILALTA MINGUEZ (PSD)                                            000000000000000000N
021989101079999000026003TJORGE LOPEZ PINTO I FONT (PSD)                                              000000000000000000N
021989101079999000026004TVIRGINIA RAMOS I MENDEZ (PSD)                                               000000000000000000N
021989101079999000026005TLUIS RODRIGUEZ I AGUIAR (PSD)                                               000000000000000000N
021989101079999000026006TMARTA BADIA I MARIN (PSD)                                                   000000000000000000N
021989101089999000026001TJOAN VILALTA I PARDO (PSDC)                                                 000000000000000000N
021989101089999000026002TTOMAS TORRENTS I DOMENECH (PSDC)                                            000000000000000000N
021989101089999000026003TARMAND SERRA I ARAGONES (PSDC)                                              000000000000000000N
021989101089999000026004TFRANCESC PUIG I FONT (PSDC)                                                 000000000000000000N
021989101089999000026005TALFREDO SITJES I BORDAS (PSDC)                                              000000000000000000N
021989101089999000026006TMARIA CARMEN ARRESE I CASTAÑE (PSDC)                                        000000000000000000N
021989101089999000026007TJAVIER FERNANDEZ I PERICHE (PSDC)                                           000000000000000000N
021989101299999000024010TMARIA DEL CARMEN LISBONA GUTIERREZ                                          000000000000000000N
021989101419999000024001TALFONSO GUERRA GONZALEZ                                                     000000000000000000S
021989101419999000024002TLUIS YAÑEZ-BARNUEVO GARCIA                                                  000000000000000000S
021989101419999000024003TALFONSO LAZO DIAZ                                                           000000000000000000S
021989101419999000024004TFRANCISCO LOPEZ REAL                                                        000000000000000000S
021989101419999000024005TMARIA DEL CARMEN HERMOSIN BONO                                              000000000000000000S
021989101419999000024006TANTONIO CUEVAS DELGADO                                                      000000000000000000S
021989101419999000024007TFERNANDO SOTO MARTIN                                                        000000000000000000S
021989101419999000024008TMILAGROS DEL MONTE FRIAS NAVARRETE                                          000000000000000000S
021989101419999000024009TJOSE NAVARRO TORNAY                                                         000000000000000000N
021989101419999000024010TJOSE PARRAGA MENDOZA                                                        000000000000000000N
021989101419999000024011TRAMON RUEDA ESPINAR                                                         000000000000000000N
021989101419999000024012TMARIA DOLORES GARCIA GUTIERREZ                                              000000000000000000N
021989101149999000025002TJOSE CALVO POYATO                                                           000000000000000000N
021989101149999000025003TJOSE LUQUE VELASCO                                                          000000000000000000N
021989101149999000025004TJOSE NIETO VICO                                                             000000000000000000N
021989101149999000025005TNICOLAS DONCEL ROJANO                                                       000000000000000000N
021989101089999000052015TANTONIA GOMEZ MOLINA                                                        000000000000000000N
021989101089999000052016TMARIA INMACULADA PRIETO GIL                                                 000000000000000000N
021989101089999000052017TRICARDO DOMINGUEZ ROCA                                                      000000000000000000N
021989101089999000052018TMANUELA RIBEIRO PARADA                                                      000000000000000000N
021989101089999000052019TNURIA MARQUES GURREA                                                        000000000000000000N
021989101089999000052020TJORGE JUAN TELLEZ REGORIGO                                                  000000000000000000N
021989101089999000052021TMARIA DE LOS ANGELES BAENA CANO                                             000000000000000000N
021989101089999000052022TMERCEDES SOLER GARCIA                                                       000000000000000000N
021989101089999000052023TJORGE JIMENEZ REDONDO                                                       000000000000000000N
021989101089999000052024TCRISTINA CINCA BRUNO                                                        000000000000000000N
021989101089999000052025TMARIA TERESA SERRA FERRER                                                   000000000000000000N
021989101089999000052026TJORGE SANAHUJA VILAR                                                        000000000000000000N
021989101089999000052027TJULIO SANCHEZ DUEÑAS                                                        000000000000000000N
021989101089999000052028TNURIA RIUS GAZQUEZ                                                          000000000000000000N
021989101089999000052029TLAURA ARRIBAS PALOMO                                                        000000000000000000N
021989101089999000052030TMARIA SOLEDAD MOREIRO RUIZ                                                  000000000000000000N
021989101089999000052031TSUSANA RODRIGUEZ GOMEZ                                                      000000000000000000N
021989101289999000016008TROSA MARIA GOMEZ PORRAS (INDEPENDIENTE)                                     000000000000000000N
021989101289999000016009TRAMON GARRIGA MIRO (INDEPENDIENTE)                                          000000000000000000N
021989101289999000016010TCELIA LOPEZ ATIENZA                                                         000000000000000000N
021989101289999000016011TBONIFACIO SANCHEZ CEPA                                                      000000000000000000N
021989101289999000016012TENRIQUE MOZO BLANCO                                                         000000000000000000N
021989101289999000016013TROSA MENDOZA RAMOS                                                          000000000000000000N
021989101289999000016014TMARIA DOLORES VAL CABALLERO                                                 000000000000000000N
021989101289999000016015TJUAN MENDEZ MORENO                                                          000000000000000000N
021989101289999000016016TJUAN ANDRES MARQUEZ ARAQUE                                                  000000000000000000N
021989101289999000016017TENRIQUE PORTA LOPEZ                                                         000000000000000000N
021989101289999000016018TMIGUEL ANGEL MARTIN LOSADA                                                  000000000000000000N
021989101289999000016019TMARIA NIEVES MORAL MONTERO                                                  000000000000000000N
021989101289999000016020TEUGENIO ZAMORA LOPEZ                                                        000000000000000000N
021989101289999000016021TMERCEDES MARTINEZ CASTELLANOS                                               000000000000000000N
021989101289999000016022TCARMELO ESCUDERO MENDEZ                                                     000000000000000000N
021989101289999000016023TJOAQUIN MONTON LOPEZ                                                        000000000000000000N
021989101289999000016024TMARIA ANTONIA ALONSO UTRILLA                                                000000000000000000N
021989101499999000015003TMONICA SERANTES FALCON                                                      000000000000000000N
021989101509999000015001TMARIA DE ARACELI FERNANDEZ RAMIREZ                                          000000000000000000N
021989101509999000015002TALFONSO RELLO ORTEGA                                                        000000000000000000N
021989101509999000015003TSONIA BARRACHINA GIL                                                        000000000000000000N
021989101509999000015004TMARIA RAQUEL RAMAS REVILLA                                                  000000000000000000N
021989101509999000015005TMARIA PILAR LAIN MELENDEZ                                                   000000000000000000N
021989101509999000015006TCAROLINA BENIGNA VAZQUEZ CABRERA                                            000000000000000000N
021989101509999000015007TRAFAEL MARTIN ORTEGA                                                        000000000000000000N
021989101029999000016001TMANUEL NAVARRO LOPEZ                                                        000000000000000000N
021989101029999000016002TLUCIA ABIETAR RUBIO                                                         000000000000000000N
021989101029999000016003TMIGUEL ADRIAN ILLAN TEOFILO                                                 000000000000000000N
021989101029999000016004TRAFAEL CRUZ MARTINEZ                                                        000000000000000000N
021989101039999000016001TFERNANDO J MATARREDONA GARCIA                                               000000000000000000N
021989101039999000016002TRICARDO PIÑOL SOLER                                                         000000000000000000N
021989101039999000016003TCARLOS E RIBERA MARTINEZ                                                    000000000000000000N
021989101039999000016004TJORGE MARTINEZ CABALLERO                                                    000000000000000000N
021989101039999000016005TJOSE A DE LA TORRE MECO                                                     000000000000000000N
021989101219999000023003TJOSEFA VILLAVERDE FERNANDEZ                                                 000000000000000000N
021989101219999000023004TVENANCIO CERMEÑO IRISARRI                                                   000000000000000000N
021989101219999000023005TEULOGIO BURRERO SALAZAR                                                     000000000000000000N
021989101239999000023001TMARIANO RODRIGUEZ GARCIA                                                    000000000000000000N
021989101239999000023002TFRANCISCO ZARAGOZA LOPEZ                                                    000000000000000000N
021989101239999000023003TCARMEN MURILLO CASION                                                       000000000000000000N
021989101239999000023004TSEBASTIAN LOPEZ MATEOS                                                      000000000000000000N
021989101239999000023005TRAFAEL ARJONA ALEJANDRE                                                     000000000000000000N
021989101239999000023006TPATROCINIO JODAR DUEÑAS                                                     000000000000000000N
021989101299999000023001TANTONIO ROMERO RUIZ                                                         000000000000000000S
021989101299999000023002TCARLOS HERNANDEZ PEZZI                                                      000000000000000000N
021989101299999000023003TJUAN GAVILAN PERDIGUERO                                                     000000000000000000N
021989101299999000023004TROSARIO LAMBERT CORDOBA                                                     000000000000000000N
021989101299999000023005TJOSE PEREZ GARCIA                                                           000000000000000000N
021989101299999000023006TBLANCA ADELA SANCHEZ ZAMBRANA                                               000000000000000000N
021989101299999000023007TSALVADOR CABELLO SOTO                                                       000000000000000000N
021989101119999000022007TJOSE RAPOSO RODRIGUEZ                                                       000000000000000000N
021989101119999000022008TRAFEL PALOMARES MELLADO                                                     000000000000000000N
021989101119999000022009TCARLOS MENA ESPINOSA                                                        000000000000000000N
021989101149999000022001TLEOPOLDO ALCARAZ REDONDO                                                    000000000000000000N
021989101149999000022002TMANUEL COSANO MOLINA                                                        000000000000000000N
021989101149999000022003TMANUEL GOMEZ LUNA                                                           000000000000000000N
021989101149999000022004TCATALINA GARCIA CERRILLO                                                    000000000000000000N
021989101149999000022005TDIEGO PARRA GARCIA                                                          000000000000000000N
021989101149999000022006TMANUEL PORRAS RUIZ                                                          000000000000000000N
021989101149999000022007TFRANCISCO CEJAS MORENO                                                      000000000000000000N
021989101189999000022001TMARIA DEL CARMEN MORENTE MUÑOZ                                              000000000000000000N
021989101189999000022002TJUAN MANUEL PUGA BARROSO                                                    000000000000000000N
021989101189999000022003TGREGORIO TENORIO FERNANDEZ                                                  000000000000000000N
021989101189999000022004TMARCOS GONZALEZ SEDANO                                                      000000000000000000N
021989101189999000022005TMARIA DE LOS ANGELES MORENTE MUÑOZ                                          000000000000000000N
021989101189999000022006TJUAN ANTONIO PRADOS RUIZ                                                    000000000000000000N
021989101189999000022007TANTONIO LEYVA GARCIA                                                        000000000000000000N
021989101289999000020013TMARIA ESTHER GALVEZ BEDMAR                                                  000000000000000000N
021989101289999000020014TMIGUEL GALLEGO MARTINEZ                                                     000000000000000000N
021989101289999000020015TNEMESIO ALVAREZ OCAMPOS                                                     000000000000000000N
021989101289999000020016TCARMEN DOMINGUEZ MENDEZ                                                     000000000000000000N
021989101289999000020017TMIGUEL ANGEL BORRELL GIL                                                    000000000000000000N
021989101289999000020018TSUSANA GALVEZ BEDMAR                                                        000000000000000000N
021989101289999000020019TJULIANA GIL REVILLA                                                         000000000000000000N
021989101289999000020020TAPOLINAR DE FRUTOS ARAGONESES                                               000000000000000000N
021989101289999000020021TMARIA DE LAS MERCEDES DOMINGUEZ PAZ                                         000000000000000000N
021989101289999000020022TAGUSTIN GALVEZ BEDMAR                                                       000000000000000000N
021989101289999000020023TJUANA DIAZ SANZ                                                             000000000000000000N
021989101289999000020024TCARMEN MUÑOZ PEREZ                                                          000000000000000000N
021989101289999000020025TCESAR MENDEZ DOMINGUEZ                                                      000000000000000000N
021989101139999000018001TCATALINA ROMERO MARTINEZ                                                    000000000000000000N
021989101369999000016008TEDUARDO ALVES GOMEZ                                                         000000000000000000N
021989101419999000016001TSALVADOR IGNACIO BUSTAMENTE NOGUERAS                                        000000000000000000N
021989101419999000016002TANTONIO RODRIGUEZ ALARCON                                                   000000000000000000N
021989101419999000016003TDANIEL NICOLAS PANISELLO SIMON                                              000000000000000000N
021989101419999000016004TRAFAEL PEREZ MARTIN                                                         000000000000000000N
021989101419999000016005TANTONIO GOMEZ MARIN                                                         000000000000000000N
021989101419999000016006TANTONIO SOTILLO DIAZ                                                        000000000000000000N
021989101419999000016007TMIGUEL SANCHEZ GOMEZ                                                        000000000000000000N
021989101419999000016008TPEDRO SUAREZ LEDESMA                                                        000000000000000000N
021989101419999000016009TFRANCISCO LOZANO MARQUEZ                                                    000000000000000000N
021989101419999000016010TMARIA ANTONIA DIAZ BERMEJO                                                  000000000000000000N
021989101419999000016011TFRANCISCO JAVIER CALDERON MORILLO                                           000000000000000000N
021989101419999000016012TMANUEL CONTRERAS BENITEZ                                                    000000000000000000N
021989101469999000016001TLUCILA ARAGO CARRION                                                        000000000000000000N
021989101469999000016002TSERGIO GONZALEZ ZARZO                                                       000000000000000000N
021989101469999000016003TMIGUEL MORATA FORTEA                                                        000000000000000000N
021989101469999000016004TPASCUAL MORENO TORREGROSA                                                   000000000000000000N
021989101309999000014004TJOSE MANUEL FERNANDEZ GUTIERREZ                                             000000000000000000N
021989101309999000014005TANDRES DIAZ MADROÑERO CANOVAS                                               000000000000000000N
021989101309999000014006TANTONIO A FLORES MONTESINOS                                                 000000000000000000N
021989101309999000014007TMARIA TERESA SALINAS DE LA ROSA                                             000000000000000000N
021989101309999000014008TJESUS PABLO MENDOZA MARTINEZ                                                000000000000000000N
021989101309999000014009TROSALIA LAX VIVANCOS                                                        000000000000000000N
021989101329999000014001TJUAN LOPEZ LOPEZ                                                            000000000000000000N
021989101329999000014002TANTONIO VAZQUEZ FERNANDEZ                                                   000000000000000000N
021989101329999000014003TANTONIO GARCIA PRADO                                                        000000000000000000N
021989101329999000014004TJOSE ANTONIO ABAD GONZALEZ                                                  000000000000000000N
021989101329999000014005TANTONIO ALFONSO MARTINEZ SANCHEZ                                            000000000000000000N
021989101339999000014001TEMILIANO GARCIA ARCE                                                        000000000000000000N
021989101339999000014002TJOSEFA MUÑOZ PASCUAL                                                        000000000000000000N
021989101339999000014003TMARIA JOSE RODRIGUEZ BAUDOT                                                 000000000000000000N
021989101339999000014004TMARIA AURORA GARCIA MARTINEZ                                                000000000000000000N
021989101339999000014005TNIEVES YOLANDA LOPEZ VELASCO                                                000000000000000000N
021989101339999000014006TMARIA TERESA BURGUET VERDE                                                  000000000000000000N
021989101049999000014003TBEATRIZ IRIBARNE SANCHEZ                                                    000000000000000000N
021989101049999000014004TFRANCISCO VILALTA MORET                                                     000000000000000000N
021989101049999000014005TCRISTOBAL CERVANTES FLORES                                                  000000000000000000N
021989101059999000014001TJOSE LUIS DIAZ SEGOVIA                                                      000000000000000000N
021989101059999000014002TJUAN CARLOS RICO JIMENEZ                                                    000000000000000000N
021989101059999000014003TVALERIANO ANTONIO MARTIN CARRASCAL                                          000000000000000000N
021989101109999000014001TBELARMINO MARTIN GALINDO (INDEPENDIENTE)                                    000000000000000000N
021989101109999000014002TANA MARIA BERMEJO SANCHEZ (INDEPENDIENTE)                                   000000000000000000N
021989101109999000014003TLUIS ANGEL SERRANO FRAILE (LOS VERDES)                                      000000000000000000N
021989101109999000014004TMARIA ISABEL LOPEZ BALSET (INDEPENDIENTE)                                   000000000000000000N
021989101109999000014005TFELISA BACAS LEAL (INDEPENDIENTE)                                           000000000000000000N
021989101119999000014001TPURIFICACION GONZALEZ DE LA BLANCA                                          000000000000000000N
021989101119999000014002TGONZALO ARIAS BONET (INDEPENDIENTE)                                         000000000000000000N
021989101119999000014003TRAFAEL QUIROS RODRIGUEZ (INDEPENDIENTE)                                     000000000000000000N
021989101119999000014004TJOSE ROMAN LOPEZ                                                            000000000000000000N
021989101119999000014005TGABRIEL NADALES CORTES                                                      000000000000000000N
021989101339999000015003TMARCELO ROCA AGUILAR                                                        000000000000000000N
021989101339999000015004TFERNANDO MARTINEZ SOLA                                                      000000000000000000N
021989101339999000015005TRODRIGO CASAS BADALATO                                                      000000000000000000N
021989101339999000015006TANA ISABEL GOMEZ SALINERO                                                   000000000000000000N
021989101339999000015007TJOSE LUIS GONZALEZ GONZALEZ                                                 000000000000000000N
021989101339999000015008TMARIA DEL PILAR MARTIN DELICADO                                             000000000000000000N
021989101339999000015009TCRISTINA VIDAL HERVAS                                                       000000000000000000N
021989101349999000015001TPALOMA SERRANO MUÑOZ (PVE)                                                  000000000000000000N
021989101349999000015002TLAURA SEIJO DIAZ (PVE)                                                      000000000000000000N
021989101349999000015003TJOAQUIN ESTEBAN GARCIA (PVE)                                                000000000000000000N
021989101359999000015001TFRANCISCO JOSE SUAREZ FALCON                                                000000000000000000N
021989101359999000015002TFRANCISCO CABRERA CALIXTO                                                   000000000000000000N
021989101359999000015003TJUAN MIGUEL MACARIO BUENO                                                   000000000000000000N
021989101359999000015004TSANTIAGO ROCHA AMADOR                                                       000000000000000000N
021989101359999000015005TMARIA NIEVES GANADO VERDU                                                   000000000000000000N
021989101359999000015006TJOSE RAFAEL FLORES GONZALEZ                                                 000000000000000000N
021989101359999000015007TJESUS BLANCO VILLEGAS                                                       000000000000000000N
021989101209999000015004TFERNANDO AGUADO MARTIN                                                      000000000000000000N
021989101209999000015005TMARIA MONTSERRAT RUFO CASTRO                                                000000000000000000N
021989101209999000015006TMARIA ESTRELLA CRESPO SANCHEZ                                               000000000000000000N
021989101209999000015007TMANUELA CASTRO BICARIA                                                      000000000000000000N
021989101219999000015001TANTONIO ALVAREZ TORIBIO                                                     000000000000000000N
021989101219999000015002TANA ISABEL ABAD LOZANO                                                      000000000000000000N
021989101219999000015003TDIEGO RODRIGUEZ TORIBIO                                                     000000000000000000N
021989101219999000015004TMARGARITA ARGINSONIS ROJAS                                                  000000000000000000N
021989101219999000015005TRAUL MANUEL ORTEGA LIBRERO                                                  000000000000000000N
021989101229999000015001TMARIA PILAR ARQUE ARQUE                                                     000000000000000000N
021989101229999000015002TNICOLAS BAENA MARTINEZ                                                      000000000000000000N
021989101229999000015003TMARIA ELENA GIL LLOP                                                        000000000000000000N
021989101239999000015001TJUANA DE LA CHICA MARTINEZ                                                  000000000000000000N
021989101239999000015002TJUAN BERRIOS DE LA CHICA                                                    000000000000000000N
021989101239999000015003TSILVIO DOMINGUEZ GONZALEZ                                                   000000000000000000N
021989101239999000015004TPOLICARPO LUNA DURAN                                                        000000000000000000N
021989101509999000014004TJUAN JOSE ALMELA RUIZ                                                       000000000000000000N
021989101509999000014005TMARIA ARANZAZU VICENTE PALACIO                                              000000000000000000N
021989101509999000014006TFRANCISCO ESCAMILLA GARCIA                                                  000000000000000000N
021989101509999000014007TMANUEL GRAN MARCO                                                           000000000000000000N
021989101519999000014001TVICENTE RIVERA IBORRA                                                       000000000000000000N
021989101019999000015001TSILVIA GARCIA GRACIA-REDONDO                                                000000000000000000N
021989101019999000015002TANTONIO GARCIA JIMENEZ                                                      000000000000000000N
021989101019999000015003TFRANCISCO JAVIER DONLO FLORISTAN                                            000000000000000000N
021989101019999000015004TJOSE ALBERTO ARANDA NOZAL                                                   000000000000000000N
021989101029999000015001TMARGARITA PEREZ COIRA                                                       000000000000000000N
021989101029999000015002TJUAN JESUS AMOR GONZALEZ                                                    000000000000000000N
021989101029999000015003TROGELIO MUÑOZ MUÑOZ                                                         000000000000000000N
021989101029999000015004TIMELDA CALDERON RODRIGO                                                     000000000000000000N
021989101039999000015001TRAFAEL SIMON SANCHEZ                                                        000000000000000000N
021989101039999000015002TMILAGROS CERVERA LOPEZ                                                      000000000000000000N
021989101039999000015003TGUILLERMO DE LA TORRE HERNANDEZ                                             000000000000000000N
021989101119999000025002TJOSE RODRIGUEZ CARRION                                                      000000000000000000N
021989101119999000025003TANTONIO PATRICIO GONZALEZ GARCIA                                            000000000000000000N
021989101119999000025004TFRANCISCO JAVIER ALCINA PARODI                                              000000000000000000N
021989101119999000025005TDIEGO UTRERA SANCHEZ                                                        000000000000000000N
021989101119999000025006TARTURO LOPEZ MORENO                                                         000000000000000000N
021989101119999000025007TMARIA YOLANDA REYES CALVO                                                   000000000000000000N
021989101119999000025008TJUAN TABOADA SABORIDO                                                       000000000000000000N
021989101119999000025009TANTONIO MORALES GOMEZ DE LA TORRE                                           000000000000000000N
021989101149999000025001TMANUEL MONTALVO SORIANO                                                     000000000000000000N
021989101039999000026001TMARIA MAR BERNADES I BARRIONUEVO                                            000000000000000000N
021989101039999000026002TANDRES CASANOVAS I ANTOLIN                                                  000000000000000000N
021989101039999000026003TMONTSERRAT SOLER I FERRANDIS (INDEPENDENT)                                  000000000000000000N
021989101039999000026004TJUAN ENRIQUE LABORDA I VALERO                                               000000000000000000N
021989101039999000026005TMARIA MAGDALENA GUARIDO I GONZALEZ                                          000000000000000000N
021989101039999000026006TLAURA RIQUELME I MONTALBAN                                                  000000000000000000N
021989101039999000026007TRAMON SALADRIGAS I TRIBO                                                    000000000000000000N
021989101219999000024005TAMELIA LEON GOMEZ                                                           000000000000000000N
021989101239999000024001TROSA CONDE GUTIERREZ DEL ALAMO                                              000000000000000000S
021989101239999000024002TFRANCISCO GARCIA VICO                                                       000000000000000000S
021989101239999000024003TTOMAS CABRERA LOZANO                                                        000000000000000000S
021989101239999000024004TANGUSTIAS MARIA RODRIGUEZ ORTEGA                                            000000000000000000S
021989101239999000024005TRAMON PADILLA LOPEZ                                                         000000000000000000N
021989101239999000024006TJUAN DE LA TORRE GONZALEZ                                                   000000000000000000N
021989101299999000024001TCARLOS SANJUAN DE LA ROCHA                                                  000000000000000000S
021989101299999000024002TRAFAEL BALLESTEROS DURAN                                                    000000000000000000S
021989101299999000024003TMARIA DOLORES SANCHEZ LOPEZ                                                 000000000000000000S
021989101299999000024004TLUIS PAGAN SAURA                                                            000000000000000000S
021989101299999000024005TENRIQUE MARTINEZ MARTINEZ                                                   000000000000000000S
021989101299999000024006TJOSE MARIA RUIZ POVEDANO                                                    000000000000000000S
021989101299999000024007TJUAN MIGUEL RODRIGUEZ RODRIGUEZ                                             000000000000000000S
021989101299999000024008TROSARIO TORRES RUIZ                                                         000000000000000000N
021989101299999000024009TJUAN CARLOS LOMEÑA VILLALOBOS                                               000000000000000000N
021989101499999000051002TMARIA INES GUTIERREZ CARBAJAL                                               000000000000000000N
021989101499999000051003TFRANCISCA BRUNO ABAD                                                        000000000000000000N
021989101089999000052001TFRANCISCO JAVIER CAMBRA TRIANO                                              000000000000000000N
021989101089999000052002TJUANA MARIA ALUMA TRULLAS                                                   000000000000000000N
021989101089999000052003TAURELIO MARTINEZ TERUEL                                                     000000000000000000N
021989101089999000052004TFRANCISCO JAVIER ALEGRIA SAINZ                                              000000000000000000N
021989101089999000052005TMARIA JOSE SERRATOSA BELLES                                                 000000000000000000N
021989101089999000052006TBLANCA ESTER CATARINEU VILLALVA                                             000000000000000000N
021989101089999000052007TSALVADOR RIVERA VALENCIA                                                    000000000000000000N
021989101089999000052008TJAVIER BARRIENTOS MUÑOZ                                                     000000000000000000N
021989101089999000052009TRENE GOMEZ PEREZ                                                            000000000000000000N
021989101089999000052010TPEDRO CRISTOBAL SOBRINO GALLARDO                                            000000000000000000N
021989101089999000052011TALBERTO RAFAEL SANCHEZ MUÑIZ                                                000000000000000000N
021989101089999000052012TESPERANZA GOMEZ MORALES                                                     000000000000000000N
021989101089999000052013TALEJANDRO LOPEZ ESPAÑOL                                                     000000000000000000N
021989101089999000052014TANTONIA VILAR MONTAÑES                                                      000000000000000000N
021989101159999000016008TVICENTE JOSE ROURA GOMEZ                                                    000000000000000000N
021989101159999000016009TANTONIO ANGEL PANTIN VAZQUEZ                                                000000000000000000N
021989101209999000016001TCLAUDIO DELGADO SAEZ                                                        000000000000000000N
021989101209999000016002TJUAN MARIA ARZALLUS EGUIGUREN                                               000000000000000000N
021989101209999000016003TALEJANDRO TERRONES SARASOLA                                                 000000000000000000N
021989101209999000016004TMARIA JESUS TAPIA VICENTE                                                   000000000000000000N
021989101209999000016005TJOSE MARIA AMIGO ZAMORANO                                                   000000000000000000N
021989101209999000016006TPEDRO LUIS GOICOECHEA LOPEZ                                                 000000000000000000N
021989101209999000016007TCLEMENTE RUIZ SANCHEZ                                                       000000000000000000N
021989101289999000016001TJUAN FELIX OLASO BILBAO                                                     000000000000000000N
021989101289999000016002TMARIA ESPERANZA ROCES GONZALEZ                                              000000000000000000N
021989101289999000016003TRAFAEL VEGAS JIMENEZ (INDEPENDIENTE)                                        000000000000000000N
021989101289999000016004TVALENTIN JESUS RUIZ DE PABLO                                                000000000000000000N
021989101289999000016005TFRANCISCO VALLEJO MAYEN (INDEPENDIENTE)                                     000000000000000000N
021989101289999000016006TJOSE LUIS MARTIN LOSADA                                                     000000000000000000N
021989101289999000016007TMARIA PILAR CARAZO MINGUELA                                                 000000000000000000N
021989101479999000015002TANA VICTORIA SANZ CANO                                                      000000000000000000N
021989101479999000015003TMARIA RUT ALONSO ZUMEL                                                      000000000000000000N
021989101479999000015004TMARIA PILAR FRANCO CARRERAS                                                 000000000000000000N
021989101479999000015005TJESUS GARCIA GARCIA                                                         000000000000000000N
021989101489999000015001TJAVIER VILAPLANA POTTECHER                                                  000000000000000000N
021989101489999000015002TANA CRISTINA CANORA SANCHEZ                                                 000000000000000000N
021989101489999000015003TLOURDES CRESPO SANCHEZ                                                      000000000000000000N
021989101489999000015004TFRANCISCO JAVIER RUFO CASTRO                                                000000000000000000N
021989101489999000015005TDIEGO CRESPO PEREZ                                                          000000000000000000N
021989101489999000015006TMARIA PAZ LOPEZ GUTIERREZ                                                   000000000000000000N
021989101489999000015007TEDUARDO ISABEL MORALES                                                      000000000000000000N
021989101489999000015008TMARIA RESURRECCION ROQUERO BRAVO                                            000000000000000000N
021989101489999000015009TJUSTINO SANCHEZ GOMEZ                                                       000000000000000000N
021989101489999000015010TMANUELA HERNANDEZ CABREJAS                                                  000000000000000000N
021989101499999000015001TALFONSO FRANCISCO PINO MARCOS                                               000000000000000000N
021989101499999000015002TGEMMA CRISTINA FERNANDEZ MARTINEZ                                           000000000000000000N
021989101149999000023001TERNESTO CABALLERO CASTILLO (PCA)                                            000000000000000000S
021989101149999000023002TFRANCISCO MORENO GOMEZ (PCA)                                                000000000000000000N
021989101149999000023003TMARIA CARMEN OLMO SANCHEZ (NO AFILIADA)                                     000000000000000000N
021989101149999000023004TMARIA MESONES GALAN (PCA)                                                   000000000000000000N
021989101149999000023005TMIGUEL PELAEZ SANCHEZ (PCA)                                                 000000000000000000N
021989101149999000023006TANTONIO DEL RIO MOYANO (PASOC)                                              000000000000000000N
021989101149999000023007TEDUARDO CASTRO CASTRO (PASOC)                                               000000000000000000N
021989101189999000023001TBALTASAR GARZON GARZON (PCA)                                                000000000000000000S
021989101189999000023002TELIA SEVILLA GARCIA (PCA)                                                   000000000000000000N
021989101189999000023003TMARIA ESMERALDA GALLEGO ORTIZ (PCA)                                         000000000000000000N
021989101189999000023004TMARIA  SETEFILLA ZURITA GALVEZ (PASOC-A)                                    000000000000000000N
021989101189999000023005TJUAN AGUDO SANCHEZ (PCA)                                                    000000000000000000N
021989101189999000023006TANA MARIA GAMEZ TAPIA (PCA)                                                 000000000000000000N
021989101189999000023007TJESUS ORTIZ LOPEZ (PASOC-A)                                                 000000000000000000N
021989101219999000023001TLUIS DOMINGUEZ BONET                                                        000000000000000000N
021989101219999000023002TVICENTE RUFINO RIVERO                                                       000000000000000000N
021989101289999000021029TJOSE SANTAMARIA JORDAN                                                      000000000000000000N
021989101289999000021030TANGEL NEMESIO PALOMAR                                                       000000000000000000N
021989101289999000021031TANDRES PEREZ BERNAT                                                         000000000000000000N
021989101289999000021032TMANUEL SALVADOR SEGARRA MANRIQUE                                            000000000000000000N
021989101289999000021033TVICENTE AGUILAR NAVARRA                                                     000000000000000000N
021989101049999000022001TJUAN JOSE SANCHEZ LOPEZ                                                     000000000000000000N
021989101049999000022002TMARGARITA REPOSO VAZQUEZ                                                    000000000000000000N
021989101049999000022003TMIGUEL PASCUAL MIRALLES                                                     000000000000000000N
021989101049999000022004TJOSE LOPEZ MARTINEZ                                                         000000000000000000N
021989101049999000022005TFRANCISCO GALDEANO GALDEANO                                                 000000000000000000N
021989101119999000022001TJULIO PEREZ SERRANO                                                         000000000000000000N
021989101119999000022002TJUAN ROMERO PAZO                                                            000000000000000000N
021989101119999000022003TRAFAEL RIVERO GUTIERREZ                                                     000000000000000000N
021989101119999000022004TJUAN ANTONIO ORTIZ TORRES                                                   000000000000000000N
021989101119999000022005TCRISTOBAL BERENJENO CALERO                                                  000000000000000000N
021989101119999000022006TLEONOR ROSANO SEVILLA                                                       000000000000000000N
021989101419999000019009TBLANCA LOPEZ TAPIA BLANCO                                                   000000000000000000N
021989101419999000019010TINMACULADA CONCEPCION GARCIA BENITEZ                                        000000000000000000N
021989101419999000019011TMANUEL RAMOS RODRIGUEZ                                                      000000000000000000N
021989101419999000019012TELISA ISABEL DOMINGUEZ DOMINGUEZ                                            000000000000000000N
021989101289999000020001TFLORENCIO MENDEZ DE LA CRUZ                                                 000000000000000000N
021989101289999000020002TFERNANDO PASTOR CAMARERO                                                    000000000000000000N
021989101289999000020003TMARIA LUISA SANZ DIAZ                                                       000000000000000000N
021989101289999000020004TFERNANDO BASTARRECHE FARIÑAS                                                000000000000000000N
021989101289999000020005TJUAN MANUEL SANZ DIAZ                                                       000000000000000000N
021989101289999000020006TMARIA AMELIA ALVAREZ PALOMAR                                                000000000000000000N
021989101289999000020007TCARLOS CABALLERO RODRIGO                                                    000000000000000000N
021989101289999000020008TFERMIN BORRELL GIL                                                          000000000000000000N
021989101289999000020009TMIGUEL DOMINGUEZ ORTIZ                                                      000000000000000000N
021989101289999000020010TAGUSTIN GALVEZ MORAL                                                        000000000000000000N
021989101289999000020011TFLORENCIO JAVIER MENDEZ DOMINGUEZ                                           000000000000000000N
021989101289999000020012TEULOGIO DOMINGUEZ GARCIA                                                    000000000000000000N
021989101409999000018001TFRANCISCO SAAVEDRA GARCIA                                                   000000000000000000N
021989101409999000018002TMARIA LUISA SEISDEDOS SANZ                                                  000000000000000000N
021989101409999000018003TJAVIER CALLER CELESTINO                                                     000000000000000000N
021989101419999000018001TSONIA RODRIGUEZ CARREIRA                                                    000000000000000000N
021989101419999000018002TJOSE ANTONIO GONZALEZ GARCIA                                                000000000000000000N
021989101419999000018003TREMEDIOS CABRERA SANJUAN                                                    000000000000000000N
021989101419999000018004TJOSE IGNACIO MARQUINA LACUEVA                                               000000000000000000N
021989101419999000018005TAURORA DIGON GARCIA                                                         000000000000000000N
021989101419999000018006TJOSE ANGEL CUEVAS SECO                                                      000000000000000000N
021989101419999000018007TMERCEDES FERNANDEZ FRANCO                                                   000000000000000000N
021989101419999000018008TJAVIER SANCHEZ LOPEZ                                                        000000000000000000N
021989101419999000018009TCONSUELO CORTES SERVIOLA                                                    000000000000000000N
021989101419999000018010TAGUSTIN PACHECO JIMENEZ                                                     000000000000000000N
021989101419999000018011TANTONIA ESTEVEZ LEBRATO                                                     000000000000000000N
021989101419999000018012TANTONIO GONZALEZ PEREZ                                                      000000000000000000N
021989101109999000015001TANA AMOR GONZALEZ                                                           000000000000000000N
021989101109999000015002TJOSE ANTONIO FERNANDEZ FERNANDEZ                                            000000000000000000N
021989101109999000015003TMARIA AUREA MARTINEZ MOURON                                                 000000000000000000N
021989101109999000015004TROBERTO RIOL FIDALGO                                                        000000000000000000N
021989101109999000015005TFRANCISCA MARQUEZ APARICIO                                                  000000000000000000N
021989101119999000015001TJOSE LUIS VALENCIA OCA                                                      000000000000000000N
021989101119999000015002TMANUEL CABALLERO MATEOS                                                     000000000000000000N
021989101119999000015003TDIEGO VALENCIA OCA                                                          000000000000000000N
021989101119999000015004TJOSE ANTONIO ALVAREZ PACHECO                                                000000000000000000N
021989101119999000015005TCESAR PEREZ PACHECO                                                         000000000000000000N
021989101119999000015006TILDEFONSO HINOJO LOPEZ                                                      000000000000000000N
021989101119999000015007TANTONIO SALGUERO ROSADO                                                     000000000000000000N
021989101119999000015008TDAVID CAMAS PEREGRINO                                                       000000000000000000N
021989101089999000026008TFRANCISCO EXPOSITO I HERRERIAS (PSDC)                                       000000000000000000N
021989101089999000026009TMARTA PIERA I MASFERRER (PSDC)                                              000000000000000000N
021989101089999000026010TJOAN PUIG I PONT (PSDC)                                                     000000000000000000N
021989101089999000026011TANTONIO BERENGUER I CANTOS (PSDC)                                           000000000000000000N
021989101089999000026012TFERNANDO BERENGUER I SANCHEZ (PSDC)                                         000000000000000000N
021989101089999000026013TFRANCISCO PUIG I PONT (PSDC)                                                000000000000000000N
021989101089999000026014TJORGE MORRUS I SERIÑA (PSDC)                                                000000000000000000N
021989101089999000026015TMARGARITA RAMON I DE LA TORRE (PSDC)                                        000000000000000000N
021989101089999000026016TJUAN DE DIOS GUTIERREZ I QUESADA (PSDC)                                     000000000000000000N
021989101089999000026017TPEDRO BORRAS I OLAVE (PSDC)                                                 000000000000000000N
021989101089999000026018TGREGORIO BARRENA I HIDALGO (PSDC)                                           000000000000000000N
021989101089999000026019TCARMEN CASTAÑE I ELVIRA (PSDC)                                              000000000000000000N
021989101089999000026020TJOAN ANTONIO SANCHEZ I DIAZ (PSDC)                                          000000000000000000N
021989101089999000026021TTERESA ESPUNY I SOLA (PSDC)                                                 000000000000000000N
021989101089999000026022TJULIAN GALIANO I PATIÑO (PSDC)                                              000000000000000000N
021989101089999000026023TINES SANCHIS I TORRES (PSDC)                                                000000000000000000N
021989101149999000025006TMANUEL COBACHO MARQUEZ                                                      000000000000000000N
021989101149999000025007TANTONIO LOPEZ GARCIA                                                        000000000000000000N
021989101189999000025001TJOSE ANTONIO GUILLEN ALFARO                                                 000000000000000000N
